:020000040800F2
:10000000802E0020C1010008A57E0008876D000831
:10001000B9790008450900085FAB0008000000003E
:10002000000000000000000000000000CD88000873
:10003000732B000800000000937F00082D89000842
:10004000DB010008DB010008DB010008DB01000820
:10005000DB010008DB010008DB010008752B00084C
:100060007F2B0008DB010008DB010008DB01000832
:10007000F1290008DB010008012A0008DB01000863
:10008000192A0008292A0008DB010008590900087C
:1000900049090008DB010008DB010008DB0100085A
:1000A000DB010008DB010008DB010008DB010008C0
:1000B0006D8B00087D8B0008B58B0008DB01000804
:1000C000DB010008DB010008DB010008DB010008A0
:1000D000DB01000815990008DB010008DB010008BE
:1000E000DB010008DB010008DB010008DB01000880
:1000F000DB010008DB010008DB010008DB01000870
:10010000DB010008DB010008C58B0008DB010008EB
:10011000DB010008DB010008DB010008DB0100084F
:10012000DB010008392A0008492A0008DB01000821
:10013000DB010008DB010008DB0100087909000889
:1001400069090008DB010008DB010008E17E000806
:10015000DB010008DB010008DB010008DB0100080F
:10016000DB010008DB010008DB010008DB010008FF
:10017000DB010008DB010008DB01000800000000D3
:10018000DB010008DB010008DB0100081D9300080B
:10019000DB010008DB010008DB010008DB010008CF
:1001A0000000000000000000DB010008DFF80CD0B8
:1001B00000F040FB00480047CDBE0008802E002024
:1001C0000648804706480047FEE7FEE7FEE7FEE7F1
:1001D000FEE7FEE7FEE7FEE7FEE7FEE7FD89000833
:1001E000AD01000840EA01039B0703D009E008C9FC
:1001F000121F08C0042AFAD203E011F8013B00F8EC
:10020000013B521EF9D27047D2B201E000F8012B37
:10021000491EFBD270470022F6E710B513460A4686
:1002200004461946FFF7F0FF204610BD2DE9FE4FAA
:10023000804681EA0300C00F0C46009021F0004187
:1002400023F00045B8EB0200A94105D24046214603
:1002500090461C460B46024623F00040104347D010
:10026000270DC7F30A00C3F30A510290401A019008
:1002700040286BDAC3F3130040F4801B00989246C9
:1002800020B10023D2EB030A63EB0B0B0198594614
:10029000C0F14002504600F007FA06460D465046AF
:1002A0005946019A00F01FFA10EB08006141002442
:1002B00087EA115284EAE7731A4340D0009A62B386
:1002C000019A012A4FEA075215DC001B61EB02017B
:1002D0004FF0004202EA0752CDE90042001C41F50E
:1002E000801132462B4600F056FA03B0BDE8F08F7D
:1002F00040462146F9E7001B61EB0201001C41F575
:10030000801300185B412018A2F5001747EB03018A
:1003100040EAD570B6196D4111E06D084FEA360616
:1003200045EAC0754FEA0752001B61EB0201001C51
:1003300041F5801149084FEA300000195141324619
:100340002B4603B0BDE8F04F00F016BA009801222A
:1003500040000023D0EB020263EBE07300982146DB
:100360004FEAE074B8EB000061EB0401E9E783F0C9
:1003700000435BE781F0004158E72DE9FE4F81EA39
:10038000030404F0004421F0004100944FF0000BFE
:1003900023F0004350EA01045ED052EA03045BD02C
:1003A000C3F30A54C1F30A552C44A4F2F334019464
:1003B000A0FB0254C1F3130141F48011C3F31303F2
:1003C00043F4801301FB024400FB034E840A970AA6
:1003D00044EA815447EA8357A4FB076802958D0AD3
:1003E00005FB07854FEA932C04FB0C542705029D5F
:1003F0004FEA065847EA1637B5EB08056EEB070CCF
:10040000870E920E47EA811742EA8312A7FB020188
:10041000B6EB0B0164EB00042B0D43EA0C335E18C2
:1004200044EB1C50DA465146E7FB0201C5F31304C6
:100430004FEA0B3343EA14534FEA0432019C43EA78
:100440000603A4F10C040294009CCDE900B400F072
:10045000A2F903B0BDE8F08F00200146F9E72DE9CD
:10046000F04D81EA030404F0004B21F000451446EE
:100470004FF0000A23F0004150EA050220D054EA70
:1004800001021DD0C5F30A570246C5F31303C1F399
:100490001300C1F30A5640F4801543F48013A7EB10
:1004A0000608101BD64608F2FD3873EB050002D390
:1004B00008F1010801E092185B41B8F1000F03DA7E
:1004C00000200146BDE8F08D00204FF48011064663
:1004D00084460EE0171B73EB050705D3121B63EB75
:1004E000050306434CEA010C49084FEA3000921814
:1004F0005B4150EA0107EDD152EA030012D082EAD3
:10050000040083EA0501084305D0101BAB4106D265
:100510000122002306E000224FF0004302E06FF0CA
:10052000010253101AEB06004CEB085110EB0A00C5
:1005300041EB0B01BDE8F04D00F01EB90EB5C10F47
:1005400080EAE0700844CA07002140F233438DE896
:100550000E000A460B4600F01EF903B000BD0EB5B2
:1005600040F2334102910021CDE900110A460B46C9
:1005700000F011F903B000BD70B5C1F30A5201F0EB
:1005800000450024C1F3130140F2FF3341F4801110
:100590009A4201DA002070BD40F233439A42A2F23F
:1005A000334203DC524200F08EF800E090402C43CE
:1005B000F1D0404270BDC1F30A5210B5C1F313012E
:1005C00040F2FF3341F480119A4201DA002010BD5D
:1005D00040F233439A42A2F2334203DC524200F02B
:1005E00072F810BD904010BD00F0004230F00040A5
:1005F0000AD0C10D01F56071C0F3160042EA015145
:10060000C2084007114370470020014670470000B0
:1006100030B5041E71F1000404DB4FF00044404289
:1006200064EB0101141E73F1000405DB1C464FF05E
:100630000043524263EB04038B4208BF824230BD49
:1006400030B5041E71F1000404DB4FF00044404259
:1006500064EB0101141E73F1000405DB1C464FF02E
:100660000043524263EB0403994208BF904230BDFD
:1006700001F0004330B421F0004150EA010206D0FD
:100680000A0DA2F56072C1F31301002A02DC30BC2E
:1006900000207047440F44EAC104C100E01830BC98
:1006A00000EBC25000F031B8202A04DB203A00FAF7
:1006B00002F1002070479140C2F1200320FA03F3B9
:1006C000194390407047202A04DB203A21FA02F0B7
:1006D0000021704721FA02F3D040C2F1200291407C
:1006E000084319467047202A06DBCB17203A41FA07
:1006F00002F043EAE07306E041FA02F3D040C2F1AF
:10070000200291400843194670470029A8BF70474E
:10071000401C490008BF20F00100704710B4B0FA37
:1007200080FC00FA0CF050EA010404BF10BC7047D2
:1007300049B1CCF1200421FA04F411FA0CF118BFEC
:10074000012121430843A3EB0C01CB1D4FEA0061BB
:100750004FEA102042BF002010BC704700EBC3508E
:1007600010440029A4BF10BC7047401C490008BFBA
:1007700020F0010010BC704710B5141E73F1000486
:1007800008DA401C41F1000192185B411A4301D183
:1007900020F0010010BD2DE9F04D92469B4611B1AD
:1007A000B1FA81F202E0B0FA80F220329046FFF70F
:1007B0007BFF04460F4640EA0A0041EA0B0153461C
:1007C0005A46084313D0114653EA010019D0C8F124
:1007D00040025046FFF777FF05460E465046594601
:1007E0004246FFF761FF084305D0012004E02046A0
:1007F0003946BDE8F08D0020054346EAE0762C43FB
:1008000037430A986305E40AA0EB08000022FD0ABA
:1008100044EA47540A3002D500200146E9E70105C1
:1008200010196941DDE9084500196941BDE8F04D3D
:10083000A2E70000064C074D06E0E06840F0010327
:1008400094E8070098471034AC42F6D3FFF7B2FCA7
:1008500040C6000860C6000830B58C1810F8012B9F
:1008600012F00F0301D110F8013B120906D110F864
:10087000012B03E010F8015B01F8015B5B1EF9D16D
:1008800001E001F8013B521EFBD1A142E6D300205A
:1008900030BDD0ED000AF4EEC00AF1EE10FA01DD31
:1008A00080ED000AD0ED000AB1EE401AF4EEC10A64
:1008B000F1EE10FA03D2F1EE400AC0ED000A7047E3
:1008C00070B52DED068B04460D46012C27D1542022
:1008D0001649096888621648B0FBF5F0401E1349B6
:1008E0000968C86211490968C86AFFF738FE41EC17
:1008F0001A0B9FED100B53EC102BFFF73EFD41EC54
:10090000190B9FED0E0B53EC102BFFF730FD41EC54
:10091000180BFFF750FE05490968486303E0002003
:10092000024909684863BDEC068B70BD10240020A5
:1009300040420F00000000000000E03F0000000007
:100940000000F03F00BFFEE710B5024802F050FD86
:1009500010BD0000041E002010B5024802F048FD42
:1009600010BD0000041E002010B5024802F040FD3A
:1009700010BD0000441E002010B5024802F038FDF2
:1009800010BD0000441E002000B58BB00020069072
:10099000079001200890002001900290039004909D
:1009A00005900E200A900120099001A90A4802F042
:1009B00087FC0E20069001A9084802F081FC084837
:1009C000054908630748486307480449086307481E
:1009D00048630BB000BD0000041E0020441E002030
:1009E000841E0020A01E0020C41E0020E01E002047
:1009F00070B504460D46206800F5D87000EB051070
:100A0000006800F00400616B8860606B806860B90A
:100A1000206800F5D87000EB0510006840F2FF7107
:100A200001EA5050616B08600BE0206800F5D87057
:100A300000EB051000686FF0604101EAD000616BC7
:100A40004860206800F5D87000EB0510006800F0E1
:100A50000200616BC860206800F5D87000EB0510DB
:100A6000406800F00F00616B0861606B05622068F0
:100A700000F5D87000EB05104068C0F30720616BEB
:100A8000C861206800F5D87000EB05108068616BC4
:100A90000875206800F5D87000EB05108068010A21
:100AA000606B4175206800F5D87000EB0510806818
:100AB000010C606B8175206800F5D87000EB0510A3
:100AC0008068000E616BC875206800F5D87000EB77
:100AD0000510C068C1B2606B0176206800F5D8705F
:100AE00000EB0510C068010A606B4176206800F5D4
:100AF000D87000EB0510C068010C606B817620682F
:100B000000F5D87000EB0510C068000E616BC87668
:100B10004DB920202168C8602068406920F002009B
:100B20002168486108E02020216808612068406948
:100B300020F010002168486194F8380022281DD167
:100B40002068406920F4807021684861206840690D
:100B500020F40070216848612068406920F48060BA
:100B6000216848612068406920F40060216848617C
:100B70002068406920F400402168486194F83800FA
:100B8000322803D1122084F8380002E0012084F8D2
:100B90003800204602F0E4FE002070BD10B5044687
:100BA0002068406920F001002168486194F838000D
:100BB00012281DD12068406920F4807021684861A6
:100BC0002068406920F4007021684861206840690D
:100BD00020F48060216848612068406920F400604A
:100BE000216848612068406920F40040216848611C
:100BF00094F83800322803D1222084F8380002E02B
:100C0000012084F83800204603F0F4F9002010BDDC
:100C100030B52DED108B8FB0B0EE40BA9FEDFE0ACF
:100C2000F0EE40BA9FEDFC0AB0EE40DA9FEDFA0A12
:100C3000B0EE409A9FEDF80AF0EE409A9FEDF60A6A
:100C4000B0EE40AA9FEDF40AF0EE40AA14210AA8E3
:100C5000FFF7E1FAF14890F8E000022802D19FED99
:100C6000F08A1DE0ED4890ED3C0A10EE101A08469F
:100C7000FFF7BAFC41EC1C0B9FEDEA0B53EC102B79
:100C8000FFF778FB41EC1F0B9FEDE80B53EC102BAB
:100C9000FFF773FB41EC1E0BFFF7EAFC08EE100AAE
:100CA000DE4890ED080AB5EEC00AF1EE10FA65D103
:100CB000B7EE080A28EE000A10EE101A0846FFF7F1
:100CC00093FC41EC1E0BD54890ED080AD948D0EDB5
:100CD000000A30EEC00A10EE101A0846FFF784FC36
:100CE00041EC1C0BB0EE4C0AF0EE6C0A0AF05CF919
:100CF000B0EE40FAF0EE60FA53EC1E2B51EC1F0BF5
:100D0000FFF786FC05D2C54890ED080AC94880ED7A
:100D1000000AC24890ED080AC648D0ED000A30EE3D
:100D2000C00A10EE101A0846FFF75EFC41EC1C0BDF
:100D3000B0EE4C0AF0EE6C0A0AF036F9B0EE40EA7A
:100D4000F0EE60EA9FEDBC0B53EC102B51EC1E0B48
:100D5000FFF776FC0BD2B74890ED000AB5EEC00A5B
:100D6000F1EE10FA04DD9FEDB60A80ED000AA4E072
:100D70009FEDB40AAF4880ED000A9EE037E0A74837
:100D800090ED080AAB48D0ED000AB4EEE00AF1EEAF
:100D900010FA16D2A14890ED080A10EE101A084673
:100DA000FFF722FC41EC1E0B9FEDA70B53EC102B21
:100DB000FFF73CFA41EC1C0BFFF75AFC9D49086019
:100DC00015E0964890ED080A10EE101A0846FFF755
:100DD0000BFC41EC1E0B9FED9C0B53EC102BFFF713
:100DE000C6FA41EC1C0BFFF743FC924908608B48A4
:100DF00090ED080A8F48D0ED000A30EEC00A10EEE0
:100E0000101A0846FFF7F0FB41EC1C0BB0EE4C0A41
:100E1000F0EE6C0A0AF0C8F8B0EE40EAF0EE60EAD4
:100E20009FED8B0B53EC102B51EC1E0BFFF708FCC6
:100E3000A5D37A4890ED080A10EE101A0846FFF77D
:100E4000D3FB41EC1C0BB0EE4C0AF0EE6C0A0AF03E
:100E5000ABF8B0EE40EAF0EE60EA9FED7F0B53ECAA
:100E6000102B51EC1E0BFFF788FA41EC1F0B6B485F
:100E700090ED080A6F48D0ED000A30EEC00A10EE7F
:100E8000101A0846FFF7B0FB41EC1C0BB0EE4C0A01
:100E9000F0EE6C0A0AF088F88DED080B53EC1F2B6E
:100EA0009DED080B51EC100BFFF7B2FB05D25B4830
:100EB00090ED080A5F4880ED000A584890ED080A56
:100EC0005C48D0ED000AB4EEE00AF1EE10FA06DD5F
:100ED00090ED000A30EE080A80ED000A10E04F485D
:100EE00090ED080A5348D0ED000AB4EEE00AF1EEA6
:100EF00010FA05D290ED000A30EE480A80ED000AA3
:100F0000464890ED090AB5EEC00AF1EE10FA65D137
:100F1000B0EE000A28EE000A10EE101A0846FFF79D
:100F200063FB41EC1E0B3D4890ED090A4C48D0EDA7
:100F3000000A30EEC00A10EE101A0846FFF754FB04
:100F400041EC1C0BB0EE4C0AF0EE6C0A0AF02CF8E7
:100F5000B0EE40FAF0EE60FA53EC1E2B51EC1F0B92
:100F6000FFF756FB05D22D4890ED090A3C4880ED6D
:100F7000000A2A4890ED090A3948D0ED000A30EEFF
:100F8000C00A10EE101A0846FFF72EFB41EC1C0BAE
:100F9000B0EE4C0AF0EE6C0A0AF006F8B0EE40EA49
:100FA000F0EE60EA9FED2F0B53EC102B51EC1E0B73
:100FB000FFF746FB0BD22A4890ED000AB5EEC00AB7
:100FC000F1EE10FA04DD9FED290A80ED000AD0E071
:100FD0009FED270A224880ED000ACAE060E00F4832
:100FE00090ED090A1E48D0ED000AB4EEE00AF1EED9
:100FF00010FA43D20068FFF7F7FA41EC1E0B9FEDA1
:101000001D0B53EC102BFFF7B2F941EC1C0BFFF753
:101010002FFB1349086043E0000000003C01002062
:10102000CDCCCC3D9A9999999999F93F7B14AE47CB
:10103000E17A943F100000209A9999999999D93FA3
:10104000CDCCCC3ECDCCCCBE000000000000E03FBB
:10105000000000000000F03F9A9999999999B93FD2
:1010600014000020333333333333D33F9A99993EFE
:101070009A9999BE9A9999999999E93FFA4800687D
:10108000FFF7B2FA41EC1E0B1FED060B53EC102BD1
:10109000FFF7CCF841EC1C0BFFF7EAFAF2490860C5
:1010A000F24890ED090AF048D0ED000A30EEC00A8F
:1010B00010EE101A0846FFF797FA41EC1E0BB0EE3F
:1010C0004E0AF0EE6E0A09F06FFFB0EE40CAF0EE85
:1010D00060CA1FED210B53EC102B51EC1C0BFFF7DA
:1010E000AFFAFFF47CAFE14890ED090A10EE101A58
:1010F0000846FFF779FA41EC1C0BB0EE4C0AF0EE13
:101100006C0A09F051FFB0EE40EAF0EE60EA9FEDA4
:10111000D80B53EC102B51EC1E0BFFF72EF9CDE939
:101120000801D24890ED090ACF48D0ED000A30EE10
:10113000C00A10EE101A0846FFF756FA41EC1C0BD5
:10114000B0EE4C0AF0EE6C0A09F02EFFB0EE40FA59
:10115000F0EE60FA9DED080B53EC102B51EC1F0BD9
:10116000FFF756FA05D2C14890ED090ABE4880ED56
:10117000000ABE4890ED090ABB48D0ED000AB4EE63
:10118000E00AF1EE10FA08DD90ED000AF7EE080A29
:1011900000EE880A80ED000A12E0B44890ED090ADA
:1011A000B148D0ED000AB4EEE00AF1EE10FA07D231
:1011B00090ED000AF7EE080A00EEC80A80ED000A7A
:1011C000AD48007901287DD19FEDAC0A2BEE000AD5
:1011D000DFEDAB0A80EE201A11EE105A2846FFF719
:1011E00003FA41EC1E0BB0EE4E0AF0EE6E0A09F067
:1011F000E7FEB0EE40CAF0EE60CA51EC1C0BFFF700
:1012000037FA0BEE900A9FED9D0A2BEE000ADFEDF8
:101210009C0A80EE201A11EE105A2846FFF7E4F9D6
:1012200041EC1E0BB0EE4E0AF0EE6E0A09F058FECD
:10123000B0EE40CAF0EE60CA51EC1C0BFFF718FA92
:101240000DEE100A8F4890ED000A20EE2B0AB0EE4A
:10125000409A90ED000A20EE0D0AF0EE409A824886
:1012600090ED000A20EE2B0AB0EE40AA90ED000AA5
:1012700020EE0D0AF0EE40AA39EECA0A79EE2A0AEB
:1012800030EE200A8DED0A0A39EECA0AB1EE400AA4
:1012900079EE2A0A30EE200A8DED0B0A39EECA0AE1
:1012A00079EE2A0A30EE600A8DED0C0A39EECA0A90
:1012B000B1EE400A79EE2A0A30EE600A8DED0D0A91
:1012C000002412E014E0694890ED0C0A0AA800EB33
:1012D0008400D0ED000A20EE200A6448103000EBB4
:1012E000840080ED000A601CC4B2042CEBDB0DE02E
:1012F000002409E01FEDB80A5C48103000EB8400C0
:1013000080ED000A601CC4B2042CF3DB574890ED5A
:10131000070A10EE101A0846FFF766F941EC1C0B9D
:10132000B0EE4C0AF0EE6C0A09F03EFE8DED060BB5
:101330004E4890ED060A10EE101A0846FFF754F9D1
:1013400041EC1C0BB0EE4C0AF0EE6C0A09F02CFEDE
:101350008DED020B454890ED050A10EE101A084677
:10136000FFF742F941EC1C0BB0EE4C0AF0EE6C0AB0
:1013700009F01AFEB0EE40EAF0EE60EA3B4890ED6C
:10138000040A10EE101A0846FFF72EF941EC1C0B68
:10139000B0EE4C0AF0EE6C0A09F006FEB0EE40FA30
:1013A000F0EE60FA53EC1E2B51EC1F0BFEF73EFFE4
:1013B000CDE900019DED020B53EC102B9DED000BD0
:1013C00051EC100BFEF732FFCDE904019DED060B49
:1013D00053EC102B9DED040B51EC100BFEF726FF88
:1013E000CDE908019DED080B51EC100BFFF740F91A
:1013F00008EE900AF5EEC08AF1EE10FA46DD1B48C1
:10140000D0ED3B0A80EEA80AF7EE000A30EE200A83
:10141000B5EEC00AF1EE10FA04D29FED1B0A80ED82
:101420003C0A38E01148D0ED3B0A80EEA80AF7EEFE
:10143000000A30EE200AF7EE000AB4EEE00AF1EE00
:1014400010FA04DDB7EE000A80ED3C0A23E00748FD
:10145000D0ED3B0A80EEA80AF7EE000A30EE200A33
:1014600080ED3C0A17E00000140000203C01002041
:101470009A9999999999C93F24030020F90F4940F5
:10148000000034431000002000000000B7EE000A06
:101490002D4880ED3C0A002450E02B4890ED0A0ACC
:1014A000D0ED3C0A103000EB840090ED001A00EE05
:1014B000810A2548103000EB840080ED000A2248A4
:1014C000103000EB840090ED000A04EB04101F497B
:1014D00001EB401080ED850A04EB041001EB401095
:1014E00090ED030A184800EB840080ED000A04EB3D
:1014F00004120B4603EB421292ED851AF0EE410AFC
:1015000004EB041203EB421292ED031AB0EE410A0F
:1015100004EB041203EB421202F1DC0004EB0412B0
:1015200003EB4212D2F82811884704EB0410074954
:1015300001EB401080ED870A601CC4B2042CACDBC8
:101540000FB0BDEC108B30BD3C010020B00400207A
:1015500010B577480088462805DA75480088401C91
:101560007349088010BD00F0D1FC00F0ABF9714860
:10157000408B00EE100AB8EE400A9FED6F1AC0EEE5
:10158000010A9FED6E0A20EEC00ADFED6D0A30EE13
:10159000200A6C4880ED0F0A6B48407C022803D17A
:1015A0006948007C022803D06748407C072803D1A3
:1015B0000320644981F83800624890F8E00028B9B7
:1015C000B7EE000A5F4880ED100A04E0B1EE040AAD
:1015D0005C4880ED100A5B4890F83800032809D178
:1015E0009FED5A0A574880ED0A0A9FED580AFFF707
:1015F0000FFB96E0534890F83800042809D19FED7E
:10160000530A504880ED0A0A9FED510AFFF700FB8C
:1016100087E04C4890F83800012818D14948D0EDAF
:10162000100AB0EE601AD0ED0F0AF1EE600AB0EECB
:10163000600ADFED460A00F09DFE424880ED0A0A8E
:10164000D0ED0F0AB0EE600AFFF7E2FA69E03D481C
:1016500090F83800022818D13A48D0ED100AB0EEC0
:10166000601AD0ED0F0AF1EE600AB0EE600ADFED0D
:10167000380A00F07FFE334880ED0A0AD0ED0F0AE9
:10168000B0EE600AFFF7C4FA4BE02E4890F838003D
:1016900007280BD12B4890ED0B0A80ED0A0AD0EDFC
:1016A0000F0AB0EE600AFFF7B3FA3AE0254890F867
:1016B0003800052818D12348D0ED100AB0EE601A82
:1016C000D0ED0F0AF1EE600AB0EE600ADFED210AFC
:1016D00000F050FE1B4880ED0A0AD0ED0F0AB0EE74
:1016E000600AFFF795FA1CE0164890F838000628C3
:1016F00017D11448D0ED100AB0EE601AD0ED0F0AE1
:10170000F1EE600AB0EE600ADFED130A00F032FE7F
:101710000C4880ED0A0AD0ED0F0AB0EE600AFFF720
:1017200077FA084890F8381080F8391000BF19E7A8
:1017300040000020D0170020000000460000B44305
:101740003333333F3C010020CC1D0020000000005B
:10175000000034430000B4420000B4C29FED4A0AC6
:101760004A4880ED0C0AB1EE040A80ED100A01200F
:10177000464981F838000121444880F83910B1EE1B
:10178000040A80ED3D0A9FED420A80ED3A0A0120ED
:101790003E4981F8E00001213C48C0F800119FED6E
:1017A0003D0A80ED410A9FED3C0A80ED420A9FED23
:1017B0003B0A80ED430AB2EE0E0A80ED460AB2EE15
:1017C000080A80ED470A9FED360A80ED480AB1EE1F
:1017D000040A80ED4D0A9FED320A80ED490A9FED23
:1017E000310A80ED4A0A9FED300A80ED4B0A9FEDE9
:1017F0002C0A80ED4C0A9FED2A0A80ED440A9FEDE9
:10180000280A80ED450AC1649FED280A80ED140A7C
:101810009FED270A80ED150A9FED260A80ED160A36
:101820009FED250A80ED190A9FED1D0A80ED1A0A29
:101830009FED1B0A80ED1B0A9FED190A80ED200A1F
:101840009FED170A80ED1C0A9FED1C0A80ED1D0A12
:10185000B2EE0E0A80ED1E0A9FED110A80ED1F0AFE
:101860009FED0F0A80ED170A9FED0D0A80ED180A13
:101870009FED130A80ED6A0AB3EE040A80ED690A4F
:10188000002180F8B41170470000FA453C010020A7
:101890000000964200606A47CDCCCC3D00401CC79A
:1018A00000000000005043470000C8420080BB45D4
:1018B0000000FA440000FAC4000002430000204285
:1018C0000000544210B52DED0C8BFE4890ED670AD8
:1018D000DFEDFD0A20EE200AD0ED660A9FEDFB1A2F
:1018E00001EE200A80ED670A90ED670A20EE000AFB
:1018F000D0ED690A90ED691A00EEC10AD0ED6A0ACE
:1019000060EEA00A90ED691AD0ED691A41EE610A05
:1019100080EE201A80ED6B1A90ED6B0AB5EEC00ACE
:10192000F1EE10FA04D29FEDEA0A80ED6B0A0DE0A9
:10193000E44890ED6B0AF7EE000AB4EEE00AF1EE2F
:1019400010FA03DDB7EE000A80ED6B0ADD4890ED7A
:101950006B0A10EE101A0846FEF746FE41EC180B13
:101960009FEDDC0B53EC102BFEF76AFE05D2B7EEB1
:10197000000AD44880ED6C0A08E0D24890ED6B0A6A
:10198000DFEDD60A80EE201A80ED6C1ACD4890F873
:101990009401012804D1B7EE000ACA4880ED6C0A10
:1019A000C84890F8E000022872D19FEDCD0AC548E2
:1019B00080ED0C0A9FEDCB0A80ED3A0A9FEDCA0A32
:1019C00080ED140A90ED090A10EE101A0846FEF791
:1019D0000BFE41EC1B0BB0EE4B0AF0EE6B0A09F06C
:1019E000E3FAB0EE40AAF0EE60AAB64890ED080A1D
:1019F00010EE101A0846FEF7F7FD41EC1B0BB0EE97
:101A00004B0AF0EE6B0A09F0CFFAB0EE408AF0EE26
:101A1000608A53EC1A2B51EC180BFEF707FC41ECD3
:101A2000190B9FEDB20B53EC102BFEF7F1FD0BD011
:101A3000B04800684FF6FF71884205D2AD48006893
:101A4000401CAC49086002E00020AA490860A9488F
:101A5000006828280DD29B4890ED6C0AF7EE000A2A
:101A600030EE200ADFEDA40A20EE200A80ED0B0AFA
:101A7000D9E1944890ED6C0AF7EE000A30EE200AA6
:101A8000DFED9E0A20EE200A80ED0B0ACBE1FFE796
:101A90008C4890F8A20101287CD18A4890ED090A6F
:101AA00010EE101A0846FEF79FFD41EC1B0BB0EE3E
:101AB0004B0AF0EE6B0A09F077FAB0EE409AF0EEBE
:101AC000609A804890ED080A10EE101A0846FEF75A
:101AD0008BFD41EC1B0BB0EE4B0AF0EE6B0A09F0EC
:101AE00063FAB0EE408AF0EE608A53EC192B51ECA9
:101AF000180BFEF79BFB41EC1A0B9FED7C0B53EC94
:101B0000102BFEF785FD0BD07A4800684FF6FF7169
:101B1000884205D277480068401C7649086002E098
:101B20000020744908607348006800BB654890F85D
:101B3000340001280DD1634890ED6C0AF7EE000ADD
:101B400030EE200ADFED680A20EE200A80ED0B0A55
:101B50002EE05C4890ED6C0AF7EE000A30EE200AA9
:101B6000DFED670A20EE200A80ED0B0A20E05548E1
:101B700090F8340001280ED1524890ED6C0AF7EE2F
:101B8000000A30EE200ADFED5E0A20EE200A80ED2A
:101B90000B0A0DE036E14B4890ED6C0AF7EE000AB7
:101BA00030EE200ADFED570A20EE200A80ED0B0A06
:101BB000444890F8E000E8BB424890ED6C0A10EE13
:101BC000101A0846FEF710FD41EC1A0B9FED4E0B64
:101BD00053EC102BFEF72AFB41EC190B9FED4C0B3D
:101BE00053EC102BFEF7C9FB41EC180BFEF740FD40
:101BF00034490863084690ED6C0A10EE101A084646
:101C0000FEF7F2FC41EC1A0B9FED3F0B53EC102B4F
:101C1000FEF70CFB41EC190B9FED3F0B53EC102B27
:101C2000FEF7ABFB41EC180BFEF722FD0146254801
:101C3000016500E00EE0D0ED6C0A9FED391AB0EEC0
:101C4000000A01EE200AF3EE0E0A20EE200A80EDD3
:101C50003A0AE8E01B4890ED6C0AF7EE000A30EE15
:101C6000200ADFED300A20EE200A80ED0C0A90ED0C
:101C70006C0A10EE101A0846FEF7B6FC41EC1A0B7F
:101C80009FED210B53EC102BFEF7D0FA41EC190B12
:101C90009FED250B53EC102BFEF76FFB41EC180B5F
:101CA000FEF7E6FC01460748016590ED0A0A10EED2
:101CB000101A0846FEF798FC41EC1D0BB0EE4D0AD9
:101CC00036E000003C0100206666663FCDCCCC3D8E
:101CD00000000000333333333333D33F9A99993EB6
:101CE00000007A4400008C4200C05A450000000009
:101CF000000000003C00002000803B450000FA444A
:101D000000401C450080BB44000000000000E03F94
:101D1000000000000094C140000000000070A740D7
:101D20009A99C94000007A45000000000058AB4075
:101D3000F0EE6D0A09F038F9B0EE40CAF0EE60CA74
:101D40009FED670B53EC102B51EC1C0BFEF715FBB2
:101D500041EC1A0B6448D0ED6C0AB0EE000AB0EE0C
:101D6000001A01EE200A10EE101A0846FEF73CFC9D
:101D700041EC1B0B53EC1A2BFEF758FA41EC190BF4
:101D80009FED5A0B53EC102BFEF7F7FA41EC180BB2
:101D9000FEF76EFC5449C1F8E800084690ED0A0AC7
:101DA00010EE101A0846FEF71FFC41EC1C0BB0EEBB
:101DB0004C0AF0EE6C0A09F0F7F8B0EE40BAF0EE1B
:101DC00060BA9FED4C0B53EC102B51EC1B0BFEF744
:101DD000D4FA41EC190B444890ED5E0A10EE101A4B
:101DE0000846FEF701FC41EC1A0B53EC192BFEF7E9
:101DF000BEFA41EC180BFEF73BFC01463A48C0F82E
:101E0000781110E01FED390A374880ED0C0A1FEDFC
:101E10004B0A80ED3A0A1FED460A80ED0B0A1FEDD2
:101E20004E0A80ED140A354890ED0F0AD0ED970A5E
:101E300030EE200A00F58860D0ED0F0A30EE200A5F
:101E400000F50870D0ED0F0A30EE200AF0EE080A17
:101E500030EE200A5FED630A20EE200A2848D0ED1C
:101E6000000A1FED671A00EE810A80ED000A90ED6E
:101E7000000AF6EE080A20EE200A1B4880ED390A17
:101E800090F89401012804D19FED1E0A164880EDB8
:101E90003A0A1D48B0F82F0000EE100AB8EE400ACA
:101EA000114880ED3E0A90ED3A1AF0EE410A90EDAD
:101EB000391AB0EE410AFC3006F06CF80A4880EDA1
:101EC0003B0A90ED3B0AB5EEC00AF1EE10FA03DDD5
:101ED0001FED810A80ED3B0ABDEC0C8B10BD0000AC
:101EE000000000E0E2361A3F3C0100200000000044
:101EF00000003E40000000E0E2363A3FB00400201F
:101F0000380000200000B443A01C002010B5F748A2
:101F1000407F032814D1F548007F032803D1012016
:101F2000F34981F83800F148007F022803D10320EB
:101F3000EF4981F838000120ED4981F8E00009E21D
:101F4000EA48407F0128FAD1EA4890F82E0001289B
:101F500017D1E948007AA0B90120E8490870E5489E
:101F600090F82C0048B9E34890F82D00012804D1DE
:101F70000020DF4981F8340003E00120DC4981F8CA
:101F80003400DC4890F82A0001282BD1DA48007987
:101F900040BBDA48007828BBD9480078012821D115
:101FA000D84908700020D8490880D848007818B16E
:101FB000D6480078032807D10220D44908700420AD
:101FC000CB4981F838000DE0D0480078012803D0D3
:101FD000CE480078022805D10320CC490870C449B6
:101FE00081F83800C7480078012823D1C648008806
:101FF000401CC54908800846008832281ADDC348BD
:102000000078022806D1BA4981F838000120BF497A
:1020100008700AE0BD480078032806D10120B449C1
:1020200081F838000020B94908700020B5490870CF
:10203000B5490880B64800884FF6FF71884204DA37
:10204000B3480088401CB2490880B24800884FF667
:10205000FF71884204DAAF480088401CAD4908800F
:10206000A44890F82F00012816D1A348407A98B9C7
:10207000A2480078012806D10020A4490870012058
:102080009F49087002E000209D49087000209B498C
:102090000870A049088015E0964890F82F0088B98C
:1020A0009548407A01280DD19A480088142803DD0C
:1020B00000209749088005E0012091490870002020
:1020C000924908708B4890F83500012809D18A4858
:1020D000C07B30B9874890F82C00012801D18E4987
:1020E00008608D48006890B10121814880F8941102
:1020F00089480068B0F5FA7F05D287480068401C1F
:102100008549086007E000208349086003E000215A
:10211000774880F894117E4800883C2806DD754891
:1021200090F82F0010B9012075490870714890F897
:10213000260001280ED06F4890F82700012809D00A
:102140006C4890F82800012804D06A4890F82900CB
:10215000012827D1674890F82D0040B9654890F8CC
:102160002C0020B90120624981F8E0001AE06148A2
:1021700090F82D0048B95F4890F82C00012804D150
:1021800000205B4981F8E0000CE05A4890F82D00EF
:10219000012807D1574890F82C0018B9022054495B
:1021A00081F8E000534890F83200012815D15248D8
:1021B000007B90B94F4890F82D0001280AD14D4876
:1021C00090F82C00012805D154480088401C534940
:1021D000088002E00020514908805048008800280B
:1021E0000ADD444890F82D0018B1424890F82C00C0
:1021F00010B90020494908803E4890F83100012874
:1022000015D13D48C07A90B93A4890F82D00012880
:102210000AD1384890F82C00012805D140480088A0
:10222000401C3F49088002E000203D4908803C48AE
:10223000008800280ADD2F4890F82D0018B12D489D
:1022400090F82C0010B90020354908802B48007800
:10225000012804D10720264981F838006AE028487F
:102260000078012839D12948007820B90120204977
:1022700081F838005EE02548007801281BD1294804
:10228000D0E900305A1C40F100002649C1E9002085
:102290000220174981F838002248234BD0E9002159
:1022A00000209A1A884145D200201E4A10605060D2
:1022B000164908703EE015480078042804D105202E
:1022C0000B4981F8380035E010480078052831D1F5
:1022D0000620074981F838002CE00C48007820B926
:1022E0000320034981F8380024E01FE04800002063
:1022F0003C010020D8030020F40200201800002038
:10230000190000202E0000202C0000201A000020C0
:10231000280000202A000020340000203000002087
:102320003200002020000020F049020004200C4967
:1023300081F838000B480088052803DD0121084892
:1023400080F8B41108480088052803DD00210448FE
:1023500080F8B411102205490548FDF743FF10BD70
:102360003C0100203000002032000020FE0300204D
:10237000F402002010B52DED068BF0EE408AB0EE91
:10238000608AB0EE41AA05E09FED3F0A38EE000AF0
:10239000B0EE408AB5EEC08AF1EE10FAF4D305E053
:1023A0009FED390A38EE400AB0EE408A9FED360ABA
:1023B000B4EEC08AF1EE10FAF2DCF4EEC88AF1EE67
:1023C00010FA12D238EE680ADFED300AB4EEE00AF5
:1023D000F1EE10FA02D238EE689A18E038EE680A88
:1023E000DFED290A30EE609A11E038EEC80ADFED21
:1023F000270AB4EEE00AF1EE10FA02D238EE689A3B
:1024000005E038EEC80ADFED200A30EEC09ADFEDB5
:10241000200AB1EE490A1F4805F0BCFDF0EE409AD3
:10242000B5EEC09AF1EE10FA02DDB0EE490A01E015
:10243000B1EE490AB4EECA0AF1EE10FA04D29FEDE9
:10244000140AF0EE409A19E0F5EEC09AF1EE10FA97
:102450000ADD10484838D0ED190AB0EE690A0AEED4
:10246000600AF0EE409A09E00A484838D0ED190AAF
:10247000B0EE690A0AEE200AF0EE409AB0EE690A60
:10248000BDEC068B10BD00000000B44300003443D7
:10249000000000008401002000B50146F0EE401A63
:1024A000B0EE602AC1ED0A1A81ED092A32EE610A06
:1024B00081ED0B0A886801285FD191ED060AD1ED04
:1024C0000B0A20EE200A81ED0E0A91ED0F0AD1EDE4
:1024D000070A91ED0B1A00EE810A81ED0F0A91EDCA
:1024E0000B0AD1ED0C0A30EE600AD1ED080A20EE9D
:1024F000200A81ED100A91ED040AB5EEC00AF1EE52
:1025000010FA22DD91ED050AB5EEC00AF1EE10FADF
:102510001BD291ED0F0AD1ED040AB4EEE00AF1EE00
:1025200010FA04DD91ED040A81ED0F0A11E091ED3E
:102530000F0AD1ED050AB4EEE00AF1EE10FA08D266
:1025400091ED050A81ED0F0A03E09FED110A81ED7F
:102550000F0A91ED0E0AD1ED0F0A30EE200AD1EDEF
:10256000100A30EE200A81ED110AD1ED030AB0EE17
:10257000600A01F14400FEF78CF991ED0C0A81ED3F
:102580000D0A91ED0B0A81ED0C0A91ED110A00BDC7
:10259000000000008160B5EEC00AF1EE10FA02DD25
:1025A000B0EE403A01E0B1EE403A80ED033AF5EE8C
:1025B000C00AF1EE10FA02DDB0EE603A01E0B1EED1
:1025C000603A80ED043AB5EEC01AF1EE10FA02DD81
:1025D000B0EE413A01E0B1EE413A80ED053AC0ED8E
:1025E000061A80ED072AC0ED082A704708B52D4865
:1025F00090ED670A2C4880ED020A2A4890ED6B0A9C
:10260000DFED2A0A20EE200A274880ED030A284839
:102610004079012805D19FED270A234880ED040A5F
:1026200004E09FED250A204880ED040A2348007C41
:10263000042803D100201C49487002E001201A49F7
:1026400048701B48017918488170164890F8940129
:10265000012803D101211448C17002E00021124871
:10266000C1701348417810480171114881780E48B3
:1026700041710F48C1780C4881711148007850B9F8
:1026800009480069009008480FC800F037F9012098
:102690000B49087004E000F015F8002008490870A4
:1026A00008BD00003C0100203C1D00200000C84285
:1026B000E01D0020009C2D4600000000CC1D0020E5
:1026C0002001002070B5A520864908703D20487083
:1026D00000208870C870FF220421824800F0DEFDCF
:1026E0008049087101204871032088710020C87159
:1026F000012008720E204872002088721420C872CF
:10270000012008737848007828B9012077490870BB
:102710007549087005E0032074490870002072496B
:102720000870734890F83800022802D16F49487049
:102730000BE06F4890F83800072803D103206B495D
:10274000487002E00020694948700120674988709C
:1027500000216648C1700171417181710120634996
:10276000C871634890F8340038B9614890F838006F
:10277000072802D10320087202E001205B49087299
:1027800003205A49487208464078032806D14FF47E
:102790007070488140F28A20888106E04FF46170B1
:1027A0005249488140F28A2088813C204F49C881A3
:1027B0004FF47F7008824FF42F7048820020888287
:1027C000C8820876002404E00021484819300155E9
:1027D000641C1E2CF8DB4548007842494873434886
:1027E0004078887341488078C8734048C07808743E
:1027F0003E48007948743D48407988743B48807968
:10280000C8743A48C07908753848007A487537481E
:10281000407A88753548807AC875344840890012F6
:1028200008763248007B48763048808900128876E6
:102830002E48807BC8762D48C089001208772B4827
:10284000007C48772948008A001288772748807CD6
:10285000C8772648408A001281F820002348007D6E
:1028600081F821002148808A000A81F822001F484F
:10287000807D81F823001D48C08A000A81F8240069
:102880001A48007E81F82500002407E01748193017
:10289000015D144A04F126001154641C1E2CF5DB62
:1028A000144800780F4981F844001248008800124B
:1028B00081F845000F48028844210A4800F0D4FC02
:1028C0000546084981F84450280A81F8450000BFB0
:1028D0000A2346220349084804F0E9F90028F7D101
:1028E00070BD0000851D002021010020021D002078
:1028F0003C010020180100200C2500200FB42DE918
:10290000F0474FF00108364890F8189049F4807A63
:1029100008A800F0D1FB9DED0A0A10EE104A9DEDCB
:102920000B0A10EE105A9DED0C0A10EE106A9DF87D
:102930002080A5202B490870132048700020887043
:102940000120C870FF220421264800F0A7FC254979
:10295000087101204871032088718020C871D1203E
:1029600008720E204872002088721420C87201205C
:1029700008734C73200A8873200CC873200E0874E7
:102980004D74280A8874280CC874280E08754E7572
:10299000300A8875300CC875300E0876084680F805
:1029A00019801148007888760F4800880012C87690
:1029B0000D4802881A210B4800F056FC07460949C9
:1029C0008F76380AC87600BF0A231C2205490748BB
:1029D00004F06DF90028F7D1BDE8F0075DF814FBAD
:1029E000A01C0020691D0020180100200C250020DB
:1029F00010B5024801F044FB10BD00004420002047
:102A000010B5034801F03CFB024801F039FB10BD52
:102A1000C4210020A420002010B5024801F030FBA2
:102A200010BD0000E41F002010B5024801F028FB93
:102A300010BD00002422002010B5024801F020FB48
:102A400010BD00000421002010B5024801F018FB61
:102A500010BD0000841F002001460878103818239C
:102A6000B0FBF3F20848805CC865032A05D9086802
:102A70006FF30900001D886503E008686FF3090023
:102A80008865886D7047000064C100080146002019
:102A90008A6A8B6903BB32B1012A0CD0022A10D09A
:102AA000032A17D115E0CB6A03F08073B3F1807F5E
:102AB00000D101200FE0CB6AB3F1C07F00D101202B
:102AC00009E0CB6A03F08073B3F1807F00D101206D
:102AD00001E000E000BF35E08B69B3F5005F1BD17A
:102AE00032B1012A06D0022A0CD0032A12D10BE0FF
:102AF000012010E0CB6A03F08073B3F1807F00D136
:102B0000012008E0012006E0CB6AB3F1C07F00D1CC
:102B1000012000E000BF15E032B1012A05D0022AF1
:102B200004D0032A0CD103E000BF00BF012008E05D
:102B3000CB6A03F08073B3F1807F00D1012000E005
:102B400000BF00BF704730B50468246824F48024B7
:102B500005682C60046863608468402C04D10468B4
:102B6000A2600468E16003E00468A1600468E260B8
:102B700030BD704710B5022001F07AFC10BD10B5D1
:102B8000042001F075FC10BDAFF20301016006499D
:102B90004160002180F8241080F825109FED030A81
:102BA00080ED0A0A70470000FD30000800000000B8
:102BB00000BFFEE78C21095A491C8AB28C210A52B7
:102BC000095A09291DDD00228C210A52B0F9901002
:102BD000002913DDB0F9901000EE101AB8EEC00A0B
:102BE000D0ED210AB2EE041A00EEC10ABDEEC00A11
:102BF00010EE101A0AB290210A5202E0002290212F
:102C00000A52B0F99010B0F88020914204DD9FED97
:102C10000A0A80ED260A0EE0B0F88020B0F9901084
:102C2000511A00EE101AB8EEC00AD0ED1A0A80EE62
:102C3000201A80ED261A7047000000008E21095AE4
:102C4000491C8AB28E210A52095A09291DDD002227
:102C50008E210A52B0F99210002913DDB0F99210BA
:102C600000EE101AB8EEC00AD0ED220AB2EE041A35
:102C700000EEC10ABDEEC00A10EE101A0AB292218F
:102C80000A5202E0002292210A52B0F992208221D7
:102C9000095A8A4204DD9FED0A0A80ED270A0EE0F8
:102CA00082210A5AB0F99210521A9621095A92FBBF
:102CB000F1F100EE101AB8EEC00A80ED270A704755
:102CC000000000007B22125C012A46D17222125AB7
:102CD000521C93B272221352002374221352722296
:102CE000125AB2F5FA7F31DA91ED2D0AB5EEC00A2B
:102CF000F1EE10FA02DD91ED2D0A03E091ED2D0ABF
:102D0000B1EE400AF2EE040AB4EEE00AF1EE10FA77
:102D100018D291ED530AB5EEC00AF1EE10FA02DDB9
:102D200091ED530A03E091ED530AB1EE400AF2EE41
:102D3000040AB4EEE00AF1EE10FA03D200237B227B
:102D400013545CE001237B22135458E000237222C9
:102D5000135202237B22135451E07B22125CC2BB2C
:102D6000002372221352742213527A22125C012A17
:102D700045D1B0F990309422125A1A44B0F88030FC
:102D80009A423CDA9022135A9422125A1A4413B2ED
:102D900090221352D0ED190A9FED191A80EE810A84
:102DA000D1ED0B0A30EEC00A81ED0B0A4A8B00EE22
:102DB000102AB8EE400A9FED131AC0EE010A91EDF9
:102DC0000B0A30EE800A81ED0D0A01237B22135499
:102DD00015E0FFE77B22125C022A10D10023722249
:102DE00013527422125A521C93B274221352125A62
:102DF000322A04DB0023742213527B2213547047BF
:102E00000000B443000000467D22125C012A46D136
:102E10007622125A521C93B2762213520023782241
:102E200013527622125AB2F5FA7F31DA91ED2D0A59
:102E3000B5EEC00AF1EE10FA02DD91ED2D0A03E0C5
:102E400091ED2D0AB1EE400AF2EE040AB4EEE00A6A
:102E5000F1EE10FA18D291ED530AB5EEC00AF1EE78
:102E600010FA02DD91ED530A03E091ED530AB1EE41
:102E7000400AF2EE040AB4EEE00AF1EE10FA03D2D0
:102E800000237D2213545CE001237D22135458E07B
:102E900000237622135202237D22135451E07D2217
:102EA000125CC2BB002376221352782213527C227A
:102EB000125C012A45D1B0F992309622125A13447D
:102EC0008222125A93423CDA9222135A9622125AC2
:102ED0001A4413B292221352D0ED1B0A9FED191A15
:102EE00080EE810AD1ED0B0A30EEC00A81ED0B0AAB
:102EF0004A8B00EE102AB8EE400A9FED131AC0EE7E
:102F0000010A91ED0B0A30EE800A81ED0D0A0123D2
:102F10007D22135415E0FFE77D22125C022A10D1B6
:102F20000023762213527822125A521C93B278222E
:102F30001352125AFA2A04DB0023782213527D22FC
:102F4000135470470000B44300000046017801F0BC
:102F5000010141700178C1F3400282700178C1F330
:102F60008002C2700178C1F3C00202710178C1F31E
:102F7000001242710178C1F3401282710178C1F3ED
:102F80008012C2710178CA09027270471649097924
:102F9000012921D1417F01290CD1144991F8341024
:102FA000012903D1022280F844201BE0002280F88E
:102FB000442017E0417F02290AD1017F012903D172
:102FC000022280F844200DE0002280F8442009E02D
:102FD000002280F8442005E0002280F844200222EC
:102FE00080F845207047000074030020D8030020BB
:102FF0002C49497E012904D0022911D0032930D15E
:103000001EE0F021A0F880109FED270A80ED210A34
:10301000962282210A529FED250A80ED220A2FE096
:103020004FF4B471A0F880109FED210A80ED210AC1
:10303000FA2282210A529FED1C0A80ED220A1FE02B
:103040004FF4F071A0F880109FED1A0A80ED210A6C
:103050004FF4C87282210A529FED150A80ED220AB0
:103060000EE0F021A0F880109FED0F0A80ED210AFC
:10307000502282210A529FED0D0A80ED220A00BFE4
:1030800000BF0849498B01EB81020649898B8A42BE
:1030900007DA90ED210AF0EE000A20EE200A80ED1A
:1030A000210A7047A01C0020CDCCCC3ECDCC4C3E9C
:1030B0009A99193FCDCC4C3F00214278012A01D189
:1030C00041F001018278012A01D141F00201C27868
:1030D000012A01D141F004010279012A01D141F014
:1030E00008014279012A01D141F010018279012AB7
:1030F00001D141F0200101707047000090F82420B8
:1031000022BB10F8252F521C027010F82529322AF4
:1031100003DD012280F8242011E04A6B527D4B6BC5
:103120001B7D42EA0322C284C28C00EE102AB8EE54
:10313000400ADFED460A80EE201A80ED0D1AC28C9F
:1031400002839FED430A80ED0C0A7DE04A6B527DBD
:103150004B6B1B7D42EA0322C2824A6BD37D927D78
:1031600043EA022212B200EE102AB8EEC00A80ED45
:10317000030A90ED030A80ED020A4A6B537E127E29
:1031800043EA022212B200EE102AB8EEC00A80ED25
:10319000040A4A6B927E0275C28A038BD21AB2F578
:1031A000805F08DD90ED0A0AF7EE000A30EE600A53
:1031B00080ED0A0A0DE0C28A038BD21A12F5805FF5
:1031C00007DA90ED0A0AF7EE000A30EE200A80EDE9
:1031D0000A0AC28A00EE102AF8EE400A9FED1B1A76
:1031E00080EE810AD0ED0A0A30EE200AD0ED0D0AF9
:1031F00030EE600A80ED0C0AC28A00EE102AB8EEAA
:10320000400AD0ED0A0A9FED111A00EE810ABDEEC8
:10321000C00A80ED0B0AC28A028390ED040ADFED3A
:103220000D0A20EE200AD0ED020A20EE200A80EDE1
:103230000E0A90ED0E0AB5EEC00AF1EE10FA03D2B6
:103240009FED030A80ED0E0A704700000000004663
:10325000000000007538843610B50446014805F0BA
:10326000C1F910BDD803002030B5034613B94FF69D
:10327000FF7030BD09E013F8014B82EA0400C0B2D0
:10328000054D35F8100080EA2222081EA1F1010147
:10329000F1D11046EDE7000082C2000830B50346C8
:1032A00005E013F8010B80EA02040448025D081EE1
:1032B000A1F10101F5D1104630BD000081C1000827
:1032C00030B5034600220C7D012000FA04F2464886
:1032D000006840F00100444C20602046006820F463
:1032E0007C502060204600684C6A40EA04203E4C36
:1032F00020603D481C30006890433B4C1C342060EB
:10330000C869D8B938480C3000689043364C0C3442
:103310002060888880B28C8940EA0444324840307A
:103320004D6940F83540088880B20C8940EA044471
:103330002D4840304D6900EBC5004460C869012844
:103340001BD129480C3000681043274C0C342060F6
:10335000888880B20C8840EA0444234840304D6994
:1033600040F83540888980B20C8940EA04441E4800
:1033700040304D6900EBC5004460886938B91A488F
:10338000001D00689043184C241D206006E016487C
:10339000001D00681043144C241D2060086930B9DA
:1033A00011481430006890430F4C143420600869B1
:1033B000012806D10C481430006810430A4C14341C
:1033C0002060086A012806D107481C3000681043B5
:1033D000054C1C3420600448006820F00100024CB9
:1033E0002060002030BD00000066004070470000F3
:1033F0002DE9F04104460025002600272068406999
:1034000000F0010018B320688068694908408842CC
:1034100001D1012000E00020054620688068654950
:103420000840884201D1012000E0002006462068C3
:10343000806861490840884201D1012000E00020F5
:1034400007460DB906B917B12046FDF7A7FB20685E
:10345000C06800F0030520684069C0F3400625B14C
:103460001EB100212046FDF7C3FA2068006900F074
:10347000030520684069C0F3001625B11EB1012183
:103480002046FDF7B5FA2068806900F00105206844
:103490004069C0F3002620684069C0F3C0372DB1F1
:1034A00026B11FB1E06B40F00100E0632068806945
:1034B000C0F3400520684069C0F340262068406999
:1034C000C0F3C0372DB126B11FB1E06B40F0020050
:1034D000E06320688069C0F3800520684069C0F31C
:1034E000802620684069C0F3C0372DB126B11FB1D6
:1034F000E06B40F00400E0632068806900F0700039
:1035000008B9012000E00020054620684069C0F3AA
:10351000C02620684069C0F3C03795BB8EB387B31F
:103520002068806900F07005402D1BD006DC102D4E
:1035300009D0202D0CD0302D24D10EE0502D16D0E6
:10354000602D1FD118E0E06B40F00800E0631AE046
:10355000E06B40F01000E06315E0E06B40F020000D
:10356000E06310E0E06B40F04000E0630BE0E06BF4
:1035700040F08000E06306E0E06B40F48070E063C0
:1035800001E007E000BF00BF2068806920F0700004
:1035900021688861E06B40B1042021684860012007
:1035A00084F838002046FFF721FFBDE8F0810000D5
:1035B00003000004000300080000031070B5044677
:1035C000032600250CB9012070BD94F8380028B9F5
:1035D000002084F83900204600F0D0F8022084F85A
:1035E00038002068006820F0020021680860206828
:1035F000006840F001002168086001F063F80546AA
:103600000EE001F05FF8401B0A2809D9032084F876
:10361000380000BF002084F8390000BF0320D3E742
:103620002068406800F001000028EAD02068406867
:1036300000F0010008B9002692E0A069012806D137
:103640002068006840F080002168086005E020687C
:10365000006820F0800021680860E069012806D138
:103660002068006840F040002168086005E020689C
:10367000006820F0400021680860206A012806D117
:103680002068006840F020002168086005E020689C
:10369000006820F0200021680860606A012806D1D7
:1036A0002068006840F010002168086005E020688C
:1036B000006820F0100021680860A06A012806D187
:1036C0002068006840F008002168086005E0206874
:1036D000006820F0080021680860E06A012806D12F
:1036E0002068006840F004002168086005E0206858
:1036F000006820F0040021680860D4E90201084352
:1037000021690843616908436168491E08432168CB
:10371000C8612068006820F001002168086000F09E
:10372000D1FF05460EE000F0CDFF401B0A2809D965
:10373000032084F8380000BF002084F8390000BF5F
:10374000032041E72068406800F001000028EAD12A
:103750002068406800F0010008B1002600E0012662
:10376000012E06D10020E063012084F838000020FB
:103770002AE7042084F83800012025E710B586B038
:10378000044645492068884237D144480068401CB7
:10379000424908600846006801280FD100BF002098
:1037A00000903F48006840F000703D4908600846BE
:1037B000006800F00070009000BF00BF032001907F
:1037C000022002900020039003200490092005901D
:1037D00001A9344800F05AFE01221146132001F0DD
:1037E00036F8132001F026F801221146142001F0CA
:1037F0002EF8142001F01EF84BE02B492068884277
:1038000047D100BF002000902548006840F080604C
:10381000234908600846006800F08060009000BFFF
:1038200000BF1E480068401C1C490860084600682C
:1038300001280FD100BF002000901948006840F017
:103840000070174908600846006800F0007000909A
:1038500000BF00BF4FF440500190022002900020B2
:103860000390032004900920059001A90F4800F05F
:103870000DFE012211463F2000F0E9FF3F2000F03D
:10388000D9FF01221146402000F0E1FF402000F066
:10389000D1FF06B010BD00000064004030010020E0
:1038A00040380240000C0240006800400004024022
:1038B00010B50246002392F83830012B01D0122BAC
:1038C00049D100BF92F83900012801D1022010BD72
:1038D000012082F8390000BF92F83800122803D185
:1038E000322082F8380002E0222082F838000020DE
:1038F000D0631068406940F480701468606110689B
:10390000406940F40070146860611068406940F4D8
:103910008060146860611068406940F40060146859
:1039200060611068406940F400401468606100BF45
:10393000002082F8390000BF31B91068406940F0BA
:1039400002001468606108E01068406940F01000EF
:103950001468606101E00220B9E70020B7E70000C9
:1039600070B52DED048B0446F64884427ED1606B21
:103970008068D0BB606B0068A0F2012008283AD2B2
:10398000DFE800F0040506073934391A00BF00BF2C
:1039900000BF0025606B0068A0F2012505EB051152
:1039A000E94B03EB4111081D05EB051103EB411138
:1039B0008A68214690471EE02146E448FFF79EFBB7
:1039C000E248001F408B00EE100AB8EE400A9FED5F
:1039D000E01AC0EE010A9FEDDF1A9FEDDF0A10EE3C
:1039E000810ADE4880ED030A05E005E02146DC4857
:1039F000FFF784FB00BF00E1606B80680428FAD108
:103A0000606B4068A0F59850143800287ED00128DB
:103A100002D0022841D191E00020D2490860606BB9
:103A2000407D616B097D40EA012000B200EE100A82
:103A3000B8EEC00ADFEDCC0A80EE201A11EE105A63
:103A40002846FCF7D1FD41EC190BB0EE490AF0EE27
:103A5000690A07F0A9FAB0EE408AF0EE608A9FED9D
:103A6000C30B53EC102B51EC180B00E0CEE0FCF72D
:103A7000CFFD12D8606B407D616B097D40EA01206B
:103A800000B200EE100AB8EEC00ADFEDB70A80EE11
:103A9000201AB84880ED081A00E0ADE0606BC17DE7
:103AA000807D41EA002000B200EE100AB8EEC00AA4
:103AB000DFEDAD0A80EE201A11EE105A2846FCF711
:103AC00093FD41EC190BB0EE490AF0EE690A07F0DC
:103AD0006BFAB0EE408AF0EE608A9FEDA40B53ECD7
:103AE000102B51EC180BFCF793FD13D8606BC17DC4
:103AF000807D41EA002000B200EE100AB8EEC00A54
:103B0000DFED990A80EE201A9A4800E058E080ED37
:103B1000091A00E070E0606B017E97484177606BA6
:103B2000407E95490877606BC17E807E41EA002027
:103B300092498884084604F055FD5DE000208949DB
:103B40000860606B007D85494874606B817D407DB5
:103B500041EA002000B200EE100AB8EEC00AF2EE10
:103B6000040A80EE201A864880ED001A606B017E00
:103B7000C07D41EA002000B200EE100AB8EEC00A93
:103B8000F2EE040A80EE201A7D4880ED011A606B87
:103B9000C17E807E41EA002000B200EE100AB8EE3D
:103BA000C00AF2EE040A80EE201A754880ED021A6F
:103BB000606B407E734908700846FFF7C7F91BE049
:103BC00000207149086001216A4880F8A21180F83C
:103BD000A011606B407D616B097D40EA012000B25D
:103BE00000EE100AB8EEC00ADFED5F0A80EE201A80
:103BF000604880ED661A00BF00BF52480068406907
:103C000040F002004F490968486198E05F488442EB
:103C1000FBD1606B8068002862D10025606B006872
:103C2000A0F2012030B1012819D002282CD003289D
:103C300054D13EE0606B0068A0F2012505EB051150
:103C4000414B03EB4111081D05EB051103EB41113D
:103C50008A682146904700204D4908603EE0606B2D
:103C60000068A0F2012505EB0511374B03EB41116C
:103C7000081D05EB051103EB41118A6821469047A9
:103C800000204349486129E0606B0068A0F20125EB
:103C900005EB05112C4B03EB4111081D05EB05113C
:103CA00003EB41118A682146904700203849886219
:103CB00014E0606B0068A0F2012505EB0511224BB2
:103CC00003EB4111081D05EB051103EB41118A6857
:103CD0002146904700202E49C86300BF00BF26E060
:103CE000606B8068042822D1606B4068A0F5985012
:103CF0001438D8B900202449086001211D4880F8F3
:103D0000A21180F8A011606B407D616B097D40EAD3
:103D1000012000B200EE100AB8EEC00ADFED120A70
:103D200080EE201A134880ED661A00BF00BF1748C6
:103D30000068406940F00200144909684861BDEC20
:103D4000048B70BD041E0020B0040020F419002074
:103D5000000000460000B44300C08843CC1D002092
:103D6000D4170020240300200000C84200000000F7
:103D70000000F03F3C01002048000020D803002054
:103D800090040020E01D002074030020441E002049
:103D9000880300202DE9F04104460E460525002742
:103DA0002068806800F08060B0F1806F0DD02068DE
:103DB000806800F00060B0F1006F06D02068806875
:103DC00000F08050B0F1805F7ED100BF94F83900E0
:103DD000012802D10220BDE8F081012084F83900D9
:103DE00000BF94F83800222803D1322084F838002C
:103DF00002E0122084F838002068806800F08060BB
:103E0000B0F1806F01D1002509E02068806800F0E2
:103E10000060B0F1006F01D1012500E002252068AB
:103E200000F5C07000EB0510006800F0010120688B
:103E300000F5C07000EB05100160206B806898B938
:103E4000206800F5C07000EB05100068216BC968A0
:103E5000226B128841EA42510843216801F5C07182
:103E600001EB0511086015E0206800F5C07000EB5B
:103E700005100068216B8968226B526841EAC20113
:103E8000226BD26811430843216801F5C07101EB30
:103E900005110860206B007C00F00F00216B0861A9
:103EA000206800F5C07000EB0510406820F00F019D
:103EB000206800F5C07000EB05104160206800F537
:103EC000C07000EB051000E088E04068216B0969D4
:103ED0000843216801F5C07101EB05114860206BB2
:103EE000C07D0106206B807D41EA0041206B407D52
:103EF00041EA0020216B097D0843216801F5C0716A
:103F000001EB05118860206BC07E0106206B807E6E
:103F100041EA0041206B407E41EA0020216B097E8E
:103F20000843216801F5C07101EB0511C8602068E4
:103F300000F5C07000EB0510006840F0010120683A
:103F400000F5C07000EB0510016000F0BBFB0746F8
:103F500011E0701C78B126B100F0B4FBC01BB04278
:103F600009D9032084F8380000BF002084F8390004
:103F700000BF03202FE74DB9206880681A49084028
:103F8000884201D1012016E0002014E0012D09D162
:103F90002068806815490840884201D101200AE064
:103FA000002008E02068806811490840884201D15B
:103FB000012000E000200028CBD094F838003228FF
:103FC00003D1222084F8380002E0012084F8380070
:103FD00000BF002084F8390000BFFCE6042084F80C
:103FE00038000120F7E60000030000040003000889
:103FF000000003107047014691F83500022803D0F5
:104000008020486501207047052081F83500086848
:10401000006820F001000A6810600020F3E770B526
:1040200004460CB9012070BD94F83500022800D177
:10403000F9E72068006820F001002168086000208E
:104040002168086021684860216888602168C8602C
:10405000216808612120216848612046FEF7FCFCA8
:10406000054694F85C103F208840A86000206065F9
:1040700084F8350000BF84F8340000BF00BFD2E7E9
:10408000F8B50446002000908D4800684FF41651A2
:10409000B0FBF1F7A56D2E6894F85C1008208840FD
:1040A000304098B12068006800F0040070B12068CA
:1040B000006820F004002168086094F85C10082073
:1040C0008840A860606D40F00100606594F85C1065
:1040D0007C488840304068B12068406900F080002A
:1040E00040B194F85C1077488840A860606D40F05B
:1040F0000200606594F85C107248C01C8840304033
:1041000070B12068006800F0020048B194F85C10BB
:104110006C48C01C8840A860606D40F00400606579
:1041200094F85C1010208840304078B32068006814
:1041300000F0080050B394F85C1010208840A8608C
:104140002068006800F4802080B12068006800F4D6
:10415000002028B9206CC8B12046216C884715E0A2
:10416000A06C98B12046A16C88470FE020680068D9
:1041700000F4807028B92068006820F008002168E9
:104180000860206C10B12046216C884794F85C10C0
:10419000202088403040002865D02068006800F06A
:1041A000100000285FD094F85C1020208840A860A0
:1041B00094F83500052828D12068006820F0160002
:1041C000216808602068406920F08000216848610B
:1041D000206C08B9A06C28B12068006820F00800A5
:1041E0002168086094F85C103F208840A86000BFF8
:1041F000002084F8340000BF012084F83500206DD1
:1042000010B12046216D8847F8BD2068006800F491
:10421000802080B12068006800F4002028B9606C1C
:1042200010B12046616C88471DE0E06BD8B1204694
:10423000E16B884717E02068006800F4807068B977
:104240002068006820F010002168086000BF00208E
:1042500084F8340000BF012084F83500E06B10B111
:104260002046E16B8847606D38B3606D00F0010057
:10427000F0B1052084F835002068006820F00100C6
:104280002168086000BF0098401C0090B84200D927
:1042900005E02068006800F001000028F3D100BFAD
:1042A00000BF002084F8340000BF012084F83500EE
:1042B000E06C10B12046E16C884700BFA4E7000025
:1042C00008000020010080002DE9F041044600258F
:1042D00000F0F8F9074614B90120BDE8F081606AE2
:1042E00000B100BF00BF002084F8340000BF0220EE
:1042F00084F835002068006820F00100216808601B
:104300000AE000F0DFF9C01B052805D92020606510
:10431000032084F83500E0E72068006800F0010021
:104320000028EED12068056820480540D4E9010145
:104330000843E16808432169084361690843A169AA
:104340000843E1690843216A08430543606A042879
:1043500003D1D4E90B0108430543206805602068B8
:10436000456925F00705606A0543606A04280BD19A
:10437000A06A05432046FEF789FB28B1402060650E
:10438000012084F83500A8E7206845612046FEF743
:1043900063FB064694F85C103F208840B060002024
:1043A0006065012084F83500002096E73F8010F01A
:1043B0002DE9F04704460D4616461F464FF000080B
:1043C000D4F8589000BF94F83400012802D102209C
:1043D000BDE8F087012084F8340000BF94F8350070
:1043E00001282BD1022084F83500002060653B466F
:1043F000324629462046FEF7A6FB94F85C103F2083
:104400008840C9F808002068006840F0160021685C
:1044100008602068406940F0800021684861206C95
:1044200028B12068006840F0080021680860206812
:10443000006840F001002168086006E000BF00202D
:1044400084F8340000BF4FF002084046C0E731B5A1
:10445000002400F037F9044600BF00F033F9001BD8
:1044600000998842F9D338BD022800D000BF7047B8
:1044700010B5044604480068204020B1024804609A
:104480002046FFF7F1FF10BD143C0140F8B502468D
:104490000B460025002400200021E6E0012606FA54
:1044A00001F51E6806EA0504AC4273D15E68022E6F
:1044B00002D05E68122E13D1CF0802F1200656F802
:1044C00027004E07F70E0F26BE40B0434F07FF0EE2
:1044D0001E69BE403043CF0802F1200646F827008F
:1044E00010684F000326BE40B0431E7906F0030655
:1044F0004F00BE40304310605E68012E08D05E68F9
:10450000022E05D05E68112E02D05E68122E13D1E5
:1045100090684F000326BE40B0434F00DE68BE40A7
:1045200030439060506801268E40B0431E79C6F338
:1045300000168E4030435060D0684F000326BE40C6
:10454000B0434F009E68BE403043D0605E6806F0C6
:104550008056B6F1805FA8D100BF00260096454E78
:10456000366846F48046434F3E603E46366806F461
:104570008046009600BF00BF3F4E8F0856F82700C8
:104580008E07370F0F26BE40B0433C4EB24202D1D9
:1045900000262EE068E03A4EB24201D1012628E022
:1045A000384EB24201D1022623E0374EB24201D149
:1045B00003261EE0354EB24201D1042619E0344EE6
:1045C000B24201D1052614E0324EB24201D1062694
:1045D0000FE0314EB24201D107260AE02F4EB2421F
:1045E00001D1082605E02E4EB24201D1092600E095
:1045F0000A268F073F0FBE4030431F4E8F0846F8F4
:104600002700284E3068A0435E6806F48036B6F571
:10461000803F00D12043234E3060361D3068A043D8
:104620005E6806F40036B6F5003F00D120431D4E0B
:10463000361D3060361D3068A0435E6806F4801673
:10464000B6F5801F00D12043164E08363060361D67
:104650003068A0435E6806F40016B6F5001F00D16E
:104660002043104E0C363060491C1029FFF416AF61
:10467000F8BD000044380240083801400000024004
:104680000004024000080240000C024000100240FA
:104690000014024000180240001C024000200240AA
:1046A00000240240003C0140024613690B400BB15C
:1046B000012000E0002070470AB1816101E00B0495
:1046C00083617047014800687047000000000020C7
:1046D00002480068401C0149086070470000002043
:1046E00010B50D48006840F400700B49086008469A
:1046F000006840F4806008600846006840F48070FC
:104700000860032000F0E2F8002000F007F800F055
:1047100019F8002010BD0000003C024070B50446AE
:10472000074800684FF47A71B0FBF1F5284601F0B4
:10473000D9FA00222146501E00F089F8002070BDF1
:104740000800002010B5052000F0C0F80022114636
:104750006FF00B0000F07BF8002211466FF00A00AA
:1047600000F075F8002211466FF0090000F06FF8B4
:1047700000221146501F00F06AF800221146101F57
:1047800000F065F800221146901E00F060F800224B
:104790001146501E00F05BF810BD70B504460D4682
:1047A00016460CB9012070BD94F8390028B90020D4
:1047B00084F83800204602F02DF8242084F83900CF
:1047C0002068C06820F400502168C860204604F0CA
:1047D00083FE2068006920F4904021680861206809
:1047E000406920F02A00216848612068006920F0B3
:1047F0000F0021680861206800692843216808616A
:104800002068C06820F400602168C8602068C06823
:1048100030432168C8602068C06840F400502168B7
:10482000C8600020E063202084F8390084F83A0052
:104830000020B8E700BF00F01F02012191404209AB
:10484000920002F1E022C2F8001100BF70472DE98A
:10485000F05F80460D461646002703F025FB07460D
:1048600039462A46334601F00700C0F1070ABAF17B
:10487000040F02D94FF0040A01E0C0F1070AD14643
:1048800000F1040ABAF1070F02D24FF0000A01E06A
:10489000A0F1030AD4464FF0010A0AFA09FAAAF174
:1048A000010A0AEA020A0AFA0CFA4FF0010B0BFAA3
:1048B0000CFBABF1010B0BEA030B4AEA0B0421469C
:1048C000404603F0F9FABDE8F09F000000BF00F099
:1048D0000702064B19684FF6FF031940044B0B43C0
:1048E00043EA0221014B196000BF70470CED00E064
:1048F0000000FA0510B50446D4F8B40305F038FA00
:1049000010BD70B504460D46C5EBC50304F1380172
:1049100001EB8301CA682946D4F8B40305F078F99D
:1049200070BD70B504460D46C5EBC50304F5EE71C8
:1049300001EB8301CA682946D4F8B40305F0D5F920
:1049400070BD10B50446D4F8B40305F014FA10BDD8
:1049500070B504460D4605F08000802808D105F0AA
:104960007F00C0EBC00104F1380000EB810605E0D8
:10497000C5EBC50104F5EE7000EB81060020B070B8
:1049800005F07F003070C5F3C010707000BF94F860
:104990008003012801D1022070BD012084F880032A
:1049A00000BF3146206805F035FE00BF002084F8C6
:1049B000800300BF00BFEFE72DE9F04705460E4634
:1049C00090461F464FF0000906F08000802808D16D
:1049D00006F07F00C0EBC00105F1380000EB810458
:1049E00007E006F07F00C0EBC00105F5EE7000EBBC
:1049F000810406F07F00207006F08000C00960701E
:104A0000C4F80880E770607808B12078E080022F51
:104A100001D10020207100BF95F88003012802D148
:104A20000220BDE8F087012085F8800300BF214601
:104A3000286805F071FC00BF002085F8800300BFE6
:104A40004846EEE72DE9F04104460E4617469846E3
:104A500006F07F00C0EBC00104F5EE7000EB8105AD
:104A6000EF60C5F814800020A861687006F07F0030
:104A700028702069012800D12F6100BF94F88003BD
:104A8000012802D10220BDE8F081012084F88003D2
:104A900000BF06F07F0028B9227C2946206805F077
:104AA000BFFC04E0227C2946206805F03DFE00BFE3
:104AB000002084F8800300BF00BFE4E770B504461F
:104AC0000D4605F08000802808D105F07F00C0EB7E
:104AD000C00104F1380000EB810605E0C5EBC5011B
:104AE00004F5EE7000EB81060120B07005F07F0048
:104AF0003070C5F3C010707000BF94F880030128B7
:104B000001D1022070BD012084F8800300BF31462E
:104B1000206805F0C3FD05F07F0028B9217C04F56D
:104B20006172206805F054FD00BF002084F8800306
:104B300000BF00BFE6E72DE9F04104460E461746E8
:104B4000984606F07F00C0EBC00104F1380000EB8E
:104B50008105EF60C5F814800020A861012068700D
:104B600006F07F0028702069012800D12F6100BF66
:104B700094F88003012802D10220BDE8F0810120D1
:104B800084F8800300BF06F07F0028B9227C294604
:104B9000206805F045FC04E0227C2946206805F0E9
:104BA000C3FD00BF002084F8800300BF00BFE4E71E
:104BB0002DE9FC5F044626684FF0000B00200190B1
:104BC0008146002500908046F74F206805F04EFF93
:104BD00000286CD1206805F081FF08B9BDE8FC9F72
:104BE000206805F07BFF00F00200022805D1206854
:104BF000406900F0020021684861206805F06EFFFE
:104C000000F40020B0F5002F7ED10025206805F0CB
:104C10003BFF019075E0019800F0010000286CD086
:104C2000E9B2206805F04FFF814609F00100E8B3C2
:104C3000012106F5306000EB4510816020690128F4
:104C40002BD1C5EBC50104F5EE7000EB8100816846
:104C500006F5306000EB45100069C0F31200091A38
:104C6000C5EBC50204F5EE7000EB82008161C5EB77
:104C7000C50104F5EE7000EB8100C5EBC502C1680B
:104C800004F5EE7000EB820080680144C5EBC502BC
:104C900004F5EE7000EB8200C160E9B22046FFF738
:104CA00040FE2069012811D105B901E00EE0B2E211
:104CB000C5EBC50104F5EE7000EB8100406928B931
:104CC00004F561720121206805F082FC09F00800FA
:104CD000082808D1204600F007FB082106F53060BF
:104CE00000EB4510816009F01000102805D110215B
:104CF00006F5306000EB451081606D1C019840089E
:104D000001900198002800E000E084D1206805F0BF
:104D1000E5FE00F48020B0F5802F7DD1206805F0FD
:104D2000AAFE0190002585E0019800F0010000280E
:104D30007CD0E9B2206805F0B0FE814609F00100A0
:104D4000F0B30120A840009040F63400805900994B
:104D5000884340F634018851012106F5106000EBCC
:104D6000451081602069012815D1C5EBC50104F10A
:104D7000380000EB8100C5EBC502C16804F13800C2
:104D800000EB820080680144C5EBC50204F13800E5
:104D900000EB8200C160E9B22046FFF7B2FD206956
:104DA000012810D165B9C5EBC50104F1380000EB4D
:104DB0008100406920B904F561720121206800E09A
:104DC00001E005F005FC09F00800082805D10821DC
:104DD00006F5106000EB4510816009F01000102806
:104DE00005D1102106F5106000EB4510816009F037
:104DF0004000402805D1402106F5106000EB451029
:104E0000816009F00200022805D1022106F5106038
:104E100000EB4510816001E010E007E009F0800040
:104E2000802803D12946204603F062F86D1C0198C2
:104E300040080190019800287FF476AF206805F0C3
:104E40004DFE00F00040B0F1004F10D140F60400DC
:104E5000805920F0010140F604008151204600F005
:104E60001CFA2068406900F0004021684861206811
:104E700005F034FE00F40060B0F5006F0ED140F68E
:104E80000800805900F0010010B1204600F036FA09
:104E90002068406900F4006021684861206805F0DE
:104EA0001DFE00F48050B0F5805F5CD140F6040038
:104EB000805920F0010140F6040081510021206852
:104EC00005F09AFD4FF0000B0CE0FF2106F5106095
:104ED00000EB4B10816006F5306000EB4B108160F9
:104EE0000BF1010B60685845EFD84FF0FF3140F6E9
:104EF00018008151001D805940F0011140F61C003E
:104F00008151206B70B1D6F8840840F00B01C6F8CF
:104F1000841840F64400805940F00B0140F64400EC
:104F200081510EE040F61400805940F00B0140F62C
:104F300014008151001F805940F00B014FF40160B3
:104F40008151D6F8000820F4FE60C6F80008217CE4
:104F500004F56172206805F03BFB2068406900F4AD
:104F6000805021684861206805F0B8FD00F40050C9
:104F7000B0F5005F6FD1206805F030FA2068C06896
:104F800020F470502168C860206805F04DFD68B9B4
:104F90000021E1604FF4007161612068C06840F455
:104FA00010502168C86084E00095BA0A0321E160CE
:104FB0004021616100F0A4FA07469848874209D36E
:104FC0009748874206D22068C06840F47050216834
:104FD000C8606EE09248874209D39248874206D261
:104FE0002068C06840F460502168C86061E08D4866
:104FF000874209D38C48874206D22068C06840F4B3
:1050000050502168C86054E08748874209D38748D8
:10501000874206D22068C06840F440502168C860CA
:1050200047E08248874209D38148874206D22068F8
:10503000C06840F430502168C8603AE07C4887423C
:105040000AD37C48874207D22068C06840F42050C9
:105050002168C8602DE035E07648874209D376485C
:10506000874206D22068C06840F410502168C860AA
:105070001FE07148874209D37048874206D22068F2
:10508000C06840F400502168C86012E06B48874255
:1050900009D36B48874206D22068C06840F4E050CC
:1050A0002168C86005E02068C06840F4C0502168ED
:1050B000C860204600F0D8F82068406900F400502D
:1050C00021684861206805F009FD00F010001028F3
:1050D00045D12068806920F0100021688861D6F8E9
:1050E000208008F00F00C0EBC00104F5EE7000EB6B
:1050F000810AC8F3434002281AD147F6F07008EA43
:10510000000030B3C8F30A123046DAF80C1005F08C
:10511000EBFCC8F30A11DAF80C000844CAF80C00DA
:10512000C8F30A11DAF818000844CAF8180010E0A9
:10513000C8F3434006280CD1082204F561713046BB
:1051400005F0D2FCC8F30A11DAF818000844CAF8CE
:1051500018002068806940F010002168886120688C
:1051600005F0BCFC00F00800082808D1204600F03B
:105170009BF82068406900F00800216848612068B9
:1051800005F0ACFC00F48010B0F5801F09D1E9B245
:10519000204600F057F82068406900F4801021682C
:1051A0004861206805F09AFC00F40010B0F5001F7B
:1051B00009D1E9B2204600F04EF82068406900F4B9
:1051C000001021684861206805F088FC00F08040EC
:1051D000B0F1804F08D12046FFF78CFB2068406972
:1051E00000F0804021684861206805F077FC00F0FD
:1051F000040004280FD12068D0F8048008F00400CF
:10520000042802D12046FFF79CFB2068406840EA52
:1052100008002168486000BFE0E40000C0ACD8008E
:10522000C0E1E4000024F40080730601A0491A01E3
:10523000002D310140A44C0100366E0120ABA601C7
:105240000048E80170B504460D462946D4F8B40379
:1052500004F0BAFD70BD70B504460D462946D4F879
:10526000B40304F0B4FD70BD70B504460125E068D8
:1052700010B1022804D101E0002503E0012501E07E
:10528000012500BF00BF2946D4F8B40304F0FCFD9B
:10529000D4F8B40304F0BEFD70BD10B50446D4F8D4
:1052A000B40304F0D9FD10BD10B50446D4F8B4031E
:1052B00004F0D9FD10BD70B504460D4600BF94F84A
:1052C0008003012801D1022070BD012084F88003F1
:1052D00000BF2946206805F018FC00BF002084F8B4
:1052E000800300BF00BFEFE710B5044604F561710D
:1052F000D4F8B40304F0D6FD10BD000010B5044688
:10530000D4F8B40304F00FFE2068D0F8000E40F08B
:1053100001002168C1F8000E206A28B10348006826
:1053200040F006000149086010BD000010ED00E0EB
:1053300070B504460D4600266D48006800F00F0069
:10534000A84209D26A490D700846006800F00F00B3
:10535000A84201D0012070BD207800F00200022890
:1053600007D16448006820F0F000A1680843614953
:105370000860207800F00100002877D060680128DC
:1053800007D15C4808380068C0F34040B8B9012034
:10539000E1E76068022802D06068032807D1554819
:1053A00008380068C0F3406048B90120D3E751488D
:1053B00008380068C0F3400008B90120CBE74D4829
:1053C000006820F00300616808434A490860FFF75D
:1053D00079F906466068012810D108E0FFF772F9F4
:1053E000801B41F28831884201D90320B3E741484C
:1053F000006800F00C000428F0D137E06068022853
:1054000010D108E0FFF75EF9801B41F28831884235
:1054100001D903209FE73748006800F00C000828F6
:10542000F0D123E06068032810D108E0FFF74AF9C3
:10543000801B41F28831884201D903208BE72D4837
:10544000006800F00C000C28F0D10FE008E0FFF736
:1054500039F9801B41F28831884201D903207AE76B
:105460002448006800F00C000028F0D120480068B3
:1054700000F00F00A84209D91D490D7008460068C8
:1054800000F00F00A84201D0012064E7207800F06E
:105490000400042807D11748006820F4E050E168B0
:1054A000084314490860207800F00800082808D153
:1054B0001048006820F46040216940EAC1000D49AD
:1054C000086000F04FF80B49096801F0F001F02284
:1054D00092FAA2F2B2FA82F2D140074A515CC84075
:1054E000064908600020FFF719F9002033E70000A3
:1054F000003C02400838024054C100080800002067
:1055000001480068704700000800002000B5FFF760
:10551000F7FF0749096801F4E0514FF4E05292FAAD
:10552000A2F2B2FA82F2D140024A515CC84000BDF8
:105530000838024054C1000800B5FFF7E1FF0749F1
:10554000096801F460414FF4604292FAA2F2B2FAA3
:1055500082F2D140024A515CC84000BD0838024086
:1055600054C1000870B50021002200230020274C00
:10557000246804F00C0424B1042C04D0082C41D17C
:1055800003E0234840E023483EE0204C241F2468E9
:1055900004F03F011D4C241F246804F4800484B1EE
:1055A0001C4CB4FBF1F5194C241F246847F6C07657
:1055B000344096FAA6F6B6FA86F6F44005FB04F2F5
:1055C0000FE0134CB4FBF1F5104C241F246847F690
:1055D000C076344096FAA6F6B6FA86F6F44005FB95
:1055E00004F20A4C241F246804F440344FF440357C
:1055F00095FAA5F5B5FA85F5EC40641C6300B2FB9D
:10560000F3F001E0024800BF00BF70BD083802405F
:105610000024F400001BB70038B5044600252078AC
:1056200000F00100002848D0DE48006800F00C00BF
:1056300004280DD0DB48006800F00C00082811D1C8
:10564000D848001F006800F48000B0F5800F09D131
:10565000D44808380068C0F3404070B3606860BB4D
:10566000012038BD2079CF49891F0870606890B14A
:10567000FFF728F8054606E0FFF724F8401B6428EA
:1056800001D90320EDE7C74808380068C0F340405F
:105690000028F1D011E0FFF715F8054606E0FFF706
:1056A00011F8401B642801D90320DAE7BD48083807
:1056B0000068C0F340400028F1D1207800F00200DB
:1056C000022869D1B748006800F00C0058B1B5480D
:1056D000006800F00C00082821D1B248001F0068C3
:1056E00000F48000D8B9AF4808380068C0F3400023
:1056F00020B1E068012801D00120B2E7A9480838AC
:10570000006820F0F800F82292FAA2F2B2FA82F2CF
:10571000216991400843A349083908603CE0E068EA
:1057200028B30120A0490860FEF7CCFF054606E03B
:10573000FEF7C8FF401B022801D9032091E79948D2
:1057400008380068C0F340000028F1D095480838B8
:10575000006820F0F800F82292FAA2F2B2FA82F27F
:105760002169914008438F490839086014E00020FE
:105770008D490860FEF7A6FF054606E0FEF7A2FF8A
:10578000401B022801D903206BE7864808380068CF
:10579000C0F340000028F1D1207800F0080008286C
:1057A0002CD16069A8B1012080490860FEF78AFF0A
:1057B000054606E0FEF786FF401B022801D90320BC
:1057C0004FE778486C300068C0F340000028F1D003
:1057D00014E0002075490860FEF774FF054606E0F6
:1057E000FEF770FF401B022801D9032039E76D48FE
:1057F0006C300068C0F340000028F1D1207800F040
:105800000400042857D100BF0020009065483830BC
:10581000006840F0805063493831086008460068ED
:1058200000F08050009000BF00BF6148006840F465
:1058300080705F490860FEF745FF054606E0FEF709
:1058400041FF401B022801D903200AE7584800689D
:1058500000F480700028F2D0207A52496831087034
:10586000A068A0B1FEF72EFF054608E0FEF72AFF6C
:10587000401B41F28831884201D90320F1E64948B2
:1058800068300068C0F340000028EFD013E0FEF756
:1058900019FF054608E0FEF715FF401B41F288316D
:1058A000884201D90320DCE63E4868300068C0F336
:1058B00040000028EFD1A069F0B33A48006800F03A
:1058C0000C00082869D0A069022850D10020364970
:1058D0000866FEF7F7FE054606E0FEF7F3FE401BFE
:1058E000022801D90320BCE62E4808380068C0F31E
:1058F00040600028F1D1D4E90701084347F6C0729F
:1059000092FAA2F2B2FA82F2616A9140084301224D
:10591000A16AC2EB51014FF4403292FAA2F2B2FAFC
:1059200082F2914008434FF0706292FAA2F2B2FA0A
:1059300082F2E16A914000E031E008431949091F11
:105940000860012018490866FEF7BCFE054606E01F
:10595000FEF7B8FE401B022801D9032081E611485A
:1059600008380068C0F340600028F1D017E000203C
:105970000D490866FEF7A6FE054606E0FEF7A2FE04
:10598000401B022801D903206BE60648083800684E
:10599000C0F340600028F1D101E0012061E6002061
:1059A0005FE600000838024000004742800E474290
:1059B0000070004010B504460CB9012010BD606AAB
:1059C00000B900BF0021A16294F8510028B900205D
:1059D00084F85000204600F033F8022084F851008B
:1059E0002068006820F0400021680860D4E90101C7
:1059F0000843E16808432169084361690843218B32
:105A000001F400710843E1690843216A0843A16A6F
:105A10000843216808600421A06901EA1040616A16
:105A20000843216848602068C06920F4006021684C
:105A3000C86100206065012084F851000020BDE7A6
:105A400010B586B004461249206888421ED100BFB6
:105A5000002000900F48006840F480100D49086055
:105A60000846006800F48010009000BF00BF4FF4AB
:105A700060700190022002900020039003200490A7
:105A80000520059001A90448FEF700FD06B010BDF1
:105A90000050014044380240001402402DE9FE4FFE
:105AA00004460D4616461F46DDF830804FF0000ACA
:105AB0000020029081464FF0010B019000BF94F846
:105AC0005000012802D10220BDE8FE8F012084F899
:105AD000500000BFFEF7F6FD814694F851A06068C3
