:020000040800F2
:100000002808002001010008351B0008851200089F
:10001000311B0008B90A0008B523000800000000E1
:10002000000000000000000000000000D11C0008DB
:100030008D0E000800000000471C0008BD1D0008D0
:100040001B0100081B0100081B0100081B01000820
:100050001B0100081B0100081B0100081B01000810
:100060001B0100081B0100081B0100081B01000800
:100070001B0100081B0100081B0100081B010008F0
:100080001B0100081B0100081B0100081B010008E0
:100090001B0100081B0100081B0100081B010008D0
:1000A0001B0100081B0100081B0100081B010008C0
:1000B0001B0100081B010008211E00081B0100088D
:1000C0001B0100081B0100081B0100081B010008A0
:1000D0001B0100084D2300081B0100081B0100083C
:1000E0001B0100081B0100081B010008DFF80CD0F1
:1000F00000F01AFC00480047892400082808002066
:100100000648804706480047FEE7FEE7FEE7FEE7B1
:10011000FEE7FEE7FEE7FEE7FEE7FEE7C11D00089B
:10012000ED000008F0B480EA0102D40F4200B2EB07
:10013000410F02D20246084611464A0042D0C30D82
:10014000DDB2C1F3C752AD1A202D35DAC1F3160165
:1001500041F4000204B15242C5F1200602FA06F150
:100160002A411044B3EBD05F23D0C4B1012DA0EBE2
:10017000C35009DCF0BC4FF0004202EAC352DBB2CC
:1001800000F5000000F0F4BA400000F1807000EBD0
:10019000C350A0F1807040EAD170490009E04908DD
:1001A00041EAC071A0EBC35000F50000400800EB2D
:1001B000C350F0BC00F0D3BA6142012202EB41010E
:1001C000001BF6E7F0BC704781F00041AAE780F021
:1001D0000040A7E780EA010210B502F000434000AA
:1001E00022D04A001FD0010E01EB1261C0F356006D
:1001F000C2F3560240F4000042F40002A0FB0220C9
:1002000000047F39140400D0401C50EA124001D48D
:100210004000491EC2B20C0604EBD010401C40083E
:10022000802A02D003E0002010BD20F00100002948
:1002300000DA0020184310BD30B480EA010202F059
:10024000004530F0004221F0004013D090B1C30DC2
:10025000D40DC2F31601C0F31600E41A41F40001F4
:1002600040F400027D34914201D3641C00E0490057
:10027000002C02DA30BC002070474FF4000000234D
:10028000914201D3891A034340084FEA4101F7D153
:1002900051B1914202D14FF0004105E002D24FF03E
:1002A000010101E06FF0010103EBC450284430BCB0
:1002B00000F055BA2DE9FE4F804681EA0300C00FD9
:1002C0000C46009021F0004123F00045B8EB0200FD
:1002D000A94105D24046214690461C460B4602469F
:1002E00023F00040104347D0270DC7F30A00C3F3A3
:1002F0000A510290401A019040286BDAC3F31300B0
:1003000040F4801B0098924620B10023D2EB030AF0
:1003100063EB0B0B01985946C0F14002504600F0C8
:10032000EDF906460D4650465946019A00F005FA89
:1003300010EB08006141002487EA115284EAE77358
:100340001A4340D0009A62B3019A012A4FEA075239
:1003500015DC001B61EB02014FF0004202EA07527C
:10036000CDE90042001C41F5801132462B4600F0D9
:100370003CFA03B0BDE8F08F40462146F9E7001B88
:1003800061EB0201001C41F5801300185B4120184D
:10039000A2F5001747EB030140EAD570B6196D418D
:1003A00011E06D084FEA360645EAC0754FEA07527C
:1003B000001B61EB0201001C41F5801149084FEA66
:1003C00030000019514132462B4603B0BDE8F04FD2
:1003D00000F0FCB90098012240000023D0EB02029B
:1003E00063EBE073009821464FEAE074B8EB00003D
:1003F00061EB0401E9E783F000435BE781F0004132
:1004000058E72DE9FE4F81EA030404F0004421F08F
:10041000004100944FF0000B23F0004350EA010428
:100420005ED052EA03045BD0C3F30A54C1F30A5509
:100430002C44A4F2F3340194A0FB0254C1F3130141
:1004400041F48011C3F3130343F4801301FB02440E
:1004500000FB034E840A970A44EA815447EA835713
:10046000A4FB076802958D0A05FB07854FEA932CCC
:1004700004FB0C542705029D4FEA065847EA16373D
:10048000B5EB08056EEB070C870E920E47EA811755
:1004900042EA8312A7FB0201B6EB0B0164EB0004F6
:1004A0002B0D43EA0C335E1844EB1C50DA465146E0
:1004B000E7FB0201C5F313044FEA0B3343EA14537D
:1004C0004FEA0432019C43EA0603A4F10C040294AF
:1004D000009CCDE900B400F088F903B0BDE8F08FCE
:1004E00000200146F9E72DE9F04D81EA030404F00C
:1004F000004B21F0004514464FF0000A23F0004164
:1005000050EA050220D054EA01021DD0C5F30A5773
:100510000246C5F31303C1F31300C1F30A5640F4B6
:10052000801543F48013A7EB0608101BD64608F28B
:10053000FD3873EB050002D308F1010801E09218C1
:100540005B41B8F1000F03DA00200146BDE8F08DF1
:1005500000204FF48011064684460EE0171B73EB13
:10056000050705D3121B63EB050306434CEA010C98
:1005700049084FEA300092185B4150EA0107EDD17B
:1005800052EA030012D082EA040083EA050108431C
:1005900005D0101BAB4106D20122002306E0002249
:1005A0004FF0004302E06FF0010253101AEB060017
:1005B0004CEB085110EB0A0041EB0B01BDE8F04D8C
:1005C00000F004B9C10F80EAE0700844CA0796231E
:1005D000002100F0CDB896230022114600F0C8B8E3
:1005E00020F00040C10DC0F3160040F400007F2948
:1005F00001DA00207047962903DCC1F19601C8405A
:10060000704796398840704770B5C1F30A5201F0BF
:1006100000450024C1F3130140F2FF3341F480117F
:100620009A4201DA002070BD40F233439A42A2F2AE
:10063000334203DC524200F070F800E090402C435B
:10064000F1D0404270BD00F0004230F000400AD0CE
:10065000C10D01F56071C0F3160042EA0151C208F4
:1006600040071143704700200146704730B5041E13
:1006700071F1000404DB4FF00044404264EB0101DF
:10068000141E73F1000405DB1C464FF00043524278
:1006900063EB04038B4208BF824230BD01F000438C
:1006A00030B421F0004150EA010206D00A0DA2F553
:1006B0006072C1F31301002A02DC30BC00207047D5
:1006C000440F44EAC104C100E01830BC00EBC25042
:1006D00000F045B8002801DBC0F10040002901DB33
:1006E000C1F1004181427047002801DBC0F10040A8
:1006F000002901DBC1F1004188427047202A04DB58
:10070000203A00FA02F1002070479140C2F1200324
:1007100020FA03F3194390407047202A04DB203A63
:1007200021FA02F00021704721FA02F3D040C2F111
:1007300020029140084319467047202A06DBCB1758
:10074000203A41FA02F043EAE07306E041FA02F38C
:10075000D040C2F120029140084319467047002959
:10076000A8BF7047401C490008BF20F00100704737
:1007700010B4B0FA80FC00FA0CF050EA010404BF97
:1007800010BC704749B1CCF1200421FA04F411FAED
:100790000CF118BF012121430843A3EB0C01CB1D31
:1007A0004FEA00614FEA102042BF002010BC7047A2
:1007B00000EBC35010440029A4BF10BC7047401C7C
:1007C000490008BF20F0010010BC704710B5141E8E
:1007D00073F1000408DA401C41F1000192185B41FA
:1007E0001A4301D120F0010010BD2DE9F04D9246D1
:1007F0009B4611B1B1FA81F202E0B0FA80F22032E8
:100800009046FFF77BFF04460F4640EA0A0041EAA4
:100810000B0153465A46084313D0114653EA0100D0
:1008200019D0C8F140025046FFF777FF05460E4643
:10083000504659464246FFF761FF084305D0012064
:1008400004E020463946BDE8F08D0020054346EA25
:10085000E0762C4337430A986305E40AA0EB0800CE
:100860000022FD0A44EA47540A3002D5002001461E
:10087000E9E7010510196941DDE9084500196941F9
:10088000BDE8F04DA2E72DE9F04D00231A461B1AF2
:100890008A4103DB00200146BDE8F08DC1F30A5216
:1008A000C1F3130141F480154FF0000BD10702D1C1
:1008B00000186D41521E0027044640F2FF113846D1
:1008C00001EB620A3E468046024600204FF480114A
:1008D000FFF723FFC2197141BB1846EB0100B4EBCF
:1008E000030C75EB000C04D3E41A65EB0005174606
:1008F0000E46241908F101006D4180463428E3DDDD
:10090000F91946EB0600091BA84103D24FF0FF324C
:10091000134601E0002213461BEB070046EB0A5189
:10092000BDE8F04DFFF752BF064C074D06E0E0680A
:1009300040F0010394E8070098471034AC42F6D326
:10094000FFF7D8FB00250008202500082DE9FC5FF3
:10095000002003464F4A111F0090081F00F096FB2D
:1009600032214D4800F052FB322101904B4800F0FB
:100970004DFB824632214A4800F048FB83465146EF
:10098000FFF7D0FB81460199FFF7CCFB0446FFF748
:100990005AFE074601F08DFD0546FFF77FFE4149EF
:1009A000086032213E4800F001FB3F4908603221D7
:1009B0003A4800F0FBFA3C4948603221364800F0E2
:1009C000F5FA3949886033491439086B4FF084418E
:1009D000FFF78AFE5CD235480078002858D14FF0E6
:1009E0007A5130480068FFF775FE30D22E4988688A
:1009F000FFF729FE21F0004504462B494868FFF720
:100A000022FE21F00049804627490868FFF71BFEB7
:100A100021F0004142464B46CDE90001FFF74AFC78
:100A2000064622462B46FFF745FC82460022204B15
:100A3000FFF71CFE0BD21F4800884FF6FF7188425B
:100A400008DA1C480088401C1A49088002E000208F
:100A50001849088017480088C82814DD1248006823
:100A60000C49143948621048406888620E48806812
:100A7000C862012081F83A000C4908700549143910
:100A800081F83B0004E000200249143981F83A0063
:100A9000BDE8FC9F600000200C0300204402002001
:100AA0007C01002018000020D40300201E0000203C
:100AB000000018401600002000BFFEE710B500F04F
:100AC00003F800F0ADF810BD08B50121052001F0D4
:100AD000CBF818208DF803004FF48050ADF80000DB
:100AE00003208DF802006946074800F0D0F948203D
:100AF0008DF803004FF40060ADF80000694602482D
:100B000000F0C5F908BD00000008014030B50246FC
:100B100000200023146824F002041460146844F0D8
:100B20000104146000E05B1C546804F001041CB96B
:100B30004FF6FF74A342F6D1546804F001040CB9D7
:100B400000206CE08C79012C04D1146844F08004FE
:100B5000146003E0146824F080041460CC79012C44
:100B600004D1146844F04004146003E0146824F0D5
:100B7000400414600C7A012C04D1146844F0200461
:100B8000146003E0146824F0200414604C7A012CF3
:100B900004D1146844F01004146003E0146824F0D5
:100BA000100414608C7A012C04D1146844F00804F9
:100BB000146003E0146824F008041460CC7A012C5B
:100BC00004D1146844F00404146003E0146824F0B1
:100BD000040414608C78A407CD7844EA05640D7988
:100BE00044EA05444D7944EA05540D886D1E2C43B2
:100BF000D461146824F001041460002300E05B1C3D
:100C0000546804F001041CB14FF6FF74A342F6D1FE
:100C1000546804F001040CB1002000E0012030BD54
:100C20000EB50121480601F00FF800208DF80700ED
:100C30008DF808008DF802008DF809008DF80A0083
:100C40008DF806008DF80B0004208DF804000220BA
:100C50008DF8050001208DF803000420ADF8000098
:100C600069460248FFF752FF0EBD000000640040D5
:100C700010B502460020936803F08063B3F1806FE3
:100C800000D110E0936803F00063B3F1006F01D16D
:100C9000012008E0936803F08053B3F1805F01D135
:100CA000022000E00420042874D002F5C07303EB96
:100CB00000131B6803F0010402F5C07303EB00137B
:100CC0001C600B7A7BB94B7A0C8843EA445302F5DB
:100CD000C07404EB00142468234302F5C07404EBD1
:100CE0000014236010E00B7A4C6843EAC4034C7A8A
:100CF000234302F5C07404EB00142468234302F577
:100D0000C07404EB001423608B7A03F00F038B7222
:100D100002F5C07303EB00135B6823F00F0402F5C8
:100D2000C07303EB00135C6002F5C07303EB0013A8
:100D30005B688C7A234302F5C07404EB0014636093
:100D40008B7B1C064B7B44EA03440B7B44EA032366
:100D5000CC7A234302F5C07404EB0014A3608B7CAF
:100D60001C064B7C44EA03440B7C44EA0323CC7B03
:100D7000234302F5C07404EB0014E36002F5C07372
:100D800003EB00131B6843F0010402F5C07303EB8F
:100D900000131C6010BD00002DE9F041054600263F
:100DA000002404E0295D0F480155601CC4B2082CE2
:100DB000F8DB41F215300B490B394860042008720A
:100DC000002048720860082088720748FFF750FF2B
:100DD00007463946044800F009F806463046BDE8A3
:100DE000F0810000430000200064004010B502467E
:100DF000002321B1012907D002290FD109E0906811
:100E00001D4C00EA04030BE090681C4C00EA04034C
:100E100006E090681A4C00EA040301E0002300BFDA
:100E200000BF184C181BA34216D007DC83B16FF02B
:100E30008060184470B1022818D111E0B0F5007F2D
:100E400010D0114C204448B1B0F5003F0ED10BE05A
:100E500002230DE000230BE0002309E0002307E05C
:100E6000012305E0012303E0012301E0002300BF8B
:100E700000BFD8B210BD000003000004000300084A
:100E800000000310000100080001FFF770472DE982
:100E9000F041024600250026002000230024002700
:100EA00091F803C00CF00F0591F803C00CF0100C82
:100EB000BCF1000F03D091F802C04CEA050591F88F
:100EC00000C0BCF1000F31D0146800202BE04FF0BF
:100ED000010C0CFA00F3B1F800C00CEA03069E42C4
:100EE00020D183004FF00F0C0CFA03F7BC4305FA36
:100EF00003FC4CEA040491F803C0BCF1280F06D1AE
:100F00004FF0010C0CFA00FCC2F814C00AE091F892
:100F100003C0BCF1480F05D14FF0010C0CFA00FCE6
:100F2000C2F810C0401C0828D1D31460B1F800C02A
:100F3000BCF1FF0F34DD546800202EE000F1080CF6
:100F40004FF0010808FA0CF3B1F800C00CEA0306F0
:100F50009E4221D183004FF00F0C0CFA03F7BC43E3
:100F600005FA03FC4CEA040491F803C0BCF1280F15
:100F700005D100F1080C08FA0CF8C2F8148091F8B9
:100F800003C0BCF1480F07D100F1080C4FF0010875
:100F900008FA0CF8C2F81080401C0828CED3546020
:100FA000BDE8F08141617047016170472DE9F0476C
:100FB00006460C464FF00008002507E056F82510BD
:100FC0004046FFF7AFF88046681C85B2A542F5DBC6
:100FD0002046FFF700FB814649464046FFF72CF9C3
:100FE00007463846BDE8F08770B50446D4E90401E9
:100FF000FFF798F80546A169FFF794F82064D4E953
:101000000E21206C01F0EEF9206470BD2DE9FE4F39
:1010100005460E464FF00009002407E055F824105D
:101020004846FFF77FF88146601C84B2B442F5DB86
:101030003046FFF7D0FA824651464846FFF7FCF8A3
:10104000074600241DE03046FFF7C5FA029055F828
:1010500024003946FFF7B8F8019055F824003946C6
:10106000FFF7B2F800900199FFF7B4F883460299B0
:10107000FFF7E2F882464146FFF754F88046601CCD
:1010800084B2B442DFDB4046BDE8FE8FF0B5059C7C
:10109000ECB92F4D2D886D1C2D4E358035462D8891
:1010A000322D01D1002535802A4E294F3F88056811
:1010B00046F82750284E264F3F880D6846F827509F
:1010C000264E234F3F88156846F827503EE0322BC6
:1010D00004DB002505600D60156037E01C4D2D8890
:1010E000AB4215DA1A4D2D88ED1A1A4E56F82550D6
:1010F0000560174D2D88ED1A174E56F825500D60D6
:10110000134D2D88ED1A154E56F8255015601DE02B
:10111000C3F132050E4E368835446D1E0D4E56F81D
:1011200025500560C3F13205094E368835446D1EE1
:10113000094E56F825500D60C3F13205044E36882D
:1011400035446D1E054E56F825501560F0BD000063
:101150001C0000207C010020440200200C03002021
:1011600008B50121082000F07FFD0220ADF8000045
:1011700018208DF8030003208DF80200694602480C
:10118000FFF785FE08BD0000000C014000B587B0E8
:101190000121022000F058FD42F20F70ADF814005A
:1011A0004720ADF810000020ADF81600ADF8120091
:1011B00004A9104801F03AF86020ADF800000120C1
:1011C000ADF802000020ADF80600ADF80800694651
:1011D000084800F0DFFF0821064801F019F8012156
:1011E000044800F0A7FF0121024800F0B5FF07B056
:1011F00000BD0000000400401FB5FFF7B1FFFFF77E
:10120000C5FF00200649074A074BCDE90032CDE96A
:101210000210064B064A0749074800F0F7FC1FBDBD
:10122000003C1C460080BBC50080BB4500007A44E2
:101230000000704200C0DA45E003002010B504460B
:101240000D4890F83C0090B90C48C4610A48006B06
:101250000A490862084600F0B1FC0848FFF7C4FEDE
:101260000649086CFFF7BCF90549088002E0002038
:101270000349088010BD00004C000020E00300205E
:101280004004004000BFFEE70FB400B50199059887
:10129000486100F05CFA02990698486100F057FA3C
:1012A00001990598086100F052FA01990598486182
:1012B00000F04DFA5DF814FB0FB400B501990598E4
:1012C000486100F044FA02990698086100F03FFA7C
:1012D00001990598086100F03AFA0199059848616A
:1012E00000F035FA5DF814FB0FB4FEB50EACD0CCAF
:1012F000119DDDE90C01CDE9000108A80FC800F03F
:101300003BF918B90020FEBC5DF814FB0294DDE93E
:101310000C01CDE9000108A80FC800F0F0F9DDE9E3
:101320000C01CDE9000108A80FC800F0C3F948B9C5
:10133000DDE90C01CDE9000108A80FC800F045F96E
:101340000020E0E70297DDE90C01CDE9000108A8E3
:101350000FC800F0D4F9DDE90C01CDE9000108A8BF
:101360000FC800F0A7F948B9DDE90C01CDE900018B
:1013700008A80FC800F029F90020C4E7DDE90C0136
:10138000CDE9000108A80FC800F0F6F844F001000C
:101390000290DDE90C01CDE9000108A80FC800F0BA
:1013A000AEF9DDE90C01CDE9000108A80FC800F095
:1013B00081F948B9DDE90C01CDE9000108A80FC8A1
:1013C00000F003F900209EE726E0DDE90C01CDE9FD
:1013D000000108A80FC800F02BF83070761C012D12
:1013E00008DDDDE90C01CDE9000108A80FC8FFF711
:1013F0004BFF0FE0DDE90C01CDE9000108A80FC8A3
:10140000FFF75AFFDDE90C01CDE9000108A80FC87C
:1014100000F0DBF8681E85B2002DD6D1DDE90C01A5
:10142000CDE9000108A80FC800F0CFF801206AE755
:101430000FB400B50823002202990698086112E053
:101440005006020E01990598486100F080F9019953
:101450000598086100F07BF90298806806990840B9
:1014600008B142F00102181EA3F10101CBB2E7D18D
:1014700001990598486110465DF814FB0FB408B552
:10148000DDE9041241EA0200012100F0EDFB032036
:101490008DF8020010208DF80300069880B2ADF898
:1014A000000069460298FFF7F2FC079880B2ADF899
:1014B000000069460398FFF7EAFC01B05DF814FBF1
:1014C0000FB47EB50DAC70CCDDE90B01CDE90001A8
:1014D00007A80FC800F050F818B900207EBC5DF8CE
:1014E00014FB0294DDE90B01CDE9000107A80FC848
:1014F00000F005F9DDE90B01CDE9000107A80FC8EF
:1015000000F0D8F848B9DDE90B01CDE9000107A8E2
:101510000FC800F05AF80020E0E70295DDE90B0162
:10152000CDE9000107A80FC800F0E9F8DDE90B01DB
:10153000CDE9000107A80FC800F0BCF80296DDE96C
:101540000B01CDE9000107A80FC800F0D8F8DDE9CC
:101550000B01CDE9000107A80FC800F0ABF8DDE9E9
:101560000B01CDE9000107A80FC800F02EF80120FB
:1015700000F0F4F80120B1E70FB400B50299069825
:10158000086101990598086100F0E1F80298806807
:1015900008B9012000E000200699084010B10020A1
:1015A0005DF814FB02990698486100F0D0F80298A3
:1015B00080680699084008B10020F1E70299069872
:1015C000486100F0C4F80120EAE70FB400B50199C2
:1015D0000598486100F0BBF802990698486100F050
:1015E000B6F801990598086100F0B1F802990698DB
:1015F000086100F0ACF85DF814FB000030B5039C06
:1016000001604360244DA94201D104258560234D2A
:10161000A94201D108258560214DA94201D110259B
:101620008560204DA94201D1202585601E4DA9422B
:1016300001D1402585601D4DA94201D180258560DD
:101640001B4DA94201D18D158560134DAB4201D1CF
:101650000425C560114DAB4201D10825C560104D70
:10166000AB4201D11025C5600E4DAB4201D1202502
:10167000C5600D4DAB4201D14025C5600B4DAB425D
:1016800001D18025C5600A4DAB4201D19D15C560D1
:101690000261446130BD000000080140000C0140BF
:1016A000001001400014014000180140001C0140DE
:1016B000002001400FB400B501990598486100F081
:1016C00046F802990698086100F041F801990598DA
:1016D000086100F03CF8029880680699084038B12B
:1016E00001990598486100F032F800205DF814FB7C
:1016F00001990598486100F02AF80120F6E70FB437
:1017000010B5089C082217E002990698486100F07D
:101710001EF804F0800018B103990798086102E0F0
:101720000399079848616006040E00F010F80299CA
:101730000698086100F00BF8101EA2F10101CAB270
:10174000E2D102990698486110BC5DF814FB0520AF
:1017500001E0411EC8B20028FBD1704770B50246B7
:1017600041F2883302FB03F0002102E0401E61F1E8
:101770000001002480EA04034C402343F6D170BDED
:1017800008B50121082000F06FFA10208DF8030041
:1017900003208DF802000120ADF8000069460248E0
:1017A000FFF775FB08BD0000000C014010B588B0C4
:1017B000044608203B2106AAD023CDE90232CDE918
:1017C00004101549D1E90401CDE9000112480FC800
:1017D000FFF78AFD9DF819009DF8181040EA0120D6
:1017E00000B220809DF81B009DF81A1040EA0120ED
:1017F00000B260809DF81D009DF81C1040EA012099
:1018000000B2A0809DF81F009DF81E1040EA012044
:1018100000B2E08008B010BDF800002010B588B01C
:1018200004460620432106AAD023CDE90232CDE9A1
:1018300004101149D1E90401CDE900010E480FC897
:10184000FFF752FD9DF819009DF8181040EA01209D
:1018500000B220809DF81B009DF81A1040EA01207C
:1018600000B260809DF81D009DF81C1040EA012028
:1018700000B2A08008B010BDF800002010B586B0FE
:101880000024012075211A4AD023CDE90232CDE986
:1018900004101849D1E90401CDE9000115480FC829
:1018A000FFF722FD18E0601CC4B201207521104A28
:1018B000D023CDE90232CDE904100E49D1E904016B
:1018C000CDE900010B480FC8FFF70EFD642C03DDC6
:1018D0000120094981F83C0005480078702804D0AF
:1018E000054890F83C000028DDD006B010BD00008F
:1018F00014000020F80000204C00002000B585B046
:101900008020494B2022194600904848FFF776FE78
:101910004649D1E90401CDE9000144480FC8FFF769
:10192000ADFDC82000F092FDFFF7A8FF80206B21DD
:10193000D022CDE9022104903C49D1E90401CDE94E
:1019400000013A480FC8FFF7BBFD322000F07EFDD2
:1019500000201921D022CDE9022104903349D1E998
:101960000401CDE9000131480FC8FFF7A9FD0320AC
:101970006B21D022CDE9022104902C49D1E9040148
:10198000CDE9000129480FC8FFF79AFD0220372151
:10199000D022CDE9022104902449D1E90401CDE906
:1019A000000122480FC8FFF78BFD03201A21D02227
:1019B000CDE9022104901D49D1E90401CDE90001DE
:1019C0001A480FC8FFF77CFD18201B21D022CDE953
:1019D000022104901549D1E90401CDE90001134821
:1019E0000FC8FFF76DFD00201921D022CDE902219B
:1019F00004900E49D1E90401CDE900010B480FC85C
:101A0000FFF75EFD10201C21D022CDE902210490B9
:101A10000649D1E90401CDE9000104480FC8FFF7E8
:101A20004FFD05B000BD000000080140F800002097
:101A30002DE9FF47044602A8FFF7B8FE6846FFF706
:101A4000EDFEBDF90800FEF7BDFD05464FF08B41E8
:101A5000FEF7F2FB2060BDF90A00FEF7B3FD054674
:101A60004FF08B41FEF7E8FB6060BDF90C00FEF71C
:101A7000A9FD05464FF08B41FEF7DEFBA060BDF9E6
:101A80000000FEF79FFD8146FEF7DDFD0746264A72
:101A9000264BFEF728FD0546FEF700FEE060BDF987
:101AA0000200FEF78FFD8146FEF7CDFD07461E4A78
:101AB0001E4BFEF718FD0546FEF7F0FD2061BDF94F
:101AC0000400FEF77FFD8146FEF7BDFD0746164A7E
:101AD000164BFEF708FD0546FEF7E0FD6061BDF917
:101AE0000E00FEF76FFD05464FF08741FEF7A4FBA1
:101AF0002063616AE068FEF767FBA061A16A206964
:101B0000FEF762FBE061E16A6069FEF75DFB20625F
:101B1000BDF80000A086BDF80200E086BDF8040014
:101B20002087BDE8FF870000FCA9F1D24D6230405C
:101B300000BFFEE77047000070B5002100230F22B0
:101B4000C47804B3154C246804F4E064C4F5E0647C
:101B5000210AC1F10403CA40447804FA03F18478ED
:101B60001440214309010E4C0678A155047804F075
:101B70001F050124AC4005786D11AD0005F1E0258D
:101B8000C5F8004109E0047804F01F050124AC40C9
:101B9000044D0678761145F8264070BD0CED00E046
:101BA00000E400E080E100E002490143024A1160E4
:101BB000704700000000FA050CED00E070B5044627
:101BC000D4E90701FEF700FBA062D4E90910FEF793
:101BD000FBFAE062A06A6062A16A2068FEF7FAFA86
:101BE0002061A16A6068FEF7F5FA05466169FEF7B3
:101BF00099FA6061D4E90C21606900F0F3FB60613F
:101C0000E16AA068FEF7E6FAA06170BDF0B5DDE913
:101C10000574DDE90756076344638563C6630160A5
:101C2000426083604FF0000CC0F810C0C0F814C0D0
:101C3000C0F818C0C0F828C0C0F824C0C0F82CC034
:101C4000C0F840C0F0BD704729B1064AD2690243CE
:101C5000044BDA6104E0034AD2698243014BDA6142
:101C6000704700000010024029B1064A9269024301
:101C7000044B9A6104E0034A92698243014B9A61E2
:101C8000704700000010024008B501210420FFF752
:101C9000EBFF1020ADF800008DF8030003208DF855
:101CA000020069460948FFF7F2F84020ADF800004D
:101CB00069460648FFF7EBF840210448FFF772F940
:101CC00010210248FFF770F908BD0000000801402C
:101CD000704710B500F002F810BD00000CB50020F0
:101CE000019000903348006840F48030314908602A
:101CF00000BF3048006800F4003000900198401C9C
:101D00000190009818B90198B0F5A06FF1D1294859
:101D1000006800F4003010B10120009001E00020C4
:101D200000900098012843D12348006840F010003B
:101D3000214908600846006820F003000860084652
:101D4000006840F0020008601A484068194948607D
:101D50000846406848600846406840F48060486033
:101D60000846406820F47C1048600846406840F40B
:101D7000E81048600846006840F08070086000BFC6
:101D80000C48006800F000700028F9D0094840684D
:101D900020F00300074948600846406840F0020010
:101DA000486000BF0348406800F00C000828F9D1E3
:101DB0000CBD0000001002400020024070470000EF
:101DC00010B51348006840F001001149086008464A
:101DD0004068104908400E494860084600680E49AE
:101DE00008400B4908600846006820F4802008601D
:101DF0000846406820F4FE0048604FF41F008860E9
:101E0000FFF767FF4FF000600449086010BD000055
:101E1000001002400000FFF8FFFFF6FE08ED00E0B2
:101E20002DE9F0410121B84800F0A2F901287AD14A
:101E3000B6480068401CB549086008460068B449C7
:101E4000884202D10020B1490860B24890F83C00B5
:101E5000E8B9B04890F83B00012814D1AB480068BD
:101E60004FF47A71B0FBF1F201FB1200B0F5FA7F8A
:101E700004D20121A848FFF795F808E00121A648FF
:101E8000FFF792F803E00121A348FFF78BF8A14880
:101E900090F83C00012813D19C4800684FF47A71F7
:101EA000B0FBF1F201FB1200642804D201219A4830
:101EB000FFF778F894E001219748FFF775F88FE075
:101EC000944890F83C00022833D1904800684FF4C1
:101ED0007A71B0FBF1F201FB1200642804D20121F7
:101EE0008D48FFF75FF87BE0884800684FF47A710F
:101EF000B0FBF1F201FB1200C82804D20121864890
:101F0000FFF752F86CE0814800684FF47A71B0FB3B
:101F1000F1F201FB1200B0F5967F05D201217E4857
:101F2000FFF740F85CE0EDE001217B48FFF73CF86B
:101F300056E0784890F83C00032851D17348006877
:101F40004FF47A71B0FBF1F201FB1200642804D265
:101F500001217148FFF726F842E06C4800684FF411
:101F60007A71B0FBF1F201FB1200C82804D2012102
:101F70006948FFF719F833E0644800684FF47A7154
:101F8000B0FBF1F201FB1200B0F5967F04D2012103
:101F90006148FFF707F823E05C4800684FF47A7166
:101FA000B0FBF1F201FB1200B0F5C87F04D20121B1
:101FB0005948FEF7F9FF13E0544800684FF47A716E
:101FC000B0FBF1F201FB1200B0F5FA7F04D201215F
:101FD0005148FEF7E7FF03E001214F48FEF7E4FF19
:101FE0004A4800680A21B0FBF1F201FB120020B957
:101FF0004A48FFF723F9FEF7A9FC4648FFF718FD0A
:10200000444890F83C00002878D142498869FEF79E
:102010001AFB0646424A434BFEF7F3F90446FEF725
:10202000F3FA000A404908703A498869FEF70BFB49
:1020300006463B4A3B4BFEF7E4F90446FEF7E4FA5A
:10204000394948703349C869FEF7FDFA0646344AF3
:10205000344BFEF7D6F90446FEF7D6FA000A3249A9
:1020600088702C49C869FEF7EEFA06462C4A2D4BBB
:10207000FEF7C7F90446FEF7C7FA2B49C870254991
:10208000086AFEF7E0FA0646254A264BFEF7B9F93C
:102090000446FEF7B9FA000A234908711D49086A87
:1020A000FEF7D1FA06461E4A1E4BFEF7AAF9044671
:1020B000FEF7AAFA1C4948711649086BFEF7C3FAE5
:1020C00006460022194BFEF79CF90446FEF79CFADF
:1020D000000A154988710F49086BFEF7B4FA0646E5
:1020E0000022124BFEF78DF90446FEF78DFA0E49D9
:1020F000C8710846FEF750FE0D49087001210248DC
:1021000000F027F8BDE8F081000800400C00002036
:10211000A08601004C000020000C014000000C4291
:10212000FCA9F1D24D62304000000020000059406F
:102130000800002021B1028842F08002028004E001
:1021400002884FF67F731A4002807047CA430282AA
:102150007047CA430282704721B1028842F00102EF
:10216000028004E002884FF6FE731A400280704736
:1021700002460020138A0B400BB1012000E0002032
:1021800070471AB183890B43838102E083898B43B3
:102190008381704770B5002200230024058C4EF621
:1021A000FF7635400584038C8488828B48F6FF7562
:1021B0002A404FF6FF452A400D884FF6FF7606EA83
:1021C00005252A434DF6FF752B400D8906EA053596
:1021D0002B434D8806EA05352B430B4DA84202D010
:1021E0000A4DA84208D14BF6FF752C408D894FF659
:1021F000FF7606EA85152C4384808283CD88A0F87B
:102200004050038470BD0000002C014000340140A8
:102210000A460021818B4FF2FF7319404FF6FF737E
:1022200003EA0223194381837047000000220288D9
:102230001D4B98420ED01D4B98420BD0B0F1804FF1
:1022400008D01B4B984205D01A4B984202D01A4B2B
:10225000984204D14FF68F731A404B881A43174B9C
:10226000984207D0164B984204D04FF6FF431A40CD
:10227000CB881A4302808B8883850B8803850A4BA1
:1022800098420BD0094B984208D00E4B984205D08B
:102290000D4B984202D00D4B984201D10B7A038628
:1022A0000123838270470000002C0140003401406C
:1022B0000004004000080040000C004000100040F6
:1022C000001400400040014000440140004801402B
:1022D0000EB501210420FFF7B7FC4FF47A70ADF87A
:1022E00004004720ADF8000069460A48FFF79EFF4A
:1022F00001210848FFF72AFF012211460548FFF790
:1023000040FF01210348FFF727FF00210420FFF7CA
:102310009BFC0EBD0008004008B51E208DF8000093
:1023200000208DF801008DF8020001208DF80300D7
:102330006846FFF701FC08BD10B5FFF7EDFFFFF79A
:10234000C7FF01210420FFF77FFC10BD10B540F24C
:102350002551024800F004F810BD0000003801408B
:1023600070B50246002400230025002040F66A16BE
:10237000B14200D100BFC1F3421501F01F03012695
:1023800006FA03F3012D02D19689334006E0022DAF
:1023900002D1168A334001E0968A33400C1201269E
:1023A00006FA04F41688344013B10CB1012000E0A1
:1023B000002070BD00BFFEE702E008C8121F08C180
:1023C000002AFAD170477047002001E001C1121FB6
:1023D000002AFBD1704700000149086070470000E7
:1023E0002000002070B505460E46144631462846AA
:1023F000FEF770F901D2304670BD21462846FEF73F
:1024000073F901D22046F7E72846F5E74FF0E021BF
:10241000096921F004014FF0E0221161C21700EBBD
:102420005272C2F3C702074B1A701946097801EBC2
:102430004102C2EBC1114FF6FF7202EAC101024A2A
:1024400011807047100000201200002001460D4A44
:1024500012884A434FF0E0235A6100229A61012218
:102460001A6100BF4FF0E022106900F001021AB1BA
:1024700000F48032002AF5D000224FF0E0231A61E8
:102480009A617047120000204FF4E060FFF78CFB68
:102490004820FFF7BBFFFFF773F9FFF7F5FBFFF7E6
:1024A0002DFAFEF7A9FEFEF709FBFFF745FF00BF77
:1024B000FEE72DE9F04106460F46FEF7E4F9041E5B
:1024C0000D4618BF0120284320F00040C0F17F6076
:1024D00000F1E040C00F0ED0301C18BF012038437F
:1024E00020F00040C0F17F6000F1E040C00F04BF69
:1024F0000120FFF771FF20462946BDE8F08100006A
:10250000202500080000002024000000B823000857
:10251000442500082400002004080000C823000807
:1025200000000000000000000000000000000000AB
:10253000000000000000000000000000000000009B
:042540000000000097
:04000005080000ED02
:00000001FF
