:020000040800F2
:10000000B8070020CD010008850400089D03000802
:10001000290400087D0200082B12000800000000DF
:10002000000000000000000000000000F1070008D0
:1000300081020008000000001D050008DD0800081E
:10004000E7010008E7010008E7010008E7010008F0
:10005000E7010008E7010008E7010008E7010008E0
:10006000E7010008E7010008E7010008E7010008D0
:10007000E7010008E7010008E7010008E7010008C0
:10008000E7010008E7010008E7010008E7010008B0
:10009000E7010008E7010008E7010008E7010008A0
:1000A000E7010008E7010008E7010008E701000890
:1000B000E7010008E7010008ED090008E701000872
:1000C000E7010008E7010008E7010008E701000870
:1000D000E7010008C50E00085D0F0008E7010008F1
:1000E000E7010008E7010008E7010008E701000850
:1000F000E7010008E7010008E7010008E701000840
:10010000E7010008E7010008E7010008E70100082F
:10011000E7010008E7010008E7010008E70100081F
:10012000E7010008E7010008E7010008E70100080F
:1001300000F002F800F03AF80AA090E8000C8244BF
:100140008344AAF10107DA4501D100F02FF8AFF29C
:10015000090EBAE80F0013F0010F18BFFB1A43F0A5
:1001600001031847D8160000F8160000103A24BF03
:1001700078C878C1FAD8520724BF30C830C144BF0C
:1001800004680C607047000000230024002500264E
:10019000103A28BF78C1FBD8520728BF30C148BFEA
:1001A0000B6070471FB51FBD10B510BD00F038F8CB
:1001B0001146FFF7F7FF01F04FF800F056F803B4CF
:1001C000FFF7F2FF03BC01F032F800000948804756
:1001D00009480047FEE7FEE7FEE7FEE7FEE7FEE729
:1001E000FEE7FEE7FEE7FEE704480549054A064B41
:1001F000704700008D09000831010008B801002097
:10020000B8070020B8030020B803002070477047EB
:100210007047704770470000004870475401002045
:100220007546FFF7F9FFAE4605006946534620F0D4
:100230000700854618B020B5FFF7D6FFBDE820407F
:100240004FF000064FF000074FF000084FF0000B92
:1002500021F00701AC46ACE8C009ACE8C009ACE845
:10026000C009ACE8C0098D46704710B50446AFF32D
:1002700000802046BDE81040FFF7A1BF00BFFEE7A9
:1002800070472DE9F041024600250026002000239A
:100290000024002791F803C00CF00F0591F803C06B
:1002A0000CF0100CBCF1000F03D091F802C04CEA26
:1002B000050591F800C0BCF1000F31D01468002092
:1002C0002BE04FF0010C0CFA00F3B1F800C00CEA7F
:1002D00003069E4220D183004FF00F0C0CFA03F767
:1002E000BC4305FA03FC4CEA040491F803C0BCF1DA
:1002F000280F06D14FF0010C0CFA00FCC2F814C014
:100300000AE091F803C0BCF1480F05D14FF0010C91
:100310000CFA00FCC2F810C0401C0828D1D31460AD
:10032000B1F800C0BCF1FF0F34DD546800202EE0AE
:1003300000F1080C4FF0010808FA0CF3B1F800C006
:100340000CEA03069E4221D183004FF00F0C0CFAF9
:1003500003F7BC4305FA03FC4CEA040491F803C01C
:10036000BCF1280F05D100F1080C08FA0CF8C2F80E
:10037000148091F803C0BCF1480F07D100F1080CBC
:100380004FF0010808FA0CF8C2F81080401C082849
:10039000CED35460BDE8F0810161704700BFFEE735
:1003A00008B50121082000F0DBF8C020ADF80000FE
:1003B00010208DF8030003208DF8020069460248E2
:1003C000FFF75FFF08BD0000000C0140002013494B
:1003D0000861C8601420486100208861C86108462F
:1003E000006840F001000860084640680C49084079
:1003F0000A494860084600680A49084007490860F9
:100400000846006820F4802008600846406820F410
:10041000FE00486000208860704700000010024025
:100420000000FFF8FFFFF6FE00BFFEE708B5012061
:10043000ADF8000010208DF8030003208DF80200B5
:1004400069460F48FFF71DFF0220ADF8000010209D
:100450008DF8030003208DF8020069460848FFF775
:1004600010FF0420ADF8000010208DF803000320D9
:100470008DF8020069460248FFF703FF08BD00003F
:10048000000C0140704710B500F05AFC00F052FD1E
:1004900000F06AFC10BD000070B5002100230F229F
:1004A000C47804B3154C246804F4E064C4F5E06433
:1004B000210AC1F10403CA40447804FA03F18478A4
:1004C0001440214309010E4C0678A155047804F02C
:1004D0001F050124AC4005786D11AD0005F1E02544
:1004E000C5F8004109E0047804F01F050124AC4080
:1004F000044D0678761145F8264070BD0CED00E0FD
:1005000000E400E080E100E002490143024A11609A
:10051000704700000000FA050CED00E07047000095
:1005200029B1064AD2690243044BDA6104E0034A66
:10053000D2698243014BDA6170470000001002402B
:1005400029B1064A12690243044B1A6104E0034AC6
:1005500012698243014B1A6170470000001002408B
:1005600029B1064A92690243044B9A6104E0034AA6
:1005700092698243014B9A6170470000001002406B
:1005800029B1064AD2680243044BDA6004E0034A08
:10059000D2688243014BDA607047000000100240CD
:1005A00030B500210022002400232D4D6D6805F098
:1005B0000C0121B1042905D0082923D105E0294DDA
:1005C000056022E0274D05601FE0254D6D6805F4AC
:1005D0007012234D6D6805F48034022505EB9242BC
:1005E0001CB9214D554305600BE01D4D6D6805F4A8
:1005F00000351DB11C4D5543056002E0194D5543B2
:10060000056002E0174D056000BF00BF144D6D6826
:1006100005F0F0010909154D6B5C0568DD4045608A
:100620000F4D6D6805F4E061090A104D6B5C45687B
:10063000DD4085600A4D6D6805F46051C90A0B4DB7
:100640006B5C4568DD40C560054D6D6805F4404153
:10065000890B074D6B5CC568B5FBF3F5056130BDD3
:100660000010024000127A0000093D001400002032
:100670002400002000B587B001210C20FFF770FF97
:1006800001210803FFF76CFFE020ADF818001820E7
:100690008DF81B0003208DF81A0006A92048FFF7EB
:1006A000F0FDFFF7C3FE02211E48FFF775FE04218F
:1006B0001C48FFF771FE01211A48FFF76DFEE0218B
:1006C0001748FFF769FE0021174800F059F800208D
:1006D000ADF804004FF48270ADF806000020ADF8CC
:1006E0000800ADF80A00ADF80C004FF40070ADF84A
:1006F0000E001020ADF810000020ADF81200072009
:10070000ADF8140001A9084800F054F8012106488A
:1007100000F036F8FF2000F009F807B000BD000037
:1007200000080140000C01400030014070B5054652
:10073000002405E0601CC4B2FA2C01DD002070BD6D
:1007400002210E4800F028F80028F3D029460B4873
:1007500000F02EF8002405E0601CC4B2FA2C01DD84
:100760000020ECE70121054800F016F80028F3D03E
:10077000024800F01AF8C0B2E1E700000030014082
:1007800021B1028842F04002028004E002884FF664
:10079000BF731A40028070470246002013890B4045
:1007A0000BB1012000E000207047014688897047A6
:1007B0008181704710B50022028802F441520B88F3
:1007C0004C8823438C882343CC8823430C892343C0
:1007D0004C8923438C892343CC8923431A430280C9
:1007E000838B4FF2FF74234083830B8A038210BDF7
:1007F000704710B500F002F810BD00000CB50020E5
:10080000019000903348006840F48030314908601E
:1008100000BF3048006800F4003000900198401C90
:100820000190009818B90198B0F5A06FF1D129484E
:10083000006800F4003010B10120009001E00020B9
:1008400000900098012843D12348006840F0100030
:10085000214908600846006820F003000860084647
:10086000006840F0020008601A4840681949486072
:100870000846406848600846406840F48060486028
:100880000846406820F47C1048600846406840F400
:10089000E81048600846006840F08070086000BFBB
:1008A0000C48006800F000700028F9D00948406842
:1008B00020F00300074948600846406840F0020005
:1008C000486000BF0348406800F00C000828F9D1D8
:1008D0000CBD0000001002400020024002480068E9
:1008E000401C0149086070472C00002000B50246FA
:1008F0000023FFF76BFD2248006840F48030204958
:10090000086000BF1E480068400C0028FAD04FF471
:1009100080601B494860901EC2B20846406840EAA9
:10092000824048600846406840F48030486015487E
:10093000006840F03200134908601148006840F038
:1009400080700F49086000BF0D480068400E002805
:10095000FAD00B48406840F002000949486005E0C1
:1009600007484068C0F3870303F00303022BF7D165
:10097000901CC006000E044908700846007800BDAF
:1009800000100240002002403800002010B513483B
:10099000006840F0010011490860084640681049AD
:1009A00008400E494860084600680E4908400B4957
:1009B00008600846006820F4802008600846406807
:1009C00020F4FE0048604FF41F008860FFF711FF1D
:1009D0004FF000600449086010BD000000100240A4
:1009E0000000FFF8FFFFF6FE08ED00E010B5012162
:1009F000044800F039F918B10121024800F031F83B
:100A000010BD0000000800403EB505460C4601211F
:100A10000420FFF785FD104800F032F8A0B2ADF8D1
:100A20000400681E80B2ADF800000020ADF806009A
:100A3000ADF802006946084800F030F90121064887
:100A400000F00CF801221146034800F01EF90121C4
:100A5000014800F009F83EBD00080040CA43028288
:100A60007047CA430282704721B1028842F00102F6
:100A7000028004E002884FF6FE731A40028070473D
:100A800010B504466848844208D10121C014FFF71C
:100A900077FD0021E014FFF773FDC4E0B4F1804F4F
:100AA00008D101210846FFF74BFD00210120FFF787
:100AB00047FDB8E05D48844208D101210220FFF7DC
:100AC0003FFD00210220FFF73BFDACE05848844287
:100AD00008D101210420FFF733FD00210420FFF796
:100AE0002FFDA0E05348844208D101210820FFF7E0
:100AF00027FD00210820FFF723FD94E04E488442A3
:100B000008D101211020FFF71BFD00211020FFF765
:100B100017FD88E04948844208D101212020FFF7D1
:100B20000FFD00212020FFF70BFD7CE044488442AC
:100B300008D101214014FFF723FD00216014FFF7C5
:100B40001FFD70E03F48844209D10121C804FFF72E
:100B500017FD00214FF40020FFF712FD63E03A4833
:100B6000844209D101210805FFF70AFD00214FF455
:100B70008010FFF705FD56E03448844209D1012179
:100B80004805FFF7FDFC00214FF40010FFF7F8FCCB
:100B900049E02F48844208D101214020FFF7D0FCD2
:100BA00000214020FFF7CCFC3DE02A48844208D1D8
:100BB00001218020FFF7C4FC00218020FFF7C0FC4A
:100BC00031E02548844208D101218015FFF7B8FCA7
:100BD0000021A015FFF7B4FC25E02048844209D18C
:100BE00001210804FFF7CCFC00214FF48030FFF70F
:100BF000C7FC18E01A48844209D101214804FFF7D4
:100C0000BFFC00214FF40030FFF7BAFC0BE01548A1
:100C1000844208D101218804FFF7B2FC00214FF47F
:100C20008020FFF7ADFC10BD002C01400004004007
:100C300000080040000C004000100040001400407C
:100C400000340140004C014000500140005401407C
:100C500000180040001C00400020004000400140FF
:100C6000004401400048014030B502460020002306
:100C70000024158A05EA0103958905EA010413B1E8
:100C80000CB1012000E0002030BD1AB183890B4374
:100C9000838102E083898B4383817047002202882D
:100CA0001D4B98420ED01D4B98420BD0B0F1804F97
:100CB00008D01B4B984205D01A4B984202D01A4BD1
:100CC000984204D14FF68F731A404B881A43174B42
:100CD000984207D0164B984204D04FF6FF431A4073
:100CE000CB881A4302808B8883850B8803850A4B47
:100CF00098420BD0094B984208D00E4B984205D031
:100D00000D4B984202D00D4B984201D10B7A0386CD
:100D10000123838270470000002C01400034014011
:100D20000004004000080040000C0040001000409B
:100D300000140040004001400044014000480140D0
:100D400008B54FF4A060FFF7DFFB1E208DF8000010
:100D500000208DF801008DF8020001208DF80300BD
:100D60006846FFF799FB08BD08B525208DF80000FF
:100D700000208DF801008DF8020001208DF803009D
:100D80006846FFF789FB08BD2DE9F05F05460E4672
:100D9000300100F0F3FB8146364905FB01F000F01D
:100DA000EDFB8246494600F007FB0746384600F057
:100DB000C5FB84B2204600F0E1FB8346394600F0D3
:100DC000BDFC82464FF0834100F0ECFB814600F011
:100DD000B5FB80464FF6FF7000EA041404EB0800F0
:100DE00084B22548806940F00400234988610846A0
:100DF000806940F4804088612048006820F47F606A
:100E00001E4908600846006840F40B6008601A48F4
:100E1000C06840F480401849C8600846C06820F4A3
:100E20008040C86016480480001D008842F20C0112
:100E300008431349091D08800846008840F4807063
:100E400008800846008840F020000880FFF78CFFEB
:100E500000200C49088048807F2088800A488860EC
:100E600000200A49088048807F20888008488860E0
:100E7000BDE8F09F40420F0000100240040801400E
:100E8000083801403C000020D40000204800002029
:100E90005400002010B5044600BF4021084800F06F
:100EA000D8F80028F9D02146054800F0A0F900BF85
:100EB0004021034800F0CDF80028F9D010BD000013
:100EC0000044004010B540F22771164800F0CEF8FB
:100ED00090B1154800F096F904462146114800F0FB
:100EE00086F9114800F087F9D8B9002240F227713D
:100EF0000C4800F0E5F814E040F22551094800F0F4
:100F0000B5F870B140F22551064800F087F8054861
:100F100000F068F90549087008460178044800F0B7
:100F20007BF910BD003801403C0000203400002057
:100F30004800002008B54FF4A060FFF7E5FA26202E
:100F40008DF8000001208DF801008DF802008DF869
:100F500003006846FFF7A0FA08BD000010B540F294
:100F60002551094800F082F838B1074800F03AF9F5
:100F7000C4B22146054800F03AF940F22551024832
:100F800000F04CF810BD0000004400400038014063
:100F900010B586B0044601210520FFF7E1FA0121D2
:100FA0004804FFF7BDFA0420ADF8140018208DF8AE
:100FB000170003208DF8160005A91648FFF761F900
:100FC0000820ADF8140004208DF8170005A9114879
:100FD000FFF757F901940020ADF80800ADF80A00BA
:100FE000ADF80C00ADF810000C20ADF80E0001A912
:100FF000094800F08BF8012240F22551064800F024
:101000005FF80121044800F018F8AA20FFF742FF1A
:1010100006B010BD000801400044004010B5002299
:10102000002340F66A14A14200D100BF0A12012435
:101030009440A3B2DC43048010BD21B1828942F404
:101040000052828104E082894DF6FF731A4082814A
:10105000704702460020B1F5007F00D100BF138821
:101060000B400BB1012000E00020704770B5024634
:10107000002400230025002040F66A16B14200D16A
:1010800000BFC1F3421501F01F03012606FA03F366
:10109000012D02D19689334006E0022D02D1168A35
:1010A000334001E0968A33400C12012606FA04F41C
:1010B0001688344013B10CB1012000E0002070BD4F
:1010C000F0B50346002400260025002040F66A17EC
:1010D000B94200D100BF1846C1F3421401F01F0607
:1010E000012707FA06F5012C01D10C3004E0022C8F
:1010F00001D1103000E014301AB107682F430760A7
:1011000002E00768AF430760F0BD00002DE9F0473B
:1011100086B005460E460024A24600BFA146002721
:10112000B08900B100BF2F462C8A4CF6FF700440F6
:10113000F08804432C82AC894EF6F3100440B0884A
:1011400031890843718908430443AC81AC8A4FF666
:10115000FF400440B0890443AC8201A8FFF720FAA5
:101160001F48874202D1DDF810A001E0DDF80CA095
:10117000A88900F4004040B10AEBCA0000EB0A1055
:1011800031684900B0FBF1F807E00AEBCA0000EB58
:101190000A1031688900B0FBF1F86420B8FBF0F068
:1011A00004012009642101FB1089A88900F4004092
:1011B00040B1322000EBC900B0FBF1F000F00700B5
:1011C000044308E0322000EB09106421B0FBF1F089
:1011D00000F00F0004432C8106B0BDE8F08700004A
:1011E0000038014001468888C0F308007047C1F309
:1011F000080282807047014608884A88801A8A88D7
:101200001040704701464A888B881A408B68985C6A
:101210004A88521C4A807047028883881A40836833
:1012200099540288521C0280704700BFFEE70146B5
:1012300000BF704700B585B06846FFF7B1F90449B3
:101240000098B0FBF1F00349086005B000BD000054
:1012500040420F00280000200920FFF747FBFFF75E
:10126000E9FF204800684FF47A72B0FBF2F1B1F167
:10127000807F00D31DE021F07F40401E4FF0E02230
:10128000506150170F22002807DA13071D0E164B66
:1012900000F00F04241F1D5503E013071C0E134B11
:1012A0001C5400BF00204FF0E02290610720106125
:1012B00000BF4FF4E1310E480078FFF765FD4FF4B1
:1012C0001640FFF765FEFFF76BF8FFF7D3F94FF411
:1012D0007A7107480078FFF797FBFFF7D4F800BF53
:1012E000FEE700000000002018ED00E000E400E050
:1012F0003800002090EA010F48BF81F0004100F162
:101300002E82421A3CBF801A89184FEAD0524FF001
:101310007F4C1CEA410FA2EBD15318BF9CEA026F2D
:1013200000F03B804FF0004C4CEA00204CEA0121D9
:1013300021FA03FC10EB0C0C1ED202F1FF325FEA23
:101340001C2040EBC25038BF70471CF07F0F4FEAA3
:10135000400C18BFBCF17F4F38BF7047C3F120036A
:10136000994008BF20F00100BCF17F4F38BF7047A3
:10137000A0F1C04000F0DDB94FEA3C00000A40EBAC
:10138000C25028BF1CF0FF0F4FEA400CE6D018BF38
:10139000BCF17F4F38BF7047EAE79CEA026F05D087
:1013A00010EA5C0F08BF00F00040704710B500F075
:1013B0007AF900BF64FBBE3E4FF47F0C1CEAD012EA
:1013C0001EBF1CEAD11392EA0C0F93EA0C0F00F037
:1013D000858090EA010F48BF42F4807240F4000C0F
:1013E00041F400002CF07F4120F07F4000B58142A5
:1013F000A2EB03020FF2081CACEB504EC0F1000050
:101400009EF800E04FEA4E0E00FB0EFC38BF49008C
:101410004FEA2C1C02F5FA020CFB0EF34FEACE1E2B
:101420004FEA112C4FEAC1210EEB635E42EB2242E0
:101430000EFB0CFC4FEA1C5300FB03114FEA112C6E
:101440004FEA01310EFB0CFC4FEADC4C00FB0C11A7
:10145000C14228BF09184CEB03335DF804EB10EBD5
:10146000410143EBC250B2F57C0F38BF704729D51C
:1014700012F0F00F1CBF00F1C04000F000407047B8
:10148000008182838485868788898B8C8D8E8F915D
:101490009293959697999A9C9D9FA0A2A3A5A7A881
:1014A000AAACAEB0B2B3B5B7B9BCBEC0C2C5C7C9AD
:1014B000CCCED1D4D7D9DCDFE2E6E9ECF0F3F7FA11
:1014C000FE0000004FEA400C0CF1807CBCF17E4F26
:1014D00028BF7047B0F1C04000F02BB990EA010F6F
:1014E0000CEAD11348BF42F48072624538BF6345AD
:1014F00007D213F47F0F16D080EA010000F00040FD
:10150000704710B500F0CFF8097EFC3E00F005B83A
:1015100080EA010000F00040704780EA010000F01E
:10152000004000F006B912F47F0F04BF0248704774
:1015300080EA010000F0FDB80000C07FC10DD1F1CC
:101540009E0206DB4FEA002343F0004323FA02F039
:101550007047004207D54FEA4001B1F1FE4F02D279
:101560004FF00000704710B500F09DF849922480BC
:10157000002070476FEA200070470000B0FA80F347
:1015800010FA03F2C3F19D030AD0D90501EB122032
:10159000530638BF704700F1010008BF20F001007A
:1015A000704700004FF47F0C1CEAD0121EBF1CEAEB
:1015B000D11392EA0C0F93EA0C0F00F0478090EAE7
:1015C000010F48BF42F480724FF0004C4CEA0020FB
:1015D0004CEA012102EB0302A0FB0113A2F5000279
:1015E000002918BF43F001035B0028BF4FEA330313
:1015F00042EB22425FEA132C4CEBC2502EBFBCEBF5
:10160000436FB2F57C0F70474FEA036CBCF1004F9B
:1016100008BF20F00100B2F57C0F38BF70470BD532
:1016200082F0FF0212F5803FC8BF704700F1C04052
:10163000D8BF00F00040704700F5000C5FEA4C0C8A
:1016400048BF7047B0F1C04000F073B890EA010F96
:101650000CEAD11348BF42F48072624538BF63453B
:1016600004D280EA010000F00040704710B500F09D
:101670001AF800BF8900013E00F007B800F009B871
:101680005FEA410C5FEA1C6C08D080EA010000F0C0
:1016900050B85FEA400C5FEA1C6CF6D14FF0004096
:1016A000A0F5800070470EF1020E2EF0030E5EF8DA
:1016B000044B244204D44FEA4102B2F17F4F11D8C7
:1016C0004FEA4003B3F17F4F0CD80ED14FEAD07CE4
:1016D000B2F17F4F0CEB4C0C0CF1020C08BF4CEB41
:1016E000D17C04E04FF0080C01E04FEAD17C0CEB18
:1016F0004C0324FA03F404F00704B4F1040C06D2FA
:101700000EEB840CBDE810404CF0010C6047DFE8A4
:101710000CF0070802024FF00040A0F5800010BD59
:101720000846420018BFD2F1807288BF00F0004026
:1017300010BDFF2141EAD050C005704780F0004045
:1017400090EA010F7FF5DDAD81F0004100F007B8B0
:1017500090EA010F48BF81F000413FF5D2AD421A37
:1017600004D882F00042A0EB020011444FEAD052AC
:101770004FF07F4C1CEA410FA2EBD15318BF9CEAFB
:10178000026F4AD04FF0004C4CEA00204CEA012195
:1017900021FA03FCB0EB0C0C0FD412F0FE0F36D084
:1017A0005FEA4C001DD5001240EBC25038BF7047B5
:1017B0001CF03F0F18BF70470BE0A2F101025FEA77
:1017C0001C2040EBC25038BF70471CF07F0F18BF81
:1017D0007047C3F12003994014BF401E20F0010060
:1017E000704780084FEA122308BF7047B0FA80FCA8
:1017F000A2EB0C02CCF1280C60FA0CF093EA122F49
:1018000004BF00EBC25070474FEAC3707047130A21
:101810005FEADC1008BF7047F6E79CEA026F04D06D
:1018200010EA5C0F08BF0020704710B5FFF73BFFC0
:1018300040DFF63E81F00040704700005C18000871
:10184000000000203C0000006C010008981800080F
:101850003C0000207C0700008801000800A24A0428
:101860000000000000000000010203040607080950
:101870000000000001020304010203040607080936
:101880000204060800000000000000000000000044
:08189000000000000000000050
:04000005080001CD21
:00000001FF
