:020000040800F2
:10000000582900206501000895440008893C000833
:1000100045440008210F0008E95D000800000000C9
:10002000000000000000000000000000DF4B00089E
:100030002F11000800000000B7440008D951000843
:100040007F0100087F0100087F0100087F01000890
:100050007F0100087F0100083111000837110008F6
:100060003D1100087F0100087F0100087F010008A2
:10007000E1100008ED1000087F0100087F01000872
:100080007F0100087F0100087F010008310F000890
:10009000250F00087F0100087F0100087F0100088C
:1000A0007F0100087F0100087F0100087F01000830
:1000B0007F010008AD520008B95200087F01000816
:1000C0007F0100087F0100087F0100087F01000810
:1000D0007F0100087F0100087F010008DD5D000846
:1000E0007F0100087F0100087F0100080000000078
:1000F0000000000000000000000000000000000000
:100100000000000000000000C55200087F01000848
:10011000995A00087F0100087F0100087F0100084C
:100120007F0100087F010008F91000087F01000826
:100130007F01000800000000000000007F010008AF
:100140003D0F00087F0100087F0100087F010008C3
:10015000DFF80CD000F044FC004800475D63000865
:10016000582900200648804706480047FEE7FEE77A
:10017000FEE7FEE7FEE7FEE7FEE7FEE7FEE7FEE757
:1001800059520008510100082DE9F05F0546002092
:1001900092469B4688460646814640241BE02846F8
:1001A00041464746224600F020F853465A46C01AB8
:1001B000914110D311461846224600F00BFB2D1A30
:1001C00067EB01084F4622460120002100F002FBA8
:1001D00017EB00094E41201EA4F10104DFDC484664
:1001E00031462A464346BDE8F09F202A04DB203AE8
:1001F00021FA02F00021704721FA02F3D040C2F147
:100200002002914008431946704740EA01039B07CA
:1002100003D009E008C9121F08C0042AFAD203E07B
:1002200011F8013B00F8013B521EF9D27047F0B4BF
:1002300080EA0102D40F4200B2EB410F02D2024623
:10024000084611464A0042D0C30DDDB2C1F3C75281
:10025000AD1A202D35DAC1F3160141F4000204B1C4
:100260005242C5F1200602FA06F12A411044B3EBCE
:10027000D05F23D0C4B1012DA0EBC35009DCF0BC8A
:100280004FF0004202EAC352DBB200F5000000F07A
:10029000CBBA400000F1807000EBC350A0F1807039
:1002A00040EAD170490009E0490841EAC071A0EB79
:1002B000C35000F50000400800EBC350F0BC00F054
:1002C000AABA6142012202EB4101001BF6E7F0BC31
:1002D000704781F00041AAE780F00040A7E780EA7C
:1002E000010210B502F00043400022D04A001FD0A6
:1002F000010E01EB1261C0F35600C2F3560240F446
:10030000000042F40002A0FB022000047F39140424
:1003100000D0401C50EA124001D44000491EC2B235
:100320000C0604EBD010401C4008802A02D003E0E9
:10033000002010BD20F00100002900DA0020184341
:1003400010BD30B480EA010202F0004530F00042F6
:1003500021F0004013D090B1C30DD40DC2F31601AB
:10036000C0F31600E41A41F4000140F400027D34A9
:10037000914201D3641C00E04900002C02DA30BC39
:10038000002070474FF400000023914201D3891AE6
:10039000034340084FEA4101F7D151B1914202D1E4
:1003A0004FF0004105E002D24FF0010101E06FF093
:1003B000010103EBC450284430BC00F02CBA4200C9
:1003C00005D0C0F3C7525242914201DC0020704771
:1003D00000EBC15070472DE9FE4F804681EA0300D3
:1003E000C00F0C46009021F0004123F00045B8EB0F
:1003F0000200A94105D24046214690461C460B46C4
:10040000024623F00040104347D0270DC7F30A00EF
:10041000C3F30A510290401A019040286BDAC3F3EB
:10042000130040F4801B0098924620B10023D2EBC9
:10043000030A63EB0B0B01985946C0F1400250468A
:1004400000F0C8F906460D4650465946019A00F09C
:10045000D0F910EB08006141002487EA115284EAC8
:10046000E7731A4340D0009A62B3019A012A4FEA17
:10047000075215DC001B61EB02014FF0004202EA5B
:100480000752CDE90042001C41F5801132462B464F
:1004900000F007FA03B0BDE8F08F40462146F9E7C7
:1004A000001B61EB0201001C41F5801300185B4149
:1004B0002018A2F5001747EB030140EAD570B619E2
:1004C0006D4111E06D084FEA360645EAC0754FEA06
:1004D0000752001B61EB0201001C41F58011490825
:1004E0004FEA30000019514132462B4603B0BDE8B7
:1004F000F04F00F0C7B90098012240000023D0EB74
:10050000020263EBE073009821464FEAE074B8EB17
:10051000000061EB0401E9E783F000435BE781F051
:10052000004158E72DE9FE4F81EA030404F000443E
:1005300021F0004100944FF0000B23F0004350EAFB
:1005400001045ED052EA03045BD0C3F30A54C1F342
:100550000A552C44A4F2F3340194A0FB0254C1F3D5
:10056000130141F48011C3F3130343F4801301FB1F
:10057000024400FB034E840A970A44EA815447EA86
:100580008357A4FB076802958D0A05FB07854FEA90
:10059000932C04FB0C542705029D4FEA065847EAAA
:1005A0001637B5EB08056EEB070C870E920E47EA7F
:1005B000811742EA8312A7FB0201B6EB0B0164EB41
:1005C00000042B0D43EA0C335E1844EB1C50DA4652
:1005D0005146E7FB0201C5F313044FEA0B3343EA2C
:1005E00014534FEA0432019C43EA0603A4F10C04BD
:1005F0000294009CCDE900B400F053F903B0BDE8CB
:10060000F08F00200146F9E72DE9F04D81EA03045F
:1006100004F0004B21F0004514464FF0000A23F08F
:10062000004150EA050220D054EA01021DD0C5F372
:100630000A570246C5F31303C1F31300C1F30A5668
:1006400040F4801543F48013A7EB0608101BD64630
:1006500008F2FD3873EB050002D308F1010801E050
:1006600092185B41B8F1000F03DA00200146BDE8A3
:10067000F08D00204FF48011064684460EE0171BD3
:1006800073EB050705D3121B63EB050306434CEA26
:10069000010C49084FEA300092185B4150EA01070B
:1006A000EDD152EA030012D082EA040083EA050188
:1006B000084305D0101BAB4106D20122002306E0FF
:1006C00000224FF0004302E06FF0010253101AEBDA
:1006D00006004CEB085110EB0A0041EB0B01BDE8A2
:1006E000F04D00F0CFB8C10F80EAE0700844CA07AF
:1006F0009623002100F098B896230022114600F0BE
:1007000093B80EB540F2334102910021CDE90011BA
:100710000A460B4600F0C5F803B000BD00F00042E9
:1007200020F00040C10DC0F3160040F400007F2906
:1007300001DA00207047962903DCC1F19601C84018
:1007400001E096398840002AF4D04042704700F01A
:10075000004230F000400AD0C10D01F56071C0F3D5
:10076000160042EA0151C2084007114370470020B9
:100770000146704701F0004330B421F0004150EAD7
:10078000010206D00A0DA2F56072C1F31301002A1E
:1007900002DC30BC00207047440F44EAC104C100B1
:1007A000E01830BC00EBC25000F035B8002801DB87
:1007B000C0F10040002901DBC1F1004181427047D6
:1007C000002801DBC0F10040002901DBC1F100413C
:1007D00088427047202A04DB203A00FA02F1002008
:1007E00070479140C2F1200320FA03F3194390406F
:1007F0007047202A06DBCB17203A41FA02F043EA81
:10080000E07306E041FA02F3D040C2F120029140C9
:100810000843194670470029A8BF7047401C49008B
:1008200008BF20F00100704710B4B0FA80FC00FA55
:100830000CF050EA010404BF10BC704749B1CCF180
:10084000200421FA04F411FA0CF118BF012121430C
:100850000843A3EB0C01CB1D4FEA00614FEA1020C7
:1008600042BF002010BC704700EBC3501044002969
:10087000A4BF10BC7047401C490008BF20F0010015
:1008800010BC704710B5141E73F1000408DA401C48
:1008900041F1000192185B411A4301D120F001009F
:1008A00010BD2DE9F04D92469B4611B1B1FA81F28F
:1008B00002E0B0FA80F220329046FFF78BFF044648
:1008C0000F4640EA0A0041EA0B0153465A460843E4
:1008D00013D0114653EA010019D0C8F14002504626
:1008E000FFF783FC05460E46504659464246FFF741
:1008F00071FF084305D0012004E020463946BDE8D9
:10090000F08D0020054346EAE0762C4337430A98F1
:100910006305E40AA0EB08000022FD0A44EA4754FC
:100920000A3002D500200146E9E7010510196941A6
:10093000DDE9084500196941BDE8F04DA2E72DE960
:10094000F04D00231A461B1A8A4103DB00200146A2
:10095000BDE8F08DC1F30A52C1F3130141F48015D3
:100960004FF0000BD10702D100186D41521E002735
:10097000044640F2FF11384601EB620A3E468046CB
:10098000024600204FF48011FFF72FFCC21971417D
:10099000BB1846EB0100B4EB030C75EB000C04D361
:1009A000E41A65EB000517460E46241908F101000C
:1009B0006D4180463428E3DDF91946EB0600091B3A
:1009C000A84103D24FF0FF32134601E00022134644
:1009D0001BEB070046EB0A51BDE8F04DFFF752BF95
:1009E000064C074D06E0E06840F0010394E807007C
:1009F00098471034AC42F6D3FFF7AEFB68650008A9
:100A00008865000830B58C1810F8012B12F00F0320
:100A100001D110F8013B120906D110F8012B03E0B7
:100A200010F8015B01F8015B5B1EF9D101E001F8F0
:100A3000013B521EFBD1A142E6D3002030BD70B570
:100A400004460E4681F000450068FFF7B9FE00D26B
:100A5000266028462168FFF7B3FE00D2256070BDEE
:100A600070B504460E4681F000450068FFF7A8FE09
:100A700000D2266028462168FFF7A2FE00D225603A
:100A800070BD0000F0B51E4C1C4F0026A58B07F171
:100A9000C80C23B1322A19D306600E60F0BDE28B78
:100AA000521C92B2A2F51C53E283103B00D1E683A4
:100AB0006D1CAAB2A283322A00D1A6830268A08B41
:100AC00047F8202009684CF82010F0BDAA4206D251
:100AD000AA1A57F8223003605CF822000BE0C2F13A
:100AE00032022A4407EB820353F8043C03600CEB08
:100AF000820050F8040C0860F0BD000018090020C6
:100B0000E0000020F0B51E4B1E4D00269C89DF8AB8
:100B10001AB1012A18D000202CE0198B42F2107271
:100B2000914202D2491C198300E01E837F1CB9B296
:100B3000D982A14204D1DE824FF07E51C5F8C8109F
:100B4000D98A45F8210001E0A14201D30020F0BD7F
:100B5000B94203D2781A55F82000F0BD601A384423
:100B600005EB800050F8040CF0BD00BF45F8206094
:100B7000401C80B2A042F9D3C5F8C860DE82E5E728
:100B8000E0000020700D00202DE9F04FCF4CD14D3A
:100B9000CF4F87B094F894603946A868FFF747FBB9
:100BA0006968052E2FD0062E2DD0042E2BD0206361
:100BB0004FEA0700FFF78DFBC749002360631A4621
:100BC000A1F5E670FFF75EFFA87B30B1C348D4F80B
:100BD0008010FFF7B6FBC4F8840094F8D100A8B1E8
:100BE000BF4801278246287BA946042810D0BD4D66
:100BF00042F21071DFF8F082286C002688420CD295
:100C0000401C28640AE02063B848D3E7B848E8E706
:100C100084F88C7007B0BDE8F08F2E64A16B206B58
:100C2000FFF7C4FD04D1E16B606BFFF7BFFD7BD024
:100C300084F88870286C8346B0F5C87F75D299F81F
:100C40000E00FFF759FDAB49FFF749FBC4F88000E0
:100C50005846FFF751FD8346E16B606BFFF739FBA8
:100C60005946FFF76EFBA449FFF739FBA066D8F899
:100C7000D411686CFFF79AFD16D2D8F8D401696CCC
:100C8000FFF727FB9D4983468842286C04DAFFF76B
:100C900033FD0146584624E0FFF72EFD04905846E8
:100CA0009749FFF716FB1BE0D8F8D4110091686C48
:100CB0000590FFF70EFB914983468842286C08DABD
:100CC000FFF71AFD834605990098FFF702FB594686
:100CD00007E0FFF711FD049058468949FFF7FCFA39
:100CE0000499FFF72EFB8449FFF7F9FA6066D8F8FC
:100CF000D8116166A06EFFF79AFA824A20F000418F
:100D0000E066914203DA00221146FFF7FBFEA98953
:100D10007D4800F08DFD7C492067D1F8C810B1F105
:100D20007E5F03D0E66727E033E029E0616FFFF7DD
:100D30003DFD05D2A989744800F0DCFBA06708E0FE
:100D4000002102220846A667FFF7DCFEA66666665B
:100D5000E6665146D4F88000FFF7F3FA6B49FFF7D7
:100D600066FAA16FFFF7BBFA6949E067884202DCC7
:100D70006849884200D9E167D8F8D401686407E07F
:100D8000002102220846FFF7BDFEA6666666E666FB
:100D90002E6499F80E004FF6FF79B8B1D4E90C0132
:100DA00003F090F858B9E16F606BFFF740FA616C9F
:100DB000FFF73DFA0146206B03F084F810B1AF71E4
:100DC000EE6309E0C5F83C90AE710FE0A879012808
:100DD00005D1E96B494502D2E86B401CE863E86B3A
:100DE000B0F5967F02D284F88B6002E084F88B70B5
:100DF000AE7194F88900012818D1474DB5F9120059
:100E0000FFF771FCDFF814914946FFF768FA216C8F
:100E1000FFF762FA2064B5F91000FFF764FC494659
:100E2000FFF75DFA616CFFF757FA606494F88A0087
:100E3000012801D12664666494F89400032808D040
:100E4000022806D0052826D0062824D0042822D03F
:100E500029E088F8987394F888004546012822D143
:100E60000123002203A902A8FFF70CFE216B0298C0
:100E7000FFF7DDF9216CFFF7DAF96861616B039820
:100E8000FFF7D5F9E16FFFF7D2F9616CFFF7CFF902
:100E9000C5F8E00105E0216BC8F81410616BC8F8D3
:100EA000E01184F8886094F89400012801D00328A8
:100EB00003D194F88B0038B1267004481830D0E97B
:100EC0000612C0E90812A5E62770F6E7700B0020AD
:100ED000CDCC4C3E48210020240700200000F040EB
:100EE0000000D841E000002050050020333333BF1C
:100EF0000000A0410AD7A33C00007A44000034431C
:100F00000000B4430000C842700D0020CDCC4C3D21
:100F100000002041000020C1E42000206F12833B2C
:100F2000FEE70000014800F0FBBD0000CC010020FE
:100F3000014800F0F5BD0000CC010020014800F0A0
:100F4000EFBD00001002002000B58BB0002101228F
:100F5000CDE90612039108920E4A05910091019184
:100F600002910491904205D10991A2F1800101639F
:100F70001C31416307494431884206D10E21099151
:100F80000449403901631C314163694600F04EFD5C
:100F90000BB000BDCC01002010B5002958D0826BE9
:100FA0004FF4D873046803EB0113E45814F00404FD
:100FB00094600468E4584DD0E40854600468E35831
:100FC00003F00203D3604FF4DA73046803EB0113F8
:100FD000E45804F00F04146111620468E358C3F389
:100FE0000723D3614FF4DC73046803EB0113E45867
:100FF00014750468E458240A54750468E458240CF1
:1010000094750468E3581B0ED3754FF4DE730468BF
:1010100003EB0113E45814760468E458240A547668
:101020000468E458240C94760468E3581B0ED376C5
:101030000368202289B11A610268536923F05003C2
:10104000536190F83C20222A0DD0322A0BD00FE0B9
:10105000426BA5E7640D1460B0E7DA60026853697B
:1010600023F00A03ECE70268536923F40F4353614A
:1010700012220123002990F83C1006D0522915D0E5
:10108000622916D0722906D115E042290ED06229B4
:1010900008D0722908D080F83C3000BF00F0E6FF8D
:1010A000002010BD322107E0522105E080F83C20ED
:1010B000F4E7222100E0422180F83C10EEE7000036
:1010C000054890F8F811054819B140F24C4101600B
:1010D000704740F6E801FAE7700B0020402C014011
:1010E000014801F057BA00005C040020014801F0FB
:1010F00051BA000018040020014801F04BBA00006A
:10110000D403002030B590F840500124AC40C56BAA
:101110006C60046863604368102B036803D09960B7
:101120000068C26030BD9A600068C16030BD704721
:10113000012001F0DBBB022001F0D8BB042001F04C
:10114000D5BB0000164810B490F8D0301549012BDB
:101150000BD14A8C4FF6FF74A24206D2521C92B2B7
:101160004A84B2F5FA6F02D303E000224A840221D6
:101170008170012B02D04FF47A710AE090F8D110FF
:1011800011B1012903D007E04FF4966101E040F26C
:10119000055120F8D21F418010BC00F005B80000B6
:1011A000700B0020E000002070B52148418A491CE6
:1011B00089B2A1F51C524182103A01D1002141822D
:1011C0001C4C818A40F6B832251D4FF47A73914247
:1011D00003D2491C81822B6025E01749466BB1F888
:1011E000D220B24201DD761C4663B24201DA761E9D
:1011F00046639E4201DA2B6000E02E60B51A002D96
:1012000001DC32445542052D0EDAB1F8D420816B51
:101210008A4201DD491C81638A4201DA491E8163E9
:101220000846994201DA236070BD206070BD00005D
:10123000E0000020382C0140700B00202DE9F04127
:101240001546DDE91014DDE90B06C1F3072101297C
:1012500014D01C4FDFF87080280C4FF000061BD014
:10126000FFF74FFA00223B46FFF756F900224346AC
:10127000FFF7CAF9FFF77EFA60600EE0C0F307419E
:10128000A1EB1060FFF72FFA6060C6F30720F1B200
:10129000401AFFF728FA0FE066602804000C0ED011
:1012A000FFF72FFA00223B46FFF736F900224346AC
:1012B000FFF7AAF9FFF75EFAA060BDE8F081A6602B
:1012C000FBE700000000904000A084402DE9F041C1
:1012D0001B4F119CDFF86C800D46080C4FF0000688
:1012E00011D0FFF70EFA00223B46FFF715F9002256
:1012F0004346FFF789F90022134BFFF713F9FFF775
:1013000039FA206000E026602804000C11D0FFF7B5
:10131000F8F900223B46FFF7FFF800224346FFF7AB
:1013200073F90022094BFFF7FDF8FFF723FAE0609D
:1013300000E0E66020686060E0682061BDE8F08160
:101340000000904000A084400000394000004EC0E2
:1013500070B50446B0F89800401C80B2A4F898001C
:10136000092815D90020A4F89800B4F99C60002E33
:101370000FDD54F8900F0849FEF7B1FF05463046DF
:10138000FFF7B1F92946FEF7A4FFFFF7C7F9A081DF
:1013900070BDA4F89C0070BD000020412DE9F04113
:1013A0000446B0F89A000026401C80B2A4F89A00C7
:1013B000092818D9A4F89A60B4F99E50002D10DDC0
:1013C0001149D4F89400FEF78AFF07462846FFF734
:1013D0008AF93946FEF77DFFFFF7A0F9A4F89E00D1
:1013E00001E0A4F89E60B4F99E10B4F88E0081422A
:1013F00003DDA4F8A660BDE8F081401A34F8A21F0E
:1014000090FBF1F0A080F6E7000020412DE9F041CB
:101410000D46044690F8891001260020012911D0BC
:1014200089B302290CD1A4F88200B4F88410491CB5
:1014300089B2A4F88410FA2902D324F8840F6071C9
:10144000BDE8F081B4F88210491C89B2A4F882107A
:10145000A4F88400B1F5FA7F19D2D5F898104FF4AA
:101460000003994201DA81F00041204A91420BDAEF
:10147000D5F81C11994201DA81F00041914203DA5A
:1014800084F88900DCE707E084F88960D8E724F86D
:10149000820F0220E071D3E7A4F88200A4F8840050
:1014A00094F888000128CBD1B4F99E00B4F8A210BA
:1014B0000844B4F88E108842C2DAA4F89E0054F8AA
:1014C000780F0B49FEF73DFFE96AFEF705FF074677
:1014D000E862688BFFF710F96FF00C01FEF76FFF01
:1014E0003946FEF7A4FE68636674A9E70000204150
:1014F0000000B4432DE9F04100250E4607462C4676
:1015000008E000BF57F824102846FEF790FE641C40
:101510000546A4B2B442F5D33046FFF7EDF80146D4
:101520002846BDE8F041FEF70CBF42780021012AB1
:1015300000D101218278012A01D141F00201C27853
:10154000012A01D141F004010279012A01D141F0BF
:1015500008014279012A01D141F010018279012A62
:1015600001D141F02001C279012A01D141F04001AD
:10157000027A012A01D141F0800101707047000018
:101580000E4902220B790021012B03D000F8501FD5
:1015900042707047437F012B02D0022B0AD006E035
:1015A000074B93F8343006E080F85020704780F8FD
:1015B00050107047037F012BF9D1F5E71805002083
:1015C000E420002070472DE9F041044690F8240003
:1015D0000D466FF00C0700B3686B808A46BAE6824E
:1015E000686BC08A40BA00B2FFF77DF8E060A06087
:1015F000686B008B40BA00B2FFF775F82061686B2A
:101600004FF07E51807E2075208B301AB0F5805FC0
:101610001DDDA06AFEF75DFE1FE094F82500401C6A
:10162000C0B284F82500322803D9012084F82400B0
:1016300009E0486B808A40BAE084FFF75DF83946DC
:10164000FEF7BDFE6063E08C2083BDE8F08110F5FD
:10165000805F03DAA06AFEF7EAFDA0623046FFF77A
:101660004BF805463946FEF7AAFEA76A3946FEF74B
:10167000DEFD20630D213846FEF7A1FE2946FEF768
:10168000D6FDFFF74BF8E0622683DEE710B504468F
:101690000846FFF731F801462046FEF752FE044C9B
:1016A000E168FEF7C4FDE06004F0C8FEE06010BD34
:1016B000B400002010B504460846FFF71DF80146A7
:1016C0002046FEF73EFE044CA168FEF7B0FDA06088
:1016D00004F0B4FEA06010BDB40000202DE9F0417C
:1016E000334C00254FF47A71E068FFF7CFFFC4F860
:1016F000C80104F0A3FEC4F8C801D4F8C00104F086
:101700009DFE0146C4F8C0012A4A94F8B90184F844
:10171000B801126C284F22F00043284A0026BB4231
:1017200007DA13694FF6FF77BB4203D25B1C1361E4
:1017300000E01661224B93F89430052B05D0062B60
:1017400003D0042B01D0072B00D101251269B2F57B
:10175000C87F00D895B184F8B961012808D1A06884
:10176000FEF7B7FDC4F8BC0104F068FEC4F8BC0184
:101770000DB1C4F8BC61D4E96F1010E0012184F808
:10178000B91150B9D4F8C811A068FEF7A2FDC4F889
:10179000C40104F053FEC4F8C401D4E97110FEF78B
:1017A00046FDA06004F04AFEA060BDE8F0810000A4
:1017B000500500200800002000004040B400002038
:1017C000700B002070B504468EB0184803F065F920
:1017D000164D04F11C03281D07C803F026FA04F176
:1017E00020000B90A08BADF8280005F110012822F5
:1017F0000E466846FEF709FD95E80F00FFF71EFD4F
:1018000004F154000B90A08BADF82800282231463B
:101810006846FEF7FAFC95E80F00FFF757FD3822FF
:1018200029466846FEF7F1FC0EB070BDE4200020AA
:101830002DE9F04700270D4606463C4608E000BF6C
:1018400056F824103846FEF7F2FC641C0746A4B292
:10185000AC42F5D32846FEF74FFF82465146384644
:10186000FEF76FFD8046002411E0574656F824002D
:101870004146FEF72EFD0146FEF731FD3946FEF7E3
:1018800060FD4946FEF7D3FC641C8146A4B2AC421D
:10189000EBD34846BDE8F0872DE9F041434C0027E3
:1018A0004FF47A71D4F8D801FFF704FFC4F8940319
:1018B00004F0C4FDC4F89403D4F88C0304F0BEFD16
:1018C0000146C4F88C033A4A94F8850384F88403EB
:1018D000D36B002623F00043364DB3F17F5F03DA6C
:1018E000526B12F0FF4F0DD06E61334A137B527B67
:1018F000934201D1022B0DD0304A92F89420072A4E
:1019000008D008E06A694FF6FF739A42EDD2521C84
:101910006A61EAE701276A69B2F5C87F00D87FB338
:1019200084F88563012809D1D4F8D401FEF7D1FCED
:10193000C4F8880304F082FDC4F88803EFB1287866
:1019400018B9D4F88C03C4F8E001C4F888633146B0
:10195000D4F88C03FEF76BFC1949C4F8D401884213
:1019600004DD1849FEF7B5FCC4F8D40104F066FDA7
:10197000C4F8D4012F70BDE8F081D4E9E21012E080
:10198000FFE7012184F8851358B9D4F89413D4F8EB
:10199000D401FEF79EFCC4F8900304F04FFDC4F898
:1019A0009003D4E9E410FEF742FCDDE75005002087
:1019B00008000020B400002048210020700B002007
:1019C000000034430000B443164A10B59069B0F5E6
:1019D000FA6F02D2401C906121E013480021D0F838
:1019E0009C335B1CC0F89C33642B04D9012380F822
:1019F000B233D1610EE0D3694FF6FF74A34201D236
:101A00005B1CD361322B02D980F8B21307E090F847
:101A1000B22322B18161C0F8E411012010BD002081
:101A200010BD0000B400002050050020F0B50C7D72
:101A3000012303FA04F20468D4F800524E6A25F434
:101A40007C5503EB06231D43C4F800520368D3F80A
:101A50001C429443C3F81C424FF41073CD691C1D03
:101A6000BDB90568D5F80C629643C5F80C628E893D
:101A70004D684F6966F31F45066803EBC707F551CC
:101A80000E890D684F6966F31F45066804EBC707AA
:101A9000F551CD69012D17D10568D5F80C621643B3
:101AA000C5F80C620E884D684F6966F31F450668DD
:101AB00003EBC703F5500D89CB684E6965F31F43EF
:101AC000056804EBC6042B518B69002B0368D3F81F
:101AD000044211D054EA0204C3F804420B69002BFB
:101AE0000368D3F8144209D054EA0204C3F814423C
:101AF000096A012904D009E09443EDE79443F5E72E
:101B00000168D1F81C321343C1F81C320068D0F8C8
:101B1000001221F00101C0F800120020F0BD704752
:101B20002DE9F041044600680026C168C1F30013A6
:101B30004169C1F3C002102113B10AB14E01C16065
:101B4000206802694369C2F30012C3F380131AB11B
:101B500013B146F480660161216848694FF00105C0
:101B6000C043C0074ED18A687648904323D00020F6
:101B70008B68754A9A4320D000228F68734BBB4311
:101B80001DD00023104318433CD088688A68C0F3F6
:101B900040008B68C2F3402203F001031043184356
:101BA00029D04A69204622F001024A6194F83C108B
:101BB000122906D00AE00120DAE70122DDE701233D
:101BC000E0E701684A6922F40F424A6190F83C104C
:101BD000422908D0522908D0722908D080F83C50F8
:101BE00000F03EFC09E0222102E0322100E0622107
:101BF00080F83C10F4E746F4006620688168544A97
:101C0000114381602168C868496910F0030FC1F36E
:101C1000400104D019B100212046FFF7BDF9216829
:101C20000869496910F0030FC1F3001104D019B11C
:101C300001212046FFF7B0F9206C30432064206872
:101C40008169426911F0010F4369C2F30022C3F3B5
:101C5000C03305D022B11BB1216C41F001012164D8
:101C60008169C1F340034169C1F340224169C1F375
:101C7000C0312BB122B119B1216C41F002012164B4
:101C80008169C1F3800341694269C1F38021C2F3D4
:101C9000C0322BB121B11AB1216C41F00401216491
:101CA000816911F0700F08D000224169C1F3C0238F
:101CB0004169C1F3C03112B121E00122F5E7F3B16E
:101CC000E9B1816901F0700140292FD006DC1029AB
:101CD00009D020290BD030290DD123E0502929D05B
:101CE000602908D12AE0216C41F0080102E0216C52
:101CF00041F010012164816921F070018161206C43
:101D000000280DD021680420486084F83C502068E9
:101D1000416948F65B72914341612046FFF7FFFE3F
:101D2000BDE8F081216C41F02001E3E7216C41F036
:101D30004001DFE7216C41F08001DBE7216C41F4D9
:101D40008071D7E7010000040001000800000110C5
:101D5000090501002DE9F04104004FF0000504D011
:101D600094F83C00002618B107E00120BDE8F0819E
:101D700084F83D60204600F083F8022084F83C009F
:101D80002068016821F0020101602068016841F0CB
:101D90000101016000F09EFE07464FF0030804E0D9
:101DA00000F098FEC01B0A2853D820684068C0077E
:101DB000F6D021684868C00758D0A069012801D131
:101DC00045F08005E06901282FD025F04000226A07
:101DD000012A2DD020F02000626A012A2BD020F0A9
:101DE0001000A26A012A29D020F00800E26A012A24
:101DF00027D020F004000A6822F0FC0202430A60A7
:101E0000D4E902010843D4E904121143084361688C
:101E1000491E08432168C8612068016821F001015A
:101E2000016000F057FE054618E045F04000CEE79F
:101E300040F02000D0E740F01000D2E740F008006A
:101E4000D4E740F00400D6E700F044FE401B0A2827
:101E500004D904F83C8F0320667087E72068406847
:101E6000C007F1D120684068C00703D0042084F87F
:101E70003C007AE72664012084F83C00002075E7E6
:101E8000F0B5484B0768DFF818C118680022464CC7
:101E9000022503264549401C85B067453CD11860A2
:101EA000012807D1C86940F00070C861C86900F016
:101EB000007004904FF48070CDE90002694620461E
:101EC000029200F01FFD4FF40070CDE90005694655
:101ED0000396204600F016FD3548416821F4C041C4
:101EE0004160416841F4804141600022012113209A
:101EF00000F0BAFE132000F0ACFE002201211420F5
:101F000000F0B2FE142000F0A4FE002201211520F2
:101F100000F0AAFE15203EE0DFF898C067453CD1EE
:101F2000CF6947F08067CF61CF69012807F08067EC
:101F30000497186007D1C86940F00070C861C8698B
:101F400000F0007004904FF48050CDE90002694623
:101F50002046029200F0D6FC4FF40050CDE9000577
:101F600069460396204600F0CDFC002201213F2067
:101F700000F07AFE3F2000F06CFE0022012140209C
:101F800000F072FE402000F064FE0022012141209A
:101F900000F06AFE412000F05CFE05B0F0BD0000DC
:101FA0000064004004000020000C014000100240CA
:101FB000000001400068004030B511B1012925D072
:101FC00010E090F83C20222A28D090F83C20422AA9
:101FD00024D000BF90F83C20622A1FD090F83C200B
:101FE000722A1BD090F83D20012A17D0012280F8D8
:101FF0003D20622290F83C40722389B1122C19D006
:10200000222C18D0422C19D0322214E090F83C2017
:10201000322A03D090F83C20522ADBD1022030BD76
:10202000122C05D0322C06D0522C07D0222202E0EE
:10203000422200E0522280F83C2001E080F83C304F
:102040000022026403685C6948F601752C435C61F8
:1020500080F83D2000680029416904D041F050011A
:102060004161002030BD41F00A01F9E72DE9F0415E
:10207000754E0021754D0446B0426FD1606B826889
:1020800012B1042A3FD090E00068DFF8C481A0F5C7
:1020900000706FF00C0706381BD0022818D12146BB
:1020A0006C4C201DFFF78FFA94F8280001287CD192
:1020B000608BFEF721FB3946FEF781F94146FEF7BA
:1020C0000EF96549FEF705F904F0B8F9C5F8C00145
:1020D0006BE02146614C201DFFF775FA94F828004B
:1020E000012862D1608BFEF707FB3946FEF767F9DE
:1020F0004146FEF7F4F85A49FEF7EBF804F09EF972
:10210000C5F88C0351E04268564D02F6E942B2F53B
:10211000005202D0012A48D121E0808A40BA00B2A0
:10212000FEF7E1FAC5F8A800646BE08A40BA00B295
:10213000FEF7D9FA4C4F3946FEF703F94B4D68606C
:10214000208B40BA00B2FEF7CEFA3946FEF7F9F816
:10215000A860A07E2873E07EA87326E02CE0444AA5
:102160001160808A40BA00B2FEF7BDFADFF8048140
:102170004146FEF7E6F8404F3864606BC08A40BACB
:1021800000B2FEF7B0FA4146FEF7DBF8F863606B89
:10219000007EFEF7B1FA45F8B80F606BB0F8190091
:1021A00040BAE880606BC07EA8813068416941F028
:1021B00002014161BDE8F081304EB442FAD1606B5A
:1021C0008268B2B3042AF0D1406800F6EB40B0F563
:1021D000005FEAD1C5F89C1300220221284800F0D4
:1021E00074FC646BA08A40BA00B2FEF77CFA254FFB
:1021F0003946FEF7A6F8244D2860E08A40BA00B2BE
:10220000FEF771FA3946FEF79CF86860208B40BAF9
:1022100000B2FEF768FA3946FEF793F8A860608BC3
:1022200040BA00B2FEF75FFA1849FEF78AF8E86094
:10223000BBE7FFE70068A0F500700738B5D121467D
:102240001348FFF7C0F9B0E7CC010020500500208B
:102250000000B443501B002000C0884374190020C4
:1022600000007042700B002000007A4448210020DA
:102270000405002000C0CC4408000020100200200B
:10228000000C01406F1283413C0E00200000C84248
:10229000C01500202DE9F05F0E46016804468868ED
:1022A000400105D48868000102D48868C0006FD559
:1022B00094F83D0001280CD0012784F83D7094F873
:1022C0003C00222808D0322808D062280ED01220E4
:1022D00005E00220BDE8F09F422000E0522084F893
:1022E0003C008868400103D5002507E07220F6E72E
:1022F0008868000101D5012500E002254FF4C07077
:1023000000EB05100A5802F001020A50216B8A689E
:10231000EAB3D4F800C05CF800301343CA684968D7
:1023200042EAC1010B434CF80030216B0A7C02F0F9
:102330000F020A614FF4C271226801EB0511535874
:1023400023F00F03535022685358D4F830C0DCF800
:1023500010C043EA0C035350216B4FF4C47303EBDA
:1023600005130A7DD1F8151042EA01222168CA50EE
:10237000216B4FF4C67303EB05130A7ED1F81910D5
:1023800042EA01222168CA5021680A5801E00DE0A2
:102390005AE042F001020A5000F09CFB81464FF0E7
:1023A0000008DFF8B0A0DFF8B0B026E022681358CC
:1023B000D1F80CC0098843EA0C0343EA415111509B
:1023C000B3E7701C19D02EB100F084FBA0EB09001C
:1023D000B04212D9032084F83C004DB1012D09D040
:1023E0004FF400002168886084F83D80032071E785
:1023F0008020F7E74FF40040F4E7ADB12068012DED
:10240000816816D0154888430028DAD194F83C003A
:10241000422811D0522811D0722813D084F83C7071
:1024200084F83D80002055E7206881682AEA010091
:10243000EAE72BEA0100E7E7222000E0322084F8F7
:102440003C00EDE76220FAE7042084F83C0001201C
:1024500040E7000001000004000100080000011036
:10246000704700002DE9F05F90F821100024022948
:1024700003D004218163012485E001680A6822F009
:102480000E020A6001680A6822F001020A603F4EEB
:102490003E4FB215DFF8F4C0DFF8F090DFF8ECA0A3
:1024A000DFF8E8B0DFF8E4E00168783F13011502D7
:1024B000ACF1640CA9F15009AAF13C0AABF1280B6C
:1024C000AEF1140E4FF48018B14227D9B9420ED0A4
:1024D000614512D049451DD0514518D0594518D0F5
:1024E000714501D1424615E0294EB14201D1012288
:1024F00010E0274E1436B14201D110220AE0244EDA
:102500002836B14206D0224A3C32914201D11A46C5
:1025100000E02A461E49091F0A602BE0B94213D089
:10252000614517D0494522D051451DD059451DD090
:10253000714501D142461AE0B14202D14FF080729A
:1025400015E0134EB14201D1012210E0104E1436B5
:10255000B14201D110220AE00D4E2836B14206D018
:102560000B4A3C32914201D11A4600E02A46074903
:1025700080394A60012180F82110002180F8201064
:10258000416B01B188472046BDE8F09F80000240C2
:10259000080402402DE9F05FC16B0A6801680B680E
:1025A000046C4FF0040808FA04F8844D844E854FFB
:1025B000DFF814C2DFF81492DFF814A2DFF814B2C7
:1025C000DFF814E218EA020F65D05FEA437862D5BB
:1025D0000A68920603D40A6822F004020A60DFF84F
:1025E000F0814FF48062016808F1140813011402AD
:1025F000414524D9A9420DD0B1420FD0B9421AD0D9
:10260000614515D0494515D0514501D1120312E05D
:10261000594501D104220EE0714501D140220AE062
:102620006D4D1435A94206D06B4A2832914201D132
:102630001A4600E022466749091F0A6029E0A942BC
:1026400013D0B14215D0B94220D061451BD04945C5
:102650001BD0514502D14FF4800217E0414502D111
:102660004FF0806212E0594501D104220EE071451D
:1026700001D140220AE0584D1435A94206D0564AED
:102680002832914201D11A4600E022464B490839CE
:102690004A60C16A71E04FF0020808FA04F818EACB
:1026A000020F70D05FEA83786DD50A68920606D46F
:1026B0000A6822F00A020A60012180F82110DFF87E
:1026C00010814FF40072016808F11408130114021C
:1026D000414524D9A9420DD0B1420FD0B9421AD0F8
:1026E000614515D0494515D0514501D1120312E07D
:1026F000594501D102220EE0714501D120220AE0A4
:10270000354D1435A94206D0334A2832914201D1C1
:102710001A4600E022462F49091F0A6029E0A94213
:1027200013D0B14215D0B94220D061451BD04945E4
:102730001BD0514502D14FF4001217E0414502D1A0
:102740004FF0007212E0594501D102220EE07145AE
:1027500001D120220AE0204D1435A94206D01E4A9C
:102760002832914201D11A4600E022461349083925
:102770004A60002180F82010816A00291CD0BDE841
:10278000F05F0847FFE70825A540154214D01A0757
:1027900012D50A6822F00E020A6090F84020C36B3E
:1027A000012101FA02F25A60816380F821100021B0
:1027B00080F82010016BE0E7BDE8F09F08000240C0
:1027C0001C00024030000240440002405800024019
:1027D0006C000240080402401C04024030B560B1A5
:1027E0001C4A03681421934209D21B4A1A44B2FBC3
:1027F000F1F18900016419490AE0012030BD154A50
:1028000052421A44B2FBF1F18900016411490839BE
:10281000C163022180F821101A6843F6F0718A43DF
:10282000F0E901142143D0E902452C432143046916
:1028300021434469214384692143114319600021E4
:1028400041628162C1620163416301224277017783
:10285000084630BD08040240F8FFFDBF00000240FA
:1028600070B5044690F82000002501280CD0012006
:1028700084F8200094F821600020012E06D084F80E
:1028800020000225284670BD022070BD022684F873
:102890002160A0632068066826F0010606602046D5
:1028A000FEF730FCE06A00282068016802D041F0A1
:1028B0000E0106E021F0040101602068016841F08A
:1028C0000A0101602068016841F001010160D9E757
:1028D000012807D0022805D0042803D1042102488A
:1028E00000F0EEB87047000000100140044910B538
:1028F0000A68024202D00860FFF7EAFF10BD00003C
:10290000140401402DE9F84FDFF890A100220AF1EC
:10291000040B144601274FF00F090BF1040E00BF02
:102920000B6807FA04F52B40AB4274D1DFF870C195
:102930004E68A6EB0C0866452BD00DDC032E34D078
:1029400005DC36B3012E19D0022E2FD11BE0112E3B
:1029500016D0122E2AD119E0B8F5881F19D006DC3E
:10296000B8F5803F15D0B8F5801F1FD111E0B8F53C
:10297000001F0ED0B8F5041F18D10AE0CA6815E090
:10298000CA68121D12E0CA6808320FE0CA680C3229
:102990000CE08A682AB1012A4FF0080203D0456191
:1029A00004E0042202E0056100E00022FF2B01D8D0
:1029B000064601E000F104064FEA840501D9A5F1BD
:1029C0002005D6F800C009FA05F82CEA080C02FA2E
:1029D00005F54CEA050CC6F800C04D68ED0057D56A
:1029E000304DAE6946F00106AE61AD6924F00306D4
:1029F00005F0010500952C4D06EB050CDCF80850A0
:102A0000A6074FEA167809FA08F6B543274EB042F2
:102A100002D1002610E03BE0254EB04201D1012654
:102A20000AE0244EB04201D1022605E0224EB04217
:102A300001D1032600E0042606FA08F62E43CCF85E
:102A400008604D68DAF80060ED03554601D51E4375
:102A500000E09E432E604D68DBF80060AD035D46EC
:102A600001D51E4300E09E432E604D68DEF80060F5
:102A7000ED02754601D51E4300E09E432E604D6871
:102A8000AD020E4D2E6801D51E4300E09E432E6020
:102A9000641C102CFFF444AFBDE8F88F0004014023
:102AA0000000111000100240000001400008014029
:102AB000000C014000100140001401400C040140D2
:102AC0008068084000D0012070470AB1016170475A
:102AD0000904FBE70148006870470000400100203E
:102AE00002480168491C0160704700004001002055
:102AF000074810B5016841F010010160032000F0A3
:102B0000D3F8002000F006F800F018F8002010BDFF
:102B10000020024010B5044607484FF47A7100685F
:102B2000B0FBF1F000F0E3FB00222146501E00F064
:102B30009BF8002010BD000044010020224808B589
:102B4000816941F001018161816901F00101009118
:102B5000C16941F08051C161C06900F080500090AE
:102B6000052000F0A1F8002211466FF00B0000F0E4
:102B70007BF8002211466FF00A0000F075F8002281
:102B800011466FF0090000F06FF800221146501F47
:102B900000F06AF800221146101F00F065F80022CC
:102BA0001146901E00F060F800221146501E00F001
:102BB0005BF80648416821F0E0614160416841F0FE
:102BC0008061416008BD000000100240000001402B
:102BD0002DE9F04116460F46040004D094F8390060
:102BE000002518B107E00120BDE8F08184F83850D5
:102BF000204600F02BFF242084F839002068C168AB
:102C000021F40051C160204602F0FEFF20680169F6
:102C100021F4904101612068416921F02A0141615C
:102C20002068016921F00F01394301612068C16802
:102C300021F400613143C1602068C16841F4005152
:102C4000C160E563202084F8390084F83A00002050
:102C5000CAE700F01F02012191404009800000F105
:102C6000E020C0F800117047F0B40E4B1B680C4612
:102C7000C3F30223C3F10705042D00D90425191D50
:102C8000072901D2002300E0DB1E012606FA05F128
:102C9000491E214099409E40761E16403143F0BCAB
:102CA00001F0F9BB0CED00E0064900F007020868EE
:102CB0004FF6FF03184040EA0220034A1043086021
:102CC000704700000CED00E00000FA052DE9F04728
:102CD000DFF83C8105460E46D8F8000000F00700FA
:102CE000B0420CD2D8F8001021F007013143C8F8E7
:102CF0000010D8F8000000F00700B04263D1287837
:102D0000444C800705D56068A96820F0F0000843AE
:102D100060602878C00745D06868012816D021680F
:102D2000022816D0890700294DDA616821F00301D5
:102D300001436160FFF7CEFE6968074641F28830C3
:102D400001290FD00229814619D027E02168890383
:102D5000E9E78901E7E700BFFFF7BCFEC11B494572
:102D600001D918E081466068C0F381000128F3D1E1
:102D700018E000BFFFF7AEFEC11B49450BD86068E5
:102D8000C0F381000228F5D10CE000BFFFF7A2FEDE
:102D9000C11B494502D90320BDE8F087606810F0E7
:102DA0000C0FF3D1D8F80010404601F00701B142F2
:102DB0000BD9016821F0070131430160006800F080
:102DC0000700B04201D00120E6E72878400705D58A
:102DD0006068E96820F4E0600843606028780007D4
:102DE00006D56068296920F4605040EAC10060603F
:102DF00000F03CF86168084AC1F30311515CC84017
:102E0000064908600020FFF785FE0020C4E70000A7
:102E100000200240001002405065000844010020DC
:102E2000014800687047000044010020044805493B
:102E300000684968044AC1F30221515CC8407047E8
:102E40004401002000100240606500080448054964
:102E500000684968044AC1F3C221515CC840704708
:102E600044010020001002406065000810B51CA25B
:102E700088B00FCA04AC84E80F001DA30FCB8DE807
:102E80000F001F4A51681F4801F00C03042B22D089
:102E9000082B20D104ABC1F38344C9031B5D1CD5AF
:102EA000D16AD46A01F00F011DF80110E4030AD5BC
:102EB000D46AD26AC4F30314641CB0FBF4F0C2F306
:102EC0000322921C5043B0FBF1F09DF81D105843B3
:102ED000994200D1400808B010BD0B485843FAE7AA
:102EE000000004050607080900000000000D0000AE
:102EF0000102030405060708090A0B0C0D0E0F104A
:102F00000010024000127A0000093D002DE9F84F40
:102F100004460078EA4DC00748D06868C0F38100D5
:102F2000012807D06868C0F38100022809D16868C9
:102F3000C00306D52868800338D5A06800286FD064
:102F400034E0A068B0F5803F0BD010B1B0F5A02FF1
:102F500011D0286820F480302860286820F4802070
:102F600002E0286840F480302860A06888B1FFF74C
:102F7000B1FD064609E0286840F480202860F0E7AB
:102F8000FFF7A8FD801B642878D828688003F7D550
:102F90000CE0FFF79FFD064605E000BFFFF79AFD36
:102FA000801B6428F0D828688003F7D42078C54EA9
:102FB00080074FF001094FF000073CD5686810F01A
:102FC0000C0F07D06868C0F38100022809D1686837
:102FD000C00306D42868800715D5606901281FD171
:102FE00011E06069B8B1C6F80090FFF773FD804644
:102FF00006E000BFFFF76EFDA0EB08000228C3D873
:1030000028688007F6D52868A16920F0F80040EA12
:10301000C10028600FE03760FFF75CFD804607E0E5
:103020002DE100BFFFF756FDA0EB08000228ABD84A
:1030300028688007F6D4207800072ED5A248E169D9
:10304000E9B1C0F80090FFF745FD804606E000BFFB
:10305000FFF740FDA0EB0800022895D8686A8007BA
:10306000F6D59A484FF4FA510068B0FBF1F00090A1
:1030700000BF0098411E0091FAD20EE0B0E0076058
:10308000FFF728FD804605E0FFF724FDA0EB0800D0
:10309000022887D8686A8007F6D42078400763D56D
:1030A000E8694FF00008C00009D4E86940F080509A
:1030B000E861E8694FF0010800F080500090844812
:1030C0000168C90512D40168834641F4807101602A
:1030D000FFF700FD824605E0FFF7FCFCA0EB0A00CD
:1030E00064287DD8DBF80000C005F5D520690128EB
:1030F0000AD008B1052813D0286A20F00100286200
:10310000286A20F0040002E0286A40F001002862EA
:10311000206941F2883B98B1FFF7DCFC82460BE066
:10312000286A40F004002862EEE700BFFFF7D2FCF7
:10313000A0EB0A01594553D8286A8007F6D50CE060
:10314000FFF7C8FC824605E0FFF7C4FCA0EB0A01CC
:10315000594545D8286A8007F6D4B8F1000F03D046
:10316000E86920F08050E861E06AD0B36968C9037B
:1031700007D56968C1F38101022902D1E96AC9034F
:103180007DD4022808D0E86A20F48030E862B7666F
:10319000FFF7A0FC80463BE02868C00005D5E86A40
:1031A000616B00F0F000884269D1B766FFF792FCCE
:1031B000804605E0FFF78EFCA0EB0800642874D879
:1031C00028680001F6D4E86A616B20F0F00008433B
:1031D000E862E86A216B20F470600843E86201E06D
:1031E00063E018E0C6F86890FFF774FC804605E0DD
:1031F000FFF770FCA0EB0800642856D8286800018F
:10320000F6D508E0FFF766FCA0EB080064284CD870
:1032100028680001F6D4206A90B36968C1F381017F
:1032200002294AD00228376603D0FFF753FC044630
:103230003EE0FFF74FFC074605E000BFFFF74AFC02
:10324000C01B022831D828688001F7D4606AB0F525
:10325000803F09D1E86A61680843E862E86AE1688A
:1032600020F00F000843E862D4E9090108436968C7
:1032700021F4741108436860C6F8609001E01CE016
:1032800019E0FFF727FC044605E000BFFFF722FC2A
:10329000001B022809D828688001F7D50BE000BF81
:1032A000FFF718FC001B022802D90320BDE8F88FA5
:1032B00028688001F4D40020F8E70120F6E7000038
:1032C00000100240000042428004424244010020BB
:1032D000007000404FF0E0210428086903D020F07E
:1032E00004000861704740F00400FAE7704710B529
:1032F000401EB0F1807F01D3012010BD4FF0E024CB
:1033000060610F21601701F0C6F80020A06107205E
:103310002061002010BD10B5FFF7E8FF10BD704719
:10332000704710B590F83C20012A25D0012280F882
:103330003C20CA688C6822F4407222434C6822F414
:10334000806222430C6822F4006222430C6922F45A
:10335000805222434C6922F4005222438C6922F4A9
:103360008042224322F40041026800232143516439
:1033700080F83C30002010BD022010BD30B590F820
:103380003C20012A20D0012280F83C20022380F832
:103390003D3003685C6824F070045C6003685C681E
:1033A0000D682C435C6003689C6824F080049C607A
:1033B00003689C6849680C439C6080F83D200021AC
:1033C00080F83C10084630BD022030BD10B5040026
:1033D00003D094F83D0010B107E0012010BD00209B
:1033E00084F83C00204600F00DF8022084F83D00EF
:1033F000211D206801F06CFF012084F83D000020B1
:1034000010BD000008B5234A01682348914208D145
:10341000816941F400618161806900F4006000907D
:1034200008BD1E4A91420ED1C16941F00201C1613D
:10343000C069002200F00200009011461D20FFF735
:1034400013FC1D2022E0164A91420ED1C16941F0C1
:103450000801C161C069002200F008000090114617
:103460003220FFF701FC322010E00E4A9142D7D102
:10347000C16941F00401C161C069032200F0040088
:10348000009001211E20FFF7EFFB1E20BDE8084041
:10349000FFF7DFBB002C0140001002400004004099
:1034A000000C0040000800400168CA6842F00102B8
:1034B000CA600068016841F00101016000207047A6
:1034C00070B5044690F83C00012817D0012584F817
:1034D0003C50022084F83D002068826822F0770288
:1034E00022F47F4282600868502837D00DDC202803
:1034F00059D005DC88B3102841D151E0022070BDBD
:10350000302853D040283AD13FE060282ED0702890
:103510000BD0B0F5805F03D0B0F5005F2FD110E085
:103520002068816821F0070115E0CB68D1E901210D
:10353000206801F016FF2168886840F077008860F5
:103540001DE0CB68D1E90121206801F00AFF206865
:10355000816841F48041816011E01EE0CA684968D9
:10356000206801F0B3FF5021206806E0CA6849686E
:10357000206801F0BCFF6021206801F0FCFE84F8A7
:103580003D50002084F83C0070BDCA68496820683E
:1035900001F09CFF40212068EFE700212068ECE764
:1035A00010212068E9E720212068E6E73021206823
:1035B000E3E7704770B50446006801694FF0000505
:1035C000C943890715D4C168C943890711D4E91EC5
:1035D000016101202077206880698007204602D0A1
:1035E000FFF7E7FF04E000F0ADF8204600F02FF908
:1035F000257720680169C943490717D4C168C943C1
:10360000490713D46FF0040101610220207720687C
:10361000806910F4407F204602D0FFF7CAFF04E023
:1036200000F090F8204600F012F925772068016933
:10363000C943090716D4C168C943090712D46FF0FA
:1036400008010161042020772068C06980072046B6
:1036500002D0FFF7AEFF04E000F074F8204600F05F
:10366000F6F8257720680169C943C90617D4C168EF
:10367000C943C90613D46FF01001016108202077F7
:103680002068C06910F4407F204602D0FFF791FF08
:1036900004E000F057F8204600F0D9F825772068BC
:1036A0000169C943C90708D1C168C943C90704D121
:1036B000891E0161204600F0E3F820680169C943D2
:1036C000090609D4C168C943090605D46FF0800111
:1036D00001612046FFF723FE20680169C9434906BE
:1036E00009D4C168C943490605D46FF0400101619E
:1036F000204600F021F920680169C94389060BD4EE
:10370000C168C943890607D46FF0200101612046D2
:10371000BDE87040FFF704BE70BD00001FB5006833
:103720000649884209D14FF4706000900220019050
:10373000039069460248FFF7E5F81FBD002C0140E1
:1037400000080140704770B5044690F83C000D46F3
:1037500001280DD0012684F83C60022084F83D0049
:1037600042B1042A18D0082A2AD00C2A4DD139E0B7
:10377000022070BD206801F007FE2068816941F0D9
:10378000080181612068816921F00401816120685C
:1037900081692A69114311E0206801F01DFE20684B
:1037A000816941F4006181612068816921F480614F
:1037B0008161206881692A6941EA0221816124E0EE
:1037C000206801F035FE2068C16941F00801C1613F
:1037D0002068C16921F00401C1612068C1692A69BA
:1037E000114311E0206801F04FFE2068C16941F4E7
:1037F0000061C1612068C16921F48061C1612068F4
:10380000C1692A6941EA0221C16184F83D60002052
:1038100084F83C0070BD10B5040003D094F83D005E
:1038200010B107E0012010BD002084F83C002046C4
:1038300000F00CF8022084F83D00211D206801F002
:1038400047FD012084F83D00002010BD70477047FF
:1038500010B504460068012201F078FD0749206890
:10386000884203D1416C41F4004141642068016801
:1038700041F001010160002010BD0000002C01405A
:103880007CB524490A68D30705D0234B984203D15D
:1038900042F4807008607CBD204B984233D142F4E2
:1038A0008050086001F07EFC01F0C6FF1C4D1D48F1
:1038B000A96E0160696E4160A96F816000211A489C
:1038C000FEF77AFB194EB069FCF728FF04B2D6F870
:1038D000E401FCF723FF03B20020CDE90004024617
:1038E00040F2FF142146104801F07AF9D5F8E800BB
:1038F000FCF714FF02B21346009221460C480192D5
:1039000001F06EF97CBD0B498842FBD1BDE87C40DB
:1039100001F0A6B9B000002094020020D4020020DB
:10392000700B00201C210020CC010020500500203D
:1039300010020020140300207047704770B5026821
:1039400004461068D168536910F00F0F50D003F08F
:10395000010501F4907635435DD0C20705D0CA0554
:1039600003D5E26B42F00102E263420705D5DA07B4
:1039700003D0E26B42F00202E263820705D5DA0768
:1039800003D0E26B42F00402E263020705D5DA07D6
:1039900003D0E26B42F00802E263E26B002A33D00C
:1039A000800604D5880602D5204602F0E2F8206899
:1039B0004069E16BC0F38010090700D428B32046AA
:1039C00002F0C0F82068416949061AD5416921F022
:1039D00040014161606BA0B11B494163606BFEF720
:1039E00041FD002810D0606B416BBDE87040084776
:1039F000830610D58B060ED52046BDE8704002F038
:103A0000B8B82046FFF799FF70BD2046FFF795FF35
:103A10000020E06370BD030606D50B0604D52046E2
:103A2000BDE8704002F0A8B94006F3D54806F1D5CC
:103A3000D168204621F04001D160202184F839105E
:103A400000F021F970BD0000A55A00082DE9F043EF
:103A50000646D0F800C04748DFF81481011502225D
:103A60000323C5140024802785B04FF40059C445B2
:103A70002DD1D0F81CC04CF4002CC0F81CC0C0697B
:103A8000CDE9001200F40020CDE90330DFF8E88032
:103A900069464046FEF736FFCDE900546946404688
:103AA0000294FEF72FFF364D3448C5E90004C5E9FE
:103AB00002472C616C61C5E906492846FEF78EFE77
:103AC00018B188212FA002F0E1FA75634BE0DFF80E
:103AD000C480C44548D1D0F81CC04CF4802CC0F838
:103AE0001CC0C069CDE9001200F48020CDE903308C
:103AF000DFF8A48069464046FEF704FFCDE9005494
:103B0000694640460294FEF7FDFE1D4D23484435AC
:103B1000B846C5E90004C5E902472C616C61C5E9F6
:103B200006494F462846FEF759FE18B1B62115A0A2
:103B300002F0ACFA75636E62114D1848883514387E
:103B400001C51020A5E811010D4845F8104988303D
:103B50006C61C5E90647FEF741FE18B1C62109A010
:103B600002F094FA35636E6205B0BDE8F0830000A0
:103B7000004C0040001002400010014030040240A0
:103B8000D40300202E2E2F5372632F75736172742D
:103B90002E63000000480040000C0140300002404D
:103BA000F8B5044690F83A0020283CD1C1B3BAB326
:103BB00094F83800012836D0012084F83800A1623A
:103BC000A2850025E563222084F83A00636B17483C
:103BD0009862636B1648D862636B16481863606B13
:103BE000134645630846666B216802463046091D48
:103BF000FEF736FE206801684168009184F838506D
:103C0000C16841F48071C1602068416941F00101DF
:103C100041612068416941F0400141610020F8BDE7
:103C2000FFE70120FBE70220F9E70000FF5A000848
:103C30003B5B0008B55A00080C4910B588420AD110
:103C40000B49002008600B490B4800F058FF242264
:103C50000949064805E00949884206D1084907484C
:103C60002C22BDE81040FFF79BBF10BD540300207D
:103C7000F0040020E4200020A00400209403002091
:103C8000C404002070477047FEE7000070B5614C27
:103C9000614D4FF07F5694F8D100012829D05F483C
:103CA000C4F8B000B4F9BC00FCF71DFD3146FCF7C8
:103CB00016FBD4F8A410FCF779FD08D2B4F9BC00C7
:103CC000FCF711FD3146FCF70AFBC4F8A40094F898
:103CD000CC0018B103280FD8A4F8C400B4F8C4006D
:103CE00001281DD8B4F9BE00F02809DDA4F8BC00F5
:103CF00009E0C4F8B050D5E70320A4F8C40028E0D8
:103D0000F021A4F8BC104649D4F8B4208A4204DD5E
:103D1000FCF7E9FCC4F8B4002DE0C4F8B4102AE0C4
:103D2000022802D0032814D025E0B4F9BE004FF4D5
:103D3000B471884202DDA4F8BC0001E0A4F8BC1014
:103D4000D4F8B41013E000BFFCF7CDFCC4F8B40005
:103D50000FE0B4F9BE004FF4F071884202DDA4F820
:103D6000BC0001E0A4F8BC102E4DD4F8B410A94258
:103D7000EADCC4F8B450D4F8B4002B49A434FCF7FE
:103D8000E0FA2168FCF7A8FA284E002544F8A409B7
:103D900010F1FF4F01D3C4F8A450D4F8A810B06CB0
:103DA000FCF704FD04D0D4F8A800C4F8A40001E096
:103DB000D4F8A400C4F8AC0094F8C60001280BD1D4
:103DC000D4F8C80044F62061884203D2401CC4F8ED
:103DD000C80003E084F8C650C4F8C850B4F9BC0069
:103DE000AC34FCF780FC6168FCF773FA54F8AC194A
:103DF000FCF7DCFC02D294F8C60028B184F8C2506B
:103E0000D4F8A800B06470BD012084F8C200A0708E
:103E1000F6E70000700B00200000704200004842EE
:103E2000000020420000A04200007A44E000002090
:103E300070B5044618481749016000F019FE18488B
:103E4000164D056100F000FB1648056100F0FCFA14
:103E50001548056100F0F8FA1448A0601448E060C5
:103E60001448606114486060144820601448A061E0
:103E70000220207703216177002084F8860084F8EF
:103E8000880084F8870084F8890084F8500084F85A
:103E9000511070BD714A0008E42000204944000818
:103EA000F00400200405002018050020511300082C
:103EB0009D1300080D140008C5150008C51700085B
:103EC0008115000870B505460846FCF708FA044657
:103ED00029460846FCF703FA2146FCF7A8F920F02A
:103EE0000040FCF734FC02F00DFBFCF743FC0549F5
:103EF000D1F88410FCF75AFC01D2012070BD0020DB
:103F000070BD0000700B0020104810B50E49016014
:103F10000921416000214FF480328160C0E9031221
:103F200041618161C1610162416281620121C162BD
:103F3000FDF710FF002805D0BDE810404A2104A07D
:103F400002F0A4B810BD000000640040CC010020C5
:103F50002E2E2F5372632F63616E2E6300000000BC
:103F6000104810B50E4901600921416000214FF44D
:103F700080328160C0E9031241618161C1610162E7
:103F8000416281620121C162FDF7E4FE002805D093
:103F9000BDE81040622104A002F078B810BD000016
:103FA00000680040100200202E2E2F5372632F63F2
:103FB000616E2E6300000000154808B5416941F0AC
:103FC00001014161416901F001010091416941F044
:103FD000020141614069002200F002000090114698
:103FE0000C20FEF741FE0C20FEF733FE00221146A6
:103FF0000D20FEF739FE0D20FEF72BFE00221146A4
:104000003A20FEF731FEBDE808403A20FEF721BE17
:10401000001002402DE9F0413B4886B0816941F033
:1040200020018161816901F020010491816941F0E1
:1040300010018161816901F010010491816941F0F1
:1040400004018161816901F004010491816941F0F9
:10405000080181618069DFF8B48000F008000490F5
:10406000012230214046FEF730FD0022C0214046AB
:10407000FEF72BFD0327264800250097CDE9010513
:10408000244E69463046FEF73DFC0C200090224845
:104090000124CDE9010469463046FEF733FC3020A7
:1040A000CDE900040226CDE9024669464046FEF706
:1040B00029FCC0208DE8710069464046FEF722FCCD
:1040C00001AA009782E8700069461448FEF71AFCBE
:1040D000012200210620FEF7C7FD0620FEF7B9FDEC
:1040E000012200210720FEF7BFFD0720FEF7B1FDEA
:1040F000012211460820FEF7B7FD0820FEF7A9FDB2
:1041000006B0BDE8F0810000001002400008014048
:10411000000021100010014000003110000C01408F
:1041200010B53E4894B03C49016023210024C0E909
:10413000011444F62061C0E9031444618461FFF76F
:1041400045F918B1462136A001F0A0FF4FF4805088
:104150000E900EA93148FFF7B3F918B14C2130A0E9
:1041600001F094FF2D48FFF756FB18B151212CA008
:1041700001F08CFF129412A928481394FFF7FEF85F
:1041800018B1582126A001F081FF6020CDE900047C
:104190000294039404940594002269461F480694EF
:1041A000FFF7D1FA18B164211DA001F06FFF0422BE
:1041B00069461A48FFF7C7FA18B1692118A001F03B
:1041C00065FF082269461548FFF7BDFA18B16E2150
:1041D00013A001F05BFF0C2269461048FFF7B3FA09
:1041E00018B173210EA001F051FF079408940994AF
:1041F0004FF400500A94CDE90B4007A907480D94ED
:10420000FFF78FF818B17F2105A001F03FFF0348A9
:10421000FFF784FA14B010BD002C014054020020B6
:104220002E2E2F5372632F74696D2E6300000000D1
:1042300010B5194886B01749016024210024C0E94F
:10424000011442F21071C0E903148461FFF7BEF853
:1042500018B1932111A001F019FF4FF48050009084
:1042600069460D48FFF72CF918B199210BA001F010
:104270000DFF049404A908480594FFF77FF818B1CE
:10428000A02106A001F002FF0348FFF70DF906B0D8
:1042900010BD000000040040940200202E2E2F5379
:1042A00072632F74696D2E630000000010B518480A
:1042B00086B016490024C0E9001440F2E731C0E995
:1042C000024104618461FFF781F818B1D42111A083
:1042D00001F0DCFE4FF48050009069460C48FFF777
:1042E000EFF818B1DA210BA001F0D0FE049404A974
:1042F00007480594FFF742F818B1E12105A001F045
:10430000C5FE0348FFF7D0F806B010BD0008004016
:10431000140300202E2E2F5372632F74696D2E63A9
:104320000000000010B5194886B01749016024212B
:104330000024C0E901144FF47A71C0E903148461C8
:10434000FFF744F818B1B42111A001F09FFE4FF41B
:104350008050009069460D48FFF7B2F818B1BA21B5
:104360000BA001F093FE049404A908480594FFF7FC
:1043700005F818B1C12106A001F088FE0348FFF737
:1043800093F806B010BD0000000C0040D4020020DD
:104390002E2E2F5372632F74696D2E630000000060
:1043A0000E4810B50C4901600D49416000214FF4E1
:1043B00080628160C0E903120422C0E905210A4637
:1043C000C161FEF705FC002805D0BDE810404A2178
:1043D00004A001F05BBE10BD004C0040540300205F
:1043E000A08601002E2E2F5372632F757361727495
:1043F0002E6300000E4810B50C4901604FF4E13106
:104400004160002181600C22C160C0E90412816119
:104410000A46C161FEF7DCFB002805D0BDE810406C
:104420005D2104A001F032BE10BD00000048004034
:10443000940300202E2E2F5372632F7573617274B4
:104440002E630000FEE70000AFF2030101610C499A
:10445000884201D10B4904E009491431884202D154
:104460000949C160704706492831884201D107498E
:10447000F7E703493C318842F4D10549F1E70000F0
:10448000F0040020B9640008D964000891640008B1
:104490006564000870470907090E002806DA00F075
:1044A0000F0000F1E02080F8141D704700F1E020BB
:1044B00080F80014704770472DE9F84F0446C06A31
:1044C0004FF400051646A84201DA80F0004082460B
:1044D000206BA84201DA80F000400090606BA84297
:1044E00001DA80F000408346E06DA84201DA80F0F6
:1044F00000408146666430462165FBF7EAFEE065D0
:104500004846A16BFCF752F905D2606801286ED0CD
:10451000E06FBDE8F88F60680027012802D002280C
:104520007DD010E1A169A94201DA81F00041A846DD
:1045300086F00045464501DB304600E02846FCF7A2
:104540003FF90AD23146A06AFBF7C9FE206604F1A2
:1045500060006169FCF784FA17E0A069404501DA60
:1045600080F000404FF07E51FBF761FE014646456A
:1045700001DB304600E02846FBF7E3FEA16AFBF7CB
:10458000AEFE3146FBF7ABFE2066E16DE069FBF75E
:10459000A6FE6066D4E90B01FCF712F92DD2D4E92E
:1045A0000C01FCF70DF928D251464846FCF708F9F2
:1045B0002BD348460099FCF703F919D250460099CD
:1045C000FBF787FE054649465046FBF782FE294623
:1045D000FBF7B7FE4FF07E51FBF729FE4FF0FF319E
:1045E000FBF7EDFE216AFBF77AFEE16D07E0B9E02B
:1045F00059464846FCF7E4F807D2E16D206AFBF71C
:104600006EFEA16EFBF713FEA066206A10F0FF4F4E
:1046100000D1A766E168414513DB206900E04AE06C
:1046200010F1FF4F0DD3A06EFCF7CAF801D2E0687D
:1046300005E02169A06EFCF7B9F803D22069A066F5
:1046400000E0A766D4E91610FBF743FEFCF77FF8FD
:1046500006460D46606AFCF77AF8DFF80C81434B9A
:104660004246FBF75FFF32462B46FBF75BFF0646F1
:104670000D46E06EFCF76BF842463D4BFBF752FFF0
:1046800032462B46FBF7A7FEFCF774F80546E066BA
:10469000D4E91801FBF7CBFDA16EFBF7C8FD294655
:1046A000FBF7C5FD206704F17000A168FCF7D8F99D
:1046B000206F606747E0D4E9166531462846FBF76E
:1046C00008FEE169FBF70BFE60662946206AFBF7EE
:1046D00006FEA06601213046FBF771FE2946FBF776
:1046E000FBFD616DFBF7A3FD616AFBF7F8FDE0667A
:1046F000D4E90301FCF764F80ED2E168A06EFCF780
:104700005FF801D2E06805E02169A06EFCF74EF881
:1047100003D22069A06600E0A766D4E91901FBF77F
:1047200086FDE16EFBF783FD0146A067D4F88000AB
:10473000FBF77DFDE06704F17C00A168FCF790F9D0
:10474000E06FC4F88000A06D6065E06DA065E06C6E
:10475000A064206DE064206A10F0FF4F7FF4D5AEB6
:10476000A766D2E6206FD4E69A9999999999E93F7C
:104770009999C93F70B50C460546C16DE069FBF7D4
:10478000AEFD296FFBF7A8FDA06670BD2DE9F04FC7
:10479000DDE91254DDE91076DDE90CE8DDE9099A7E
:1047A000DDF83CC0DDF82CB041604FF400018A42D6
:1047B00001DA82F0004282608B4201DA83F000432A
:1047C0004A46C360894501DA89F0004282F000421E
:1047D00000F11C03026183E8004C884501DA88F08F
:1047E0000048C0F838800E9A82628C4501DA8CF05D
:1047F000004CC0F82CC08F4201DA87F000470763F5
:104800008E4201DA86F0004646638D4201DA85F079
:10481000004545618C4201DA84F000448461BDE8C2
:10482000F08F0000F0B5274801222849264B42624C
:10483000C0E90A3126490163264C0021C0E90F4135
:10484000416400F14806244D4FF07E57816586E8AB
:10485000A20041654163214E8163C0E92A26204EB2
:10486000C0F8B0601F4EC0F8B460C0E931711F4F8E
:10487000C0F8DC10C0E933171D4FC0E935711A4E7E
:104880001C4FC0F8B870C0E92F7600F5967787E81E
:104890004C00194AC0F83821184AC0E95221C0F822
:1048A0006011C0E954154FF07F52C0E95621C0F89D
:1048B0003C11C0E950141249C0F8AC111149C0F8BC
:1048C000B011F0BD50050020000016440000A041CA
:1048D0000000A0C100007041000040400060EA46B6
:1048E0000080BB450080BBC500004843000070420B
:1048F0000000F0410000FA43000048C30AD7233CFF
:1049000000000842000080C12DE9F04701F096FD4B
:104910004A4C80464A4FD4F8C001DFF828A1B8427B
:1049200002DD5146FBF7D5FCA168064689464046A4
:10493000FBF7CFFC0546B84203DD5146FBF7C9FC47
:1049400006E04148854204D951462846FBF76FFCF2
:104950000546484601F072FDC4F81480A060314657
:104960002846FBF764FC0546D4F8AC11FBF728FF9A
:1049700003D2A168D4F8AC010AE02846D4F8B011FB
:10498000FBF714FF01D3606908E0A168D4F8B00117
:10499000FBF74DFC3146FBF79CFC606101F04EFDDE
:1049A00001466061A068FBF701FF07D2A16860695A
:1049B000FBF78FFCB84211DB514609E06169A06842
:1049C0000E460546FBF785FCB84204DA2946304618
:1049D000FBF77FFC02E05146FBF77EFC05461748DB
:1049E00094F8B02300F1A40800F1200600F59477B4
:1049F00094F8B103012A02D001280BD00EE002285E
:104A000003D131463846FFF7B5FE85F0004100225C
:104A1000304607E039463046FFF7ACFE85F00041EE
:104A200000223846FFF748FD206102464046E16813
:104A3000FFF742FDA061BDE8F087000050050020AF
:104A4000000034430000B443000034C310B5074CE9
:104A500004F11000A16AFBF7F2FFD4E9031204F19C
:104A6000A400FFF729FDA06110BD00005005002043
:104A7000AFF2030101604FF480618180C180018148
:104A8000418100210182418281828175C1750322A9
:104A9000027342738184AFF3008030F8241F01F069
:104AA00001028270C1F34002C270C1F38002027140
:104AB000C1F3C0024271C1F300120272C1F340128D
:104AC0004272C1F380128271C1F3C012C271C1F38C
:104AD00000228272C1F34022C272C1F380220273AB
:104AE000C1F3C0224273C1F300328273C1F340327A
:104AF000C273C1F380320274C90B417470472DE94F
:104B0000F04F0023002864D040F2946B4FF4B67E3F
:104B1000C21892F801C057794FEADC0892F802C037
:104B2000BC09E14648EA4C1CCCF30A0A92F803801F
:104B30004FEA991C4CEA880C92F80480C7F30115DF
:104B40004CEA882C16884FEA580848EAC717C6F37B
:104B50000A06CCF30A0CC7F30A09012C03D0022C75
:104B600001D0032C37D1012D03D0022D01D0032D0C
:104B700031D1177B0FB1012F2DD1577B0FB1012FF1
:104B800029D15F46BE4226D2764524D9BA4522D2E3
:104B9000F24520D9BC451ED2F4451CD9C846D9459A
:104BA00019D2F14517D98E80A1F806A0A1F808C046
:104BB000A1F80A800C7318444D73C08808821089CC
:104BC000488250898882107B8875507BC875D0894F
:104BD0008884BDE8F08F5B1C112B99DBF9E77047E7
:104BE000F0B4066BDDE904543160066B0021B1605E
:104BF000066BF160066B08213161066B110A317595
:104C0000016B4A75026B190A9175016BCB75026BCA
:104C1000290A1176016B4D76026B210A9176016BA0
:104C2000CC76F0BC0021FDF735BB30B5D5B2012400
:104C300003200221012D0AD0022D0AD01970C2F3DF
:104C40000722012A07D0022A07D0587030BD1C70F5
:104C5000F5E71870F3E75C7030BD597030BD0000A7
:104C600018484FF6FF73D0E90412CB1A72F1000313
:104C700004D2491C42F10002C0E90412017E01295C
:104C800002D000210A460AE0D0E908124FF6FF736D
:104C9000CB1A72F1000304D2491C42F10002C0E9B0
:104CA000081290F828200021012A01D180F828104C
:104CB00090F89220012A03D14289022A00D9418129
:104CC00070470000700B002010B525480021254AD0
:104CD00080F8941040F8842F0222827341F270729F
:104CE000828180F84C1080F84D10818780F8421046
:104CF000502220F8762C1C4A40F8102C1B4B012225
:104D0000C0E91C231A4B83671A4BC3671A4BC0E9CF
:104D10002231C0F89010194CC0F8A410C0E9251435
:104D2000174CC0E92741C0F88010C0F8841040F843
:104D3000F42F144A4260144A8260144AC260144A32
:104D400082614FF07C52C0E907214163C0E9091339
:104D5000104AC0E90B21104940F8101F416010BDF6
:104D6000700B00200000604000007A4400803B454A
:104D700000004842000048C2000070420000A0410C
:104D80000000A04000401C460080BB450080BBC521
:104D90000000A0420000F0410000FA432DE9FF5F4F
:104DA000F84CF9480025A570417FDFF8E0A34FF0EB
:104DB00002094FF00108012908D0027F0AF10E0014
:104DC000032A007870D0012A6FD043E1F049887D32
:104DD000012807D084F8005091F83400039001288E
:104DE00005D00BE084F8008084F8D080F4E794F8D4
:104DF0009400072802D08AF8018001E08AF8015067
:104E0000C87D012811D08AF8005000BFDFF884B3B4
:104E100091F8332002929BF80D000090DC48012AA3
:104E200010F82C7F467803D01FE08AF80080EDE769
:104E30000098D0B916B1012E0AD00AE017B1012F9F
:104E400003D012E08AF802500FE08AF802900CE0DA
:104E500017B1012F03D008E08AF8028005E0012E87
:104E600003D184F8C680C4F8C850BAF810204FF6B1
:104E7000FF7350469A4201D2521C028291F82A20B6
:104E80000192012A01D184F8F85191F82B20012ACE
:104E900005D19BF8052012B946B184F8F88191F844
:104EA0003020012A05D01BE0BFE0CAE084F8F851A9
:104EB000F5E79BF80A209AB917B1012F04D00FE04B
:104EC00076B9457185700BE0012E01D036B107E04F
:104ED00084F8C6500279521C027101E080F8058006
:104EE0009AF8040020B11EB984F8CC008AF8045066
:104EF000A74890F83500012801D068B32EE09BF850
:104F00000F0018BB9F484FF07F51012F406C01D01C
:104F10003FB100E016B1012E0BD108E0FBF787F995
:104F200003E0012E05D1FBF7D4F9606401E0012F05
:104F300014D0BAF81010FA2901D207B93EB184F89A
:104F4000898084F88A5000BFAAF8105006E084F8DF
:104F5000895084F88A80F7E784F889509AF803002A
:104F6000514678B18A4890F8262052B990F8272007
:104F70003AB990F8282022B990F8290008B9019888
:104F800000B1CD708248834A90F83130D27A012B3B
:104F90000AD14AB9012E01D026B105E027B98AF815
:104FA00003905AE0012F04D09AF80310042904D08A
:104FB00053E04FF0040C8AF803C090F83200012847
:104FC0000CD19BF80C0048B947B916B1012E03D09B
:104FD00004E084F8A18001E084F8A19002980128FF
:104FE0000BD1009848B947B916B1012E02D004E0A0
:104FF000032000E0042084F8A100012B04D11AB999
:1050000017B90EB984F8A1500398012825D19BF84F
:105010000E0010BB0FBB16B1012E03D01DE084F8AB
:10502000A0801AE084F8A05017E0032812D094F86A
:10503000D00020B15FF0000084F8D0000AE0012029
:10504000FAE7012806D094F8F801A0B15FF000005B
:1050500084F8F801022910D025709AF80500564608
:1050600070B184F8D1804C48017B427B91420AD0D8
:1050700084F88C8009E00120EAE784F80080ECE7FE
:1050800084F8D150EFE784F88C50F2780723062794
:10509000012A32D0022A33D0032A34D0042A37D04E
:1050A00094F8D1C0BCF1000F34D04773807B10B1AD
:1050B00094F88C0080B384F8945094F88C00012804
:1050C0003FD0042A53D0B07838B3012866D00228E4
:1050D00051D094F89200022804D000BF84F8D18007
:1050E00086F805802A49102226312A48FBF78DF8D8
:1050F0002548808BF081BDE8FF9F80F80D80D5E7C3
:1051000080F80D90D2E74FF0030C80F80DC0CDE78A
:105110004373CBE74573C9E700E02FE059B1062997
:1051200009D002291CD001291FD00329C9D104208C
:1051300084F8940016E070780128307804D00128B3
:105140000BD084F89450BCE7012802D084F89480F6
:10515000B7E7032084F89400B3E784F89490B0E7AD
:1051600084F8947086F80290ABE70520E0E784F8B5
:10517000943086F8029084F89250AFE784F89290C9
:10518000B0E70BE0700B002008000020E0000020DA
:10519000E4200020080900204821002084F89280A3
:1051A0009CE7000010B5FFF7F9FDFEF76FFDFBF778
:1051B000EBFC00F01BFEFBF7C5FF00F071FAFBF7FC
:1051C0007FFF04480178417090F8921080F89310A6
:1051D00010BD0000700B002010B5FDF781FCBDE88C
:1051E0001040FEF798B8000070B594B00225002476
:1051F000CDE90054012610200895CDE905604FF453
:10520000E010CDE9094068460B94FDF77FFE00B140
:10521000FEE70F200E90CDE90F54119401210EA846
:105220001294FDF753FD00B1FEE7FDF7F9FD4FF4D1
:105230007A71B0FBF1F0FEF75AF80420FEF74AF855
:105240000448066700221146501EFDF70DFD14B0FC
:1052500070BD0000000042421048016841F00101A9
:10526000016041680E4A1140416001680D4A1140D9
:105270000160016821F480210160416821F4FE0190
:105280004160016821F0A05101604FF47F0181600D
:105290000021C1620449C003086070470010024049
:1052A0000000FFF0FFFFF6FE08ED00E00148FEF70A
:1052B00081B90000940200200148FEF77BB900008C
:1052C000140300200148FEF775B90000D402002045
:1052D000F0B50268194B1A4C1A4D1B4E4FF080471F
:1052E000984207D0B84205D0A04203D0A84201D0CE
:1052F000B04204D122F0700C4A6842EA0C02984293
:1053000007D0B84205D0A04203D0A84201D0B04295
:1053100003D122F44074CA68224322F080044A690F
:10532000224302608A68C2620A688262984201D19E
:105330000969016301214161F0BD0000002C0140B9
:105340000004004000080040000C004010B501239C
:10535000046A8B409C430462036A8A4013430362DD
:1053600010BD10B5846842EA032224F47F440A4346
:105370002243826010BD826822F070020A4342F02C
:10538000070181607047000030B5026A22F0010217
:105390000262026A4368846924F073050C682C4336
:1053A00022F002058A682A430A4DA8420BD122F056
:1053B0000805CA6823F440732A434D6922F00402A9
:1053C0001D438B692B4343608461496841630262DA
:1053D00030BD0000002C014030B5026A22F01002FE
:1053E0000262026A436884690D6824F4E64444EA70
:1053F00005248D6822F0200242EA05120B4DA842D6
:105400000ED1CD6822F0800242EA05124D6923F4E4
:10541000406343EA85038D6922F0400243EA850335
:105420004360846149688163026230BD002C0140A1
:1054300030B5026A22F480720262036A4268C4696B
:1054400023F4007324F073050C682C438D6843EA41
:1054500005230C4DA8420ED1CD6823F4006343EA26
:1054600005234D6922F4405242EA05128D6923F466
:10547000806342EA05124260C4614968C163036205
:1054800030BD0000002C014030B5026A22F4805289
:105490000262046A4268C3690D6823F4E64343EA82
:1054A00005238D6824F4005444EA0534064DA842CF
:1054B00004D14D6922F4804242EA85124260C36100
:1054C00049680164046230BD002C014010B5036AD4
:1054D000046A24F001040462846924F0F00444EABC
:1054E000021423F00A020A438461026210BD10B55F
:1054F000036A23F0100303628369046A23F4704390
:1055000043EA023224F0A00343EA011182610162FE
:1055100010BD000070B504460420216B1F4D204EC5
:105520008860216B41F215304860216B0020C86013
:10553000216B082008613146686AFAF7D0FEFBF754
:10554000EDF8216B001208753146686AFAF7C7FE5C
:10555000FBF7E4F8216B48753146A86AFAF7BFFEFD
:10556000FBF7DCF8216B001288753146A86AFAF760
:10557000B6FEFBF7D3F8216BC875216B687F087600
:10558000216B287F48760748226B818C090A917627
:10559000216B90F82400C87670BD00000800002040
:1055A0000000C842E42000202DE9F04138490546BA
:1055B000012091F892200023364C022A5DD0012A66
:1055C00063705DD0A370E07091F8F821002A5AD082
:1055D00084F8043091F8D110012956D063712D4818
:1055E000FBF7A3FF296B04202A4E8860296B41F248
:1055F0001630203E4860286B284FC360296B082076
:1056000008612548296B407B087539463068FAF7F0
:1056100066FEFBF783F8296B00124875394630683F
:10562000FAF75DFEFBF77AF8296B887539467068E2
:10563000FAF755FEFBF772F8296B0012C875394668
:105640007068FAF74CFEFBF769F8296B0876394663
:10565000B068FAF744FEFBF761F8296B0012887610
:105660003946B068FAF73BFEFBF758F8296BC87665
:10567000296B20784876BDE8F0816070A37000E067
:10568000A070E370A0E72071A4E76071A7E70000B5
:10569000700B00203C210020482100200000204108
:1056A0002DE9F041584E5949706BFAF718FE584CE5
:1056B00007465849C4F8D800F068FAF742FEC4F823
:1056C000DC0020780021544D012801D0297203E02C
:1056D00001202872E87960B15FF0000094F8922010
:1056E000022A08D090B14A48012A80890AD05AB1CA
:1056F0000CE00120F2E7287A012801D0A18105E021
:10570000022002E0C01C00E0401CA081A07808B18B
:10571000A18104E0A089032801D90320A081D5E953
:105720001401421C71F1000203D2401C41F100013E
:1057300001E000200146C5E91401A089D8B9D4F8D8
:105740004C0120F00040B0F1804F19DA3348874215
:1057500016DD384600F072FE44F8D80FE06800F01D
:105760006DFEE0602E492068FAF7B9FDF06234F86A
:10577000CC0CD83C20B1688B10B90020C5E91400CE
:10578000E289D5E91401521CD317FAF7FDFC1A433C
:1057900020D1A089F0B1D4F84C11224A21F0004167
:1057A000914217DA401EA0811F49D4F8E400FAF7AD
:1057B0003EFDC4F8E4002089401C208194F8D1000B
:1057C0000128D4F8A4001CD0184900BFFAF72FFD17
:1057D000C4F8A4000E48D4F8E420D4F8D810F0306F
:1057E0006C34FEF769FE606702461148216FFEF7D0
:1057F00063FEE067287AE87134F8600C6883BDE8DE
:10580000F0810C49E2E70000BC15002000002041B7
:10581000700B00200000C040E000002000F0524764
:10582000CDCCCC3D00004843000082420000B04196
:10583000E40C00200000F0412DE9F0478148824C43
:10584000DFF808820168012681F00041E16080688C
:1058500080F00040C4F8D80198F8940003280CD0D8
:1058600002280AD084F8B063794D286AB0F5FA6F3F
:1058700007D2401C2862BDE8F087022084F8B003FC
:10588000F2E7FCF709F8FBF729FF724890F82800C7
:10589000012801D184F8B4616F4890F828000128EC
:1058A00001D184F88063687848B994F8B40130B1C4
:1058B000D4F8C011A068FAF70CFD60616E70FCF7B7
:1058C00083F80028D7D1654F787F032802D00128BC
:1058D00014D073E0624D84F898632946786DFAF726
:1058E00030FD6169FAF7A3FC60612946386EFAF76A
:1058F00028FDD4F8E011FAF79AFC5AE098F8F8017C
:10590000C146012805D1D4F8C011A068FAF7E1FC1E
:105910006061544FDFF8308197F82A00A8F1100831
:10592000012809D198F8040030B94F49D4F8D401BE
:10593000FAF77DFCC4F8E00197F82F00012801D0A8
:1059400048B111E098F8090070B9D4F8D401686240
:10595000A068A86208E098F80900012804D1686AE4
:10596000C4F8E001A86A606199F89400012807D0A2
:1059700030B1072804D003281ED002281CD01DE017
:1059800084F89863B7F91200FAF7ADFE374D29464F
:10599000FAF7A5FC6169FAF79FFC6061B7F910009E
:1059A000FAF7A1FE2946FAF79AFCD4F8E011FAF7C3
:1059B00093FCC4F8E00101E084F8986394F899033B
:1059C000022894F8980302D001280CD001E00128A5
:1059D00003D0C0B2022816D023E0D4F8D401C4F812
:1059E000E001A068606194F8B401012802D1606907
:1059F000FEF78AFF94F88003012812D1D4F8E00161
:105A000000F0C8FA0DE094F8B401012802D1504624
:105A1000FFF71CF894F88003012802D1504600F0EB
:105A20001FFB94F8980384F899030E490648102246
:105A30002631103804F56674FAF7E7FB207E6076AD
:105A400019E700003C0E002050050020700B0020DC
:105A5000B4000020501B0020741900200800002012
:105A600000004843E4200020000034436F12833BD1
:105A7000084800B5012180F89813002280F885239A
:105A800080F8842380F8B013FEF7CCFE5DF804EBB9
:105A900000F014BA500500200148FDF74FBF000088
:105AA0005403002010B5406A0021C185C184FDF770
:105AB00044FF10BD70B5446A2068406994F83910FD
:105AC000C0F3C0100025212904D118B1E584204677
:105AD00000F046F82068406994F83A10C0F380104E
